:020000040800F2
:10000000000002204D120008AD120008AD120008D9
:10001000AD120008AD120008AD120008000000008B
:100020000000000000000000000000003120000877
:10003000AD120008000000004D2100089D210008BD
:10004000AD120008AD120008AD120008AD12000894
:10005000AD120008AD120008AD120008AD12000884
:10006000AD120008AD120008AD120008AD12000874
:10007000AD120008AD120008AD120008AD12000864
:10008000AD120008AD120008AD120008AD12000854
:10009000AD120008AD120008AD120008AD12000844
:1000A000AD120008AD120008AD120008AD12000834
:1000B000AD120008AD120008AD120008AD12000824
:1000C000AD120008AD120008AD120008AD12000814
:1000D000AD120008090D0008AD120008AD120008AD
:1000E000AD120008AD120008AD120008AD120008F4
:1000F000AD120008AD120008AD120008AD120008E4
:10010000AD120008AD120008AD120008AD120008D3
:10011000AD120008AD120008AD120008AD120008C3
:10012000AD120008AD120008AD120008AD120008B3
:10013000AD120008AD120008AD120008AD120008A3
:10014000AD120008AD120008AD120008AD12000893
:10015000AD120008AD120008AD120008AD12000883
:10016000AD120008AD120008AD120008AD12000873
:10017000AD120008AD120008AD120008AD12000863
:08018000AD120008AD120008E9
:1001880010B540F24854C2F20004237863B940F233
:100198000000C0F2000028B142F6A450C0F60000EA
:1001A800AFF300800121217010BD00BF08B540F2F7
:1001B8000003C0F200034BB142F6A45040F24C5188
:1001C800C0F60000C2F20001AFF3008040F24450D4
:1001D800C2F20000016829B140F20003C0F2000336
:1001E80003B1984708BD00BF70B542F6BC5642F649
:1001F800BC55C0F60006C0F60005761BB61006D042
:10020800002455F8043B01349847A642F9D142F638
:10021800C45642F6BC55C0F60006C0F60005761B6B
:1002280002F0BCFDB61006D0002455F8043B01349A
:100238009847A642F9D170BD40F200030146C2F2C8
:100248000003186800F008B840F200030146C2F243
:100258000003186800F0B0BB2DE9F04F01F10B0462
:10026800162C83B0064630D924F00704E30F8C42DD
:100278002CBF194643F0010100292FD1304601F067
:1002880095F9B4F5FC7F2DD24FEAD40E40F2F4056F
:10029800C2F2000505EBCE02D368934200F0238238
:1002A8005C6803F10807DA68304624F003049968AB
:1002B8001B195C68CA6044F0010491605C6001F03D
:1002C8007FF9384603B0BDE8F08F002310248C4234
:1002D8002CBF194643F001010029CFD00C23002779
:1002E8003360EEE75FEA542E04BF4FEAD40E4FEABC
:1002F800CE0140F08C8040F2F405C2F20005691886
:10030800CF68B94206D10DE0002A80F28181FF68EA
:10031800B94207D07B6823F003031A1B0F2AF3DDC9
:100328000EF1FF3E0EF1010E40F2F4002F69C2F209
:10033800000000F10802974208BF436826D07B6896
:1003480023F0030CC4EB0C030F2B00F39C81002B50
:100358004261026180F29580BCF5007F80F0738174
:100368004FEADC0C4FF00108436800EBCC014FEA80
:10037800AC0C08FA0CF8F960D1F808C048EA030395
:100388004360C7F808C0CCF80C708F6001274FEAAB
:10039800AE0107FA01F79F427ED83B4206D12EF004
:1003A800030E7F000EF1040E3B42FAD005EBCE0996
:1003B800F046CC46DCF80C00844507D174E1002BEC
:1003C80080F29B81C068844500F06E81416821F00D
:1003D80003010B1B0F2BF2DD07460119D0F80CE0C7
:1003E80044F0010857F8084F43F0010CC0F80480A6
:1003F8003046C1F804C0C4F80CE0CEF80840696182
:100408002961CA608A60CB5001F0DAF859E7BEF179
:10041800040F9EBF4FEA941E0EF1380E4FEACE012C
:100428007FF669AFBEF1140F9CBF0EF15B0E4FEA69
:10043800CE017FF660AFBEF1540F9EBF4FEA143E67
:100448000EF16E0E4FEACE017FF655AFBEF5AA7FCC
:100458009EBF4FEAD43E0EF1770E4FEACE017FF6EB
:100468004AAF40F254539E4595BF4FEA944E4FF41D
:100478007C710EF17C0E4FF07E0E98BF4FEACE01D4
:1004880039E707EB0C03304608375A6842F0010297
:100498005A6001F095F814E7AF6840F2F403C2F22D
:1004A80000037A6822F003084445C4EB080294BFAD
:1004B800002101210F2AD8BF41F00101002900F0D5
:1004C800B58040F2645AD3F80824C2F2000A013217
:1004D800DAF80030234408BF03F1100B06D003F507
:1004E80080530F3323F47E6323F01F0B30465946A5
:1004F80001F014F8421C814600F0318107EB080333
:10050800834200F20681DAF804204B455A44CAF8BF
:10051800042000F03181D5F8080440F2F401C2F259
:1005280000010130304617BFC3EB0903C1F8089436
:10053800D218CAF8042019F007031FBFC3F1080234
:10054800C3F58053914403F1080209EB0B0308BF7C
:100558004FF480521B051B0DC3EB020B594600F0EC
:10056800DDFF431C00F01D81C9EB0001594441F037
:100578000101DAF80420AF4240F26453C5F808904C
:100588005A44C2F20003C9F80410CAF8042019D06A
:10059800B8F10F0F40F2DD80A8F10C01D7F804C0C4
:1005A80021F007014FF0050E78180F290CF0010C07
:1005B80041EA0C0CC7F804C0C0F804E0C0F808E031
:1005C80000F2E68040F26453DAF82C10C2F200031D
:1005D800AF688A42DAF8301088BFDA6240F26453B2
:1005E800C2F200038A4288BF1A637B6823F00303C0
:1005F8009C42C4EB030294BF002301230F2AD8BFF7
:1006080043F0010393B13046002700F0D9FF58E6C4
:10061800FB18FA68B96830465C680837CA6044F065
:10062800010491605C6000F0CBFF4AE63B1942F0A0
:10063800010244F0010430467C6008375A60AB6020
:1006480000F0BEFF3DE64FEA5C23042B5CD9142B77
:1006580078D85B33D800281840F2F408C2F20008B2
:100668008168814203D160E08968884204D04B6880
:1006780023F003039C45F7D3C8686B68F860B9603A
:10068800CF60876082E6391943F00105416144F083
:100698000104016130467C600837CA608A604D6099
:1006A800CB5000F08DFF0CE608F101080CF1080CA6
:1006B80018F0030F7FF47EAE4B461EF0030FA3F134
:1006C80008010EF1FF3E79D01B688B42F5D06B68AC
:1006D8007F009F423FF6E0AE002F3FF4DDAE1F42A1
:1006E80071D0C64662E603F108025B699A4208BF08
:1006F8000EF1020E3FF418AED2E507464318C26861
:10070800304657F8081FD4E54FEA9C133833D80011
:10071800A1E7AF4240F2F402C2F200023FF4F3AEA6
:1007280097687B6823F0030362E74FF00109D8F864
:1007380004C09B10084609FA03F343EA0C03C8F8FF
:1007480004309BE7542B0FD84FEA1C336E33D80084
:1007580081E701234F46C9F80430002348E7AF6812
:100768007B6823F0030343E7B3F5AA7F1DD84FEA5C
:10077800DC337733D8006EE71905090D00297FF4BB
:10078800CAAEAB680BEB080141F00101596019E7EB
:10079800304607F10801019300F00EF9019B5A68F1
:1007A80010E701214FF0000BE3E640F254518B4271
:1007B8000DD84FEA9C437C33D8004CE76B6823EA9A
:1007C80007036B6084E77F0008F1040887E74FF4AC
:1007D8007C707E233FE700BF032AC9B270B407D8F4
:1007E80022B10023C15401339342FBD170BC70473E
:1007F80085070244034603D003F8011B9C07FBD17D
:100808000C02D51A641826043F2D34441ADD1C60E6
:100818005C609C60DC601C615C619C61DC611C62EA
:100828005C629C62DC621C635C639C63DC634033D7
:10083800D51A3F2DEBDC05E01C605C609C60DC6039
:100848001033D51A0F2DF7DC02E043F8044BD51A04
:10085800032DFADC9342C9D203F8011B9342FBD162
:10086800C4E700BF41EA000313F0030F034670B466
:1008780014BF00240124032A94BF002404F00104B7
:100888000D46C4B9AAB10C78013A03F8014B4CB132
:100898001C4672B111F8016F013A04F8016B234646
:1008A800002EF6D12AB19A18002103F8011B9342B1
:1008B800FBD170BC7047294655F8044BA4F10136AA
:1008C80026EA040616F0803FDCD1043A43F8044BCC
:1008D800032AF0D82946D5E70146002002460346F8
:1008E80000F032B938B542F6C85442F6C455C0F6DD
:1008F8000004C0F60005641BA41006D005EB8405AF
:1009080055F8043D9847013CFAD1BDE8384002F05B
:100918004BBA00BFF8B540F2F404C2F200040F4627
:10092800054600F043FEA36828465E6826F00306E5
:1009380006F57E630F33DF1B3F0B013F3F03B7F51F
:10094800805F07DB002100F0E9FDA3689B1998424E
:10095800284603D000F034FE0020F8BD794200F0AC
:10096800DDFD013010D040F26853A168C2F20003E7
:10097800F61B284646F001061A684E60D71B1F6012
:1009880000F01EFE0120F8BD0021284600F0C6FD3B
:10099800A368C21A0F2A0DDD40F2FC4440F26851E8
:1009A800C2F20004C2F2000142F001025A60236858
:1009B800C01A08602846CDE7F8B50D460446002958
:1009C80075D000F0F3FD55F8046C40F2F400A5F181
:1009D8000801C2F2000026F00103CA18D0F808C0C6
:1009E8005768944527F003077ED016F00106576034
:1009F8004DD00026D5196D6815F0010F06D1DB1909
:100A08009568002E64D0D268EA60956043F00102D0
:100A1800CB504A60002E35D1B3F5007F48D39E09EC
:100A28005A0A3836F500042A16D902F15B06F50091
:100A3800142A11D91E0B6E36F500542A0CD9DE0B78
:100A48007736F500B2F5AA7F06D940F25455AA4286
:100A580074D89E0C7C36F500401940F2F405C2F2B9
:100A680000058268824203D15FE09268904204D018
:100A7800556825F00305AB42F7D3D368CB608A608D
:100A8800D16099602046BDE8F84000F099BD55F85E
:100A9800085C00F1080C491B5B198D68654542D05C
:100AA800D1F80CC0C5F80CC0CCF80850A2E7F8BDC6
:100AB800DB080125466800EBC3029B1005FA03F327
:100AC800CA609568334343608D60E9609160D9E7F7
:100AD8001C4FBD4297D1416143F001020161CD60D5
:100AE8008D604A60CB50CDE7F2073B4407D455F8F8
:100AF800082C891A9B188D68CA68EA60956040F2CC
:100B0800005243F00105C2F200024D608160126894
:100B18009342B7D340F264532046C2F200031968E7
:100B2800FFF7F8FEAEE7012664E701276868B6100C
:100B3800134607FA06F6304368609FE74FF47C7562
:100B48007E2689E7FC0000202DE9F04142F63C545E
:100B5800C0F6000484B005462668B46C002C42D068
:100B680060681F281ADD40F24120C0F6000020B955
:100B78004FF0FF3004B0BDE8F0818C200391029261
:100B88000193FFF759FB0399029A019B0446002839
:100B9800EED0B06C002784E88100B464DDB1D4F8ED
:100BA800880020B3D0F8008166680127022D06F17D
:100BB800200C07FA06F740F8262048EA070240F812
:100BC8002C3008BFD0F80431C0F8002104BF1F43FF
:100BD800C0F8047100E06668B31C00200136666046
:100BE80044F82310C6E706F14C04B464B8E740F2B1
:100BF8004120C0F600000028BAD04FF48470039159
:100C080002920193FFF718FB0399029A019B0028AF
:100C1800AED00026C0F80061C0F80461B046C4F840
:100C28008800C1E780B582B000AF786039607B6822
:100C3800DB68002B02D14FF0000325E001F050FAE9
:100C48007B6819687B689B681A468A1811783A6825
:100C5800117003F101027B689A607B689A687B686F
:100C68005B689A4206DB7B689A687B685B68D21A85
:100C78007B689A607B68DB6803F1FF327B68DA6027
:100C880001F044FA4FF00103184607F10807BD4682
:100C980080BD00BF80B584B000AF78600B46FB70A4
:100CA8007B68DA687B685B689A4202DB4FF0000376
:100CB80021E001F015FA7B689A687B68DB68D31835
:100CC800FB607B685A68FB689A4204DC7B685B6857
:100CD800FA68D31AFB607B681A68FB68D318FA783D
:100CE8001A707B68DB6803F101027B68DA6001F047
:100CF8000DFA4FF00103184607F11007BD4680BDF5
:100D080080B582B000AF4FF48053C4F201031B8852
:100D18009BB203F02003002B29D04FF48053C4F278
:100D280001039B889BB2DBB240F20450C2F2000080
:100D38001946FFF7AFFF0346002B0CD140F298632A
:100D4800C2F200031B6803F1010240F29863C2F289
:100D580000031A600BE040F29863C2F200035B687C
:100D680003F1010240F29863C2F200035A604FF4A3
:100D78008053C4F201031B889BB203F08003002B4D
:100D88002CD040F21450C2F2000007F107031946B4
:100D9800FFF748FF0346002B06D04FF48053C4F2F8
:100DA8000103FA799A800DE04FF48053C4F20103ED
:100DB8004FF48052C4F20102928992B222F080026A
:100DC80092B29A8140F29863C2F200039B6803F1E1
:100DD800010240F29863C2F200039A6007F1080723
:100DE800BD4680BD80B582B000AF01F079F94FF4FF
:100DF800A053C4F200035B6A7B6040F2A463C2F2B2
:100E080000031B881A467B689A4203DD7B6803F55A
:100E180080337B6040F2A463C2F200031B887A68C7
:100E2800D11A0A464FEAE27340F2A861C2F2000101
:100E3800D1E90001801841EB030140F2A863C2F236
:100E48000003C3E900017B689AB240F2A463C2F2CE
:100E580000031A8001F05AF940F2A863C2F20003B5
:100E6800D3E900231046194607F10807BD4680BD9F
:100E780080B584B000AF3B46184601F0E5FA4FF460
:100E88006053C4F202034FF46052C4F20202126CBF
:100E980042F020021A644FF4A053C4F20003F96828
:100EA8004DF68362C4F21B32A2FB01024FEA924262
:100EB80092B202F1FF3292B21A854FF4A053C4F2F3
:100EC80000034FF6FF72DA624FF4A053C4F2000336
:100ED8004FF001021A8007F11007BD4680BD00BF20
:100EE80090B585B000AF4FF00103FB604FF00003F1
:100EF8007B814FF001033B8140F6DD74C0F60004AE
:100F08004FF47A704FF47A714FF47A724FF47A731F
:100F1800A04740F6A573C0F600034FF06400984759
:100F280040F6DD74C0F600044FF064004FF0640131
:100F38004FF064024FF06403A04740F6A573C0F673
:100F480000034FF06400984740F6DD74C0F60004D3
:100F58004FF0C8004FF0C8014FF0C8024FF0C80367
:100F6800A04740F6A573C0F600034FF06400984709
:100F780040F6DD74C0F600044FF0FA004FF0FA01B5
:100F88004FF0FA024FF0FA03A04740F6A573C0F6F7
:100F980000034FF064009847D6E700BF80B485B0DF
:100FA80000AF78600EE04DF60453FB6003E0FB6889
:100FB80003F1FF33FB60FB68002BF8D17B6803F17A
:100FC800FF337B607B68002BEDD107F11407BD462A
:100FD80080BC704780B483B000AFF880B9807A8055
:100FE8003B80FB88B3F57A7F03D94FF47A73FB8093
:100FF80005E0FB88632B02D84FF06403FB80BB88B5
:10100800B3F57A7F03D94FF47A73BB8005E0BB88C8
:10101800632B02D84FF06403BB807B88B3F57A7FDB
:1010280003D94FF47A737B8005E07B88632B02D861
:101038004FF064037B803B88B3F57A7F03D94FF484
:101048007A733B8005E03B88632B02D84FF064033A
:101058003B804FF40063C4F20003FA885A634FF4EC
:101068000063C4F20003BA889A634FF40063C4F2C1
:1010780000037A88DA634FF40063C4F200033A8805
:101088001A6407F10C07BD4680BC704780B500AFF5
:101098004FF008004FF0010101F0BCFA4FF00400D6
:1010A8004FF0010101F0E0FA80BD00BF80B582B0C9
:1010B80000AF3B46184601F055F94FF44060C4F2C2
:1010C80002004FF00C014FF0020201F069F94FF4F1
:1010D8004060C4F202004FF00D014FF0020201F02F
:1010E8005FF94FF44060C4F202004FF00E014FF078
:1010F800020201F055F94FF44060C4F202004FF0CB
:101108000F014FF0020201F04BF94FF470433B60BE
:101118004FF002033B714FF00003BB714FF0030324
:101128007B714FF00003FB714FF44060C4F2020082
:101138003B46194601F074F807F10807BD4680BD23
:1011480080B588B000AF07F11403184601F030FBF2
:101158004FF40073BB8340F61F53BB6140F2F31397
:10116800BB824FF00003FB824FF40060C4F2000022
:1011780007F11403194601F0A1FA3B46184601F09D
:1011880067FD4FF001037B804FF060033B804FF019
:101198000003BB604FF40060C4F200003B461946F0
:1011A80001F044FB4FF40060C4F200003B461946CE
:1011B80001F0BAFB4FF40060C4F200003B46194648
:1011C80001F046FC4FF40060C4F200003B461946AB
:1011D80001F0CEFC4FF40060C4F200004FF00101B2
:1011E80001F004FB07F12007BD4680BD80B584B03F
:1011F80004AFFFF74BFFFFF7A3FFFFF757FF40F6DA
:10120800E963C0F600034FF0010200924FF00002BC
:1012180001924FF0000202924FF00002039218462A
:1012280042F6C441C0F600014FF080024FF00003BF
:1012380000F0D0F900F0A4FA4FF000031846BD46BC
:1012480080BD00BF002100F004B8104B5B5843502C
:1012580004310F480F4B42189A42FFF4F6AF0E4A7A
:1012680000F003B8002342F8043B0C4B9A42FFF409
:10127800F9AF0B48016841F47001016000F014F8FF
:10128800FEF7B2FFFFF7B2FF70470000C82D000855
:10129800000000204405002048050020BC0700206D
:1012A80088ED00E0FFF7FEBF80B500AF4FF4605354
:1012B800C4F202034FF46052C4F20202126842F010
:1012C80001021A604FF46053C4F202034FF00002A7
:1012D8009A604FF46053C4F202034FF46052C4F2B0
:1012E8000202126822F0847222F480321A604FF4EB
:1012F8006053C4F2020343F21002C2F200425A6081
:101308004FF46053C4F202034FF46052C4F2020275
:10131800126822F480221A604FF46053C4F2020368
:101328004FF00002DA6000F009F84FF46D43CEF296
:1013380000034FF000629A6080BD00BF80B483B0A4
:1013480000AF4FF000037B604FF000033B604FF4A9
:101358006053C4F202034FF46052C4F202021268EE
:1013680042F480321A604FF46053C4F202031B68DF
:1013780003F400333B607B6803F101037B603B6847
:10138800002B03D17B68B3F5A06FECD14FF4605309
:10139800C4F202031B6803F40033002B03D04FF0A0
:1013A80001033B6002E04FF000033B603B68012B08
:1013B80040F082804FF46053C4F202034FF460524D
:1013C800C4F20202126C42F080521A644FF4E043F5
:1013D800C4F200034FF4E042C4F20002126842F47F
:1013E80080421A604FF46053C4F202034FF4605213
:1013F800C4F2020292689A604FF46053C4F2020386
:101408004FF46052C4F20202926842F400429A60B9
:101418004FF46053C4F202034FF46052C4F2020264
:10142800926842F4A0529A604FF46053C4F20203E7
:1014380045F20842C0F240725A604FF46053C4F259
:1014480002034FF46052C4F20202126842F0807242
:101458001A6000BF4FF46053C4F202031B6803F024
:101468000073002BF6D04FF47053C4F2020340F21D
:1014780005621A604FF46053C4F202034FF46052DD
:10148800C4F20202926822F003029A604FF4605399
:10149800C4F202034FF46052C4F20202926842F0AE
:1014A80002029A6000BF4FF46053C4F202039B68C3
:1014B80003F00C03082BF6D14FF46053C4F2020377
:1014C8004FF46052C4F20202926822F400029A6059
:1014D8004FF46053C4F202034FF44052C5F20002C5
:1014E800C3F884204FF46053C4F202034FF46052EF
:1014F800C4F20202126842F080621A6000BF4FF420
:101508006053C4F202031B6803F00063002BF6D09B
:1015180007F10C07BD4680BC704700BF90B484B08B
:1015280000AF7860396040F2B873C2F200031B68FC
:10153800002B08D140F2B873C2F2000340F2BC722B
:10154800C2F200021A6040F2B873C2F200031A68CD
:101558003B68D218EFF308842346194640F2285313
:10156800C2F200031B68CB1A9A4206D97B684FF077
:101578000C021A604FF0FF3312E040F2B873C2F267
:1015880000031B68FB6040F2B873C2F200031A68DC
:101598003B68D21840F2B873C2F200031A60FB68C5
:1015A800184607F11007BD4690BC704780B582B059
:1015B80000AF786000F094FD07F10807BD4680BDD4
:1015C80080B582B000AF786000F0A0FD07F1080791
:1015D800BD4680BD80B58AB002AFF860B9603B6097
:1015E8001346FB80FB881846396B00F01BFCB8617A
:1015F800BB69002B00F0A580BB691A6BFB8803F15F
:10160800FF334FEA8303D3187B617B6923F0070319
:101618007B61FB880093B869B968BA6A7B6B00F094
:101628001FFB7869F9683A6800F0C6FC0246BB6996
:101638001A60FB6A002B02D0FB6ABA691A6000F0D4
:101648004FFD40F28C73C2F200031B6803F10102E4
:1016580040F28C73C2F200031A6040F2B063C2F227
:1016680000031B68002B0FD140F2B063C2F20003E5
:10167800BA691A6040F28C73C2F200031B68012B2E
:1016880018D100F031FB15E040F29C73C2F2000360
:101698001B68002B0ED140F2B063C2F200031B6836
:1016A800DA6ABB6A9A4205D840F2B063C2F2000314
:1016B800BA691A60BB69DA6A40F29473C2F200032D
:1016C8001B689A4206D9BB69DA6A40F29473C2F27F
:1016D80000031A6040F2B073C2F200031B6803F102
:1016E800010240F2B073C2F200031A60BB69DA6A01
:1016F80040F29873C2F200031B689A4206D9BB698C
:10170800DA6A40F29873C2F200031A60BB69DA6AB7
:1017180013464FEA83039B184FEA83031A4640F2A5
:10172800B463C2F20003D218BB6903F10403104684
:10173800194600F0EFFB4FF00103FB6100F0E6FCF7
:1017480002E04FF0FF33FB61FB69012B11D140F23E
:101758009C73C2F200031B68002B0AD040F2B063EE
:10176800C2F200031B68DA6ABB6A9A4201D200F02F
:10177800ABFCFB69184607F12007BD4680BD00BFDA
:1017880080B586B004AF4FF00003009340F2887331
:10179800C2F2000301934FF0000302934FF00003DD
:1017A800039341F64540C0F6000042F6C841C0F632
:1017B80000014FF480724FF00003FFF70BFF7860D1
:1017C8007B68012B15D14FF0BF0080F3118840F2E0
:1017D8009C73C2F200034FF001021A6040F290734A
:1017E800C2F200034FF000021A60FFF741FB00F05D
:1017F80033FC07F10807BD4680BD00BF80B400AFC9
:1018080040F2A073C2F200031B6803F1010240F228
:10181800A073C2F200031A60BD4680BC704700BFC7
:1018280090B583B000AF4FF000037B6000F058FC28
:1018380040F2A073C2F200031B6803F1FF3240F2CA
:10184800A073C2F200031A6040F2A073C2F2000350
:101858001B68002B40F0858040F28C73C2F20003B5
:101868001B68002B7DD04FF000033B603CE040F24A
:101878004873C2F20003DB68DC6804F118031846F9
:1018880000F070FB04F10403184600F06BFBE26AF9
:1018980040F29873C2F200031B689A4205D9E26AC3
:1018A80040F29873C2F200031A60E26A13464FEAE4
:1018B80083039B184FEA83031A4640F2B463C2F2CB
:1018C8000003D21804F104031046194600F022FB65
:1018D800E26A40F2B063C2F200031B68DB6A9A4214
:1018E80002D34FF001033B6040F24873C2F2000399
:1018F8001B68002BBBD140F2A473C2F200031B6823
:10190800002B18D00DE000F035F840F2A473C2F2B5
:1019180000031B6803F1FF3240F2A473C2F2000314
:101928001A6040F2A473C2F200031B68002BEAD1CC
:101938004FF001033B603B68012B06D040F2A873CF
:10194800C2F200031B68012B0BD14FF001037B602F
:1019580040F2A873C2F200034FF000021A6000F0D0
:10196800B3FB00F0D3FB7B68184607F10C07BD46B4
:1019780090BD00BF80B584B000AF40F2A073C2F242
:1019880000031B68002B40F0C08040F29073C2F245
:1019980000031B6803F1010240F29073C2F20003D6
:1019A8001A6040F29073C2F200031B68002B40D10A
:1019B80040F24073C2F200031B68FB6040F24473BC
:1019C800C2F200031A6840F24073C2F200031A60C0
:1019D80040F24473C2F20003FA681A6040F2AC7332
:1019E800C2F200031B6803F1010240F2AC73C2F2B9
:1019F80000031A6040F24073C2F200031B681B68C0
:101A0800002B07D140F22C53C2F200034FF0FF32F3
:101A18001A600EE040F24073C2F200031B68DB68F4
:101A2800DB68BB60BB685A6840F22C53C2F2000303
:101A38001A6040F29073C2F200031A6840F22C5305
:101A4800C2F200031B689A426BD340F24073C2F2A1
:101A580000031B681B68002B07D140F22C53C2F20D
:101A680000034FF0FF321A605BE040F24073C2F2AD
:101A780000031B68DB68DB68BB60BB685B687B6076
:101A880040F29073C2F200031A687B689A4206D249
:101A980040F22C53C2F200037A681A6041E0BB6836
:101AA80003F10403184600F05DFABB689B6A002B3B
:101AB80005D0BB6803F11803184600F053FABB6859
:101AC800DA6A40F29873C2F200031B689A4206D998
:101AD800BB68DA6A40F29873C2F200031A60BB6806
:101AE800DA6A13464FEA83039B184FEA83031A46C0
:101AF80040F2B463C2F20003D218BB6803F10403D6
:101B08001046194600F006FA9FE740F2A473C2F2A5
:101B180000031B6803F1010240F2A473C2F2000340
:101B28001A6007F11007BD4680BD00BF80B582B0BE
:101B380000AF40F2A073C2F200031B68002B07D06D
:101B480040F2A873C2F200034FF001021A6071E07C
:101B5800FFF748F902460B4613467B6040F2B06334
:101B6800C2F200031A68D16C40F2B473C2F20003E7
:101B78001B687868C31ACB18D36440F2B473C2F2F6
:101B880000037A681A600BE040F29873C2F200030F
:101B98001B6803F1FF3240F29873C2F200031A6027
:101BA80040F29873C2F200031A6813464FEA83039F
:101BB8009B184FEA83031A4640F2B463C2F200034B
:101BC800D3181B68002BDFD040F29873C2F20003D1
:101BD8001A6813464FEA83039B184FEA83031A4691
:101BE80040F2B463C2F20003D3183B603B685B6801
:101BF8005A683B685A603B685A683B6803F10803B7
:101C08009A4204D13B685B685A683B685A603B68F3
:101C18005B68DA6840F2B063C2F200031A604FF4FE
:101C2800E843C4F2000340F2B062C2F20002126854
:101C3800926CDA6007F10807BD4680BD80B582B0B6
:101C480000AF786000E000BF00F0A0F840F2B46395
:101C5800C2F200031B68012BF5D900F035FAF2E750
:101C680080B584B000AFF860B9607A603B60FB680B
:101C780003F134031846B9684FF01002FEF7F2FD7D
:101C8800FB684FF0000283F843207B68042B02D9DD
:101C98004FF004037B60FB687A68DA62FB687A6855
:101CA8005A64FB6803F10403184600F025F9FB6841
:101CB80003F11803184600F01FF9FB68FA681A6167
:101CC8007B68C3F10502FB689A61FB68FA685A628F
:101CD800FB684FF000029A64FB684FF00002DA6478
:101CE80007F11007BD4680BD80B582B000AF4FF048
:101CF80000037B6013E07A6813464FEA83039B185E
:101D08004FEA83031A4640F2B463C2F20003D318C1
:101D1800184600F0D1F87B6803F101037B607B680B
:101D2800042BE8D940F21870C2F2000000F0C4F8A1
:101D380040F22C70C2F2000000F0BEF840F2487089
:101D4800C2F2000000F0B8F840F25C70C2F2000085
:101D580000F0B2F840F27470C2F2000000F0ACF883
:101D680040F24073C2F2000340F21872C2F200025D
:101D78001A6040F24473C2F2000340F22C72C2F2BD
:101D880000021A6007F10807BD4680BD80B582B021
:101D980000AF40F27073C2F200031B68002B3CD006
:101DA800FFF72CFD40F25C73C2F200031B68002BA6
:101DB80014BF002301237B60FFF732FD7B68002BF3
:101DC8002BD100F08DF940F25C73C2F20003DB689E
:101DD800DB683B603B6803F10403184600F0C2F877
:101DE80040F28C73C2F200031B6803F1FF3240F229
:101DF8008C73C2F200031A6040F27073C2F20003DF
:101E08001B6803F1FF3240F27073C2F200031A60DC
:101E180000F07CF9386800F03FF807F10807BD4684
:101E280080BD00BF80B584B000AF03463960FB8039
:101E38004FF05000FEF700FA0346FB60FB68002BEA
:101E480023D03B68002B07D1FB884FEA8303184651
:101E5800FEF7F2F9034600E03B68FA681363FB6893
:101E68001B6B002B06D1F868FEF7EEF94FF0000364
:101E7800FB600AE0FB681A6BFB884FEA8303104695
:101E88004FF0A5011A46FEF7A7FCFB68184607F1B4
:101E98001007BD4680BD00BF80B582B000AF786036
:101EA8007B681B6B1846FEF7CFF97868FEF7CCF90C
:101EB80007F10807BD4680BD80B483B000AF7860E5
:101EC8007B6803F108027B685A607B684FF0FF3239
:101ED8009A607B6803F108027B68DA607B6803F12B
:101EE80008027B681A617B684FF000021A6007F1EC
:101EF8000C07BD4680BC704780B483B000AF7860E3
:101F08007B684FF000021A6107F10C07BD4680BCE0
:101F1800704700BF80B485B000AF786039607B68D7
:101F28005B68FB60FB685A683B685A607B685A6864
:101F38003B689A60FB685B683A689A60FB683A6835
:101F48005A607B683A685A603B687A681A617B68AD
:101F58001B6803F101027B681A6007F11407BD468C
:101F680080BC704780B485B000AF78607B685B68E0
:101F78007A6892689A607B689B687A6852685A6047
:101F88007B681B69FB60FB685A687B689A4203D1CF
:101F98007B689A68FB685A607B684FF000021A6198
:101FA800FB681B6803F1FF32FB681A6007F114072E
:101FB800BD4680BC704700BF80B485B000AFF860F4
:101FC800B9607A60FB68A3F10403FB60FB684FF01B
:101FD80080721A60FB68A3F10403FB60BA68FB68AF
:101FE8001A60FB68A3F10403FB60FB684FF0000272
:101FF8001A60FB68A3F11403FB607A68FB681A6037
:10200800FB68A3F10403FB60FB686FF002021A602F
:10201800FB68A3F12003FB60FB68184607F114076F
:10202800BD4680BC704700BF054B19680868B0E81A
:10203800F04F80F309884FF0000080F31188704753
:10204800B006002003480068006880F3088862B67C
:1020580000DF00BF08ED00E080B500AF4EF620536A
:10206800CEF200034EF62052CEF20002126842F47D
:102078007F021A604EF62053CEF200034EF620522D
:10208800CEF20002126842F07F421A6000F09EF819
:1020980040F23053C2F200034FF000021A6000F021
:1020A800B5F84EF63473CEF200034EF63472CEF223
:1020B8000002126842F040421A60FFF7C3FF4FF077
:1020C8000003184680BD00BF80B400AF4EF604532D
:1020D800CEF200034FF080521A60BD4680BC7047B4
:1020E80080B400AF4FF0BF0080F3118840F2305346
:1020F800C2F200031B6803F1010240F23053C2F23E
:1021080000031A60BD4680BC704700BF80B400AFB2
:1021180040F23053C2F200031B6803F1FF3240F271
:102128003053C2F200031A6040F23053C2F2000387
:102138001B68002B03D14FF0000080F31188BD46C7
:1021480080BC7047EFF30980114B1A681EF0100F1E
:1021580008BF20ED108A20E9F04F10602DE90840F3
:102168004FF0BF0080F31188FFF7E0FC4FF000004C
:1021780080F31188BDE8084019680868B0E8F04F96
:102188001EF0100F08BFB0EC108A80F30988704762
:10219800B006002080B582B000AF4EF60453CEF2F0
:1021A80000034FF080521A604FF000037B604FF03D
:1021B800BF0080F31188FFF7DDFB4FF0000080F3CC
:1021C800118807F10807BD4680BD00BF80B400AF85
:1021D8004EF21403CEF2000340F22452C2F200027F
:1021E800116844F6D352C1F26202A2FB01024FEA1F
:1021F800921202F1FF321A604EF21003CEF200037F
:102208004FF007021A60BD4680BC7047DFF80C002B
:10221800016841F4700101607047000088ED00E03A
:1022280080B487B000AF786039604FF000037B61FD
:102238004FF000033B614FF00003FB604FF00003D9
:102248007B6186E07B694FF0010202FA03F33B6190
:102258003B681A683B691340FB60FA683B699A421D
:1022680073D17B681A687B694FEA43034FF0030117
:1022780001FA03F36FEA03031A407B681A607B686C
:102288001A683B681B7919467B694FEA430301FAD0
:1022980003F31A437B681A603B681B79012B03D050
:1022A8003B681B79022B34D17B689A687B694FEABB
:1022B80043034FF0030101FA03F36FEA03031A40E3
:1022C8007B689A607B689A683B685B7919467B698A
:1022D8004FEA430301FA03F31A437B689A607B6869
:1022E8005A687B699BB24FF0010101FA03F36FEA68
:1022F80003031A407B685A607B685A683B689B797D
:1023080019467B699BB201FA03F39BB21A437B68B7
:102318005A607B68DA687B699BB24FEA43034FF0E7
:10232800030101FA03F36FEA03031A407B68DA60DA
:102338007B68DA683B68DB7919467B694FEA4303B7
:1023480001FA03F31A437B68DA607B6903F101033E
:102358007B617B690F2B7FF675AF07F11C07BD46C4
:1023680080BC704780B483B000AF78607B684FF65C
:10237800FF721A607B684FF000021A717B684FF099
:1023880000025A717B684FF000029A717B684FF027
:102398000002DA7107F10C07BD4680BC704700BF28
:1023A80080B485B000AF786013460A467A807B70A7
:1023B8004FF00003FB604FF00003BB607A787B8826
:1023C80003F007034FEA830302FA03F3FB607B88F9
:1023D8004FEAD3039BB21A467B884FEAD3039BB2DA
:1023E80019467B6801F1080153F821107B8803F036
:1023F80007034FEA83034FF00F0000FA03F36FEA75
:10240800030319407B6802F1080243F822107B8815
:102418004FEAD3039BB21A467B6802F1080253F8CD
:102428002220FB681343BB607B884FEAD3039BB22F
:102438001A467B6802F10802B96843F8221007F1CE
:102448001407BD4680BC704780B489B000AF78607F
:102458004FF00003BB614FF000037B614FF00003B6
:10246800FB614FF002033B614FF00003FB604FF04C
:102478000203BB604FF46053C4F202039B6803F08D
:102488000C03BB61BB69042B0AD0082B0FD0002BAF
:1024980060D17A684FF41053C0F2F403136060E01F
:1024A8007A684FF49053C0F27A03136059E04FF4FE
:1024B8006053C4F202035B6803F480034FEA93534A
:1024C800FB604FF46053C4F202035B6803F03F0300
:1024D800BB60FB68002B14D04FF49053C0F27A0312
:1024E800BA68B3FBF2F24FF46053C4F202035968BE
:1024F80047F6C0730B404FEA931303FB02F3FB61EB
:1025080013E04FF41053C0F2F403BA68B3FBF2F2CD
:102518004FF46053C4F20203596847F6C0730B4086
:102528004FEA931303FB02F3FB614FF46053C4F2C9
:1025380002035B6803F440334FEA134303F10103DA
:102548004FEA43033B61FA693B69B2FBF3F27B68EC
:102558001A6006E07A684FF41053C0F2F40313606F
:1025680000BF4FF46053C4F202039B6803F0F0030A
:10257800BB61BB694FEA1313BB6140F23453C2F22B
:102588000003BA699B181B78DBB27B617B681A6809
:102598007B6922FA03F27B685A604FF46053C4F2F5
:1025A80002039B6803F4E053BB61BB694FEA9323C2
:1025B800BB6140F23453C2F20003BA699B181B781E
:1025C800DBB27B617B685A687B6922FA03F27B681D
:1025D8009A604FF46053C4F202039B6803F46043AB
:1025E800BB61BB694FEA5333BB6140F23453C2F25B
:1025F8000003BA699B181B78DBB27B617B685A6859
:102608007B6922FA03F27B68DA6007F12407BD468A
:1026180080BC704780B483B000AF78600B46FB7015
:10262800FB78002B0CD04FF46053C4F202034FF434
:102638006052C4F20202116B7A680A431A630DE011
:102648004FF46053C4F202034FF46052C4F2020222
:10265800116B7A686FEA02020A401A6307F10C07E5
:10266800BD4680BC704700BF80B483B000AF7860BF
:102678000B46FB70FB78002B0CD04FF46053C4F270
:1026880002034FF46052C4F20202116C7A680A43E2
:102698001A640DE04FF46053C4F202034FF4605221
:1026A800C4F20202116C7A686FEA02020A401A64E4
:1026B80007F10C07BD4680BC704700BF80B485B0E9
:1026C80000AF786039604FF00003FB817B681B889E
:1026D800FB817A684FF00003C4F201039A421FD0CD
:1026E8007A684FF48063C4F201039A4218D07B6879
:1026F800B3F1804F14D07A684FF48063C4F20003BA
:102708009A420DD07A684FF40063C4F200039A42EB
:1027180006D07A684FF44063C4F200039A4208D1A5
:10272800FB8923F07003FB813B685A88FB891343BC
:10273800FB817A684FF48053C4F200039A420FD0A9
:102748007A684FF4A053C4F200039A4208D0FB8978
:1027580023F44073FB813B681A89FB891343FB818F
:102768007B68FA891A803B685A687B68DA623B683A
:102778001A887B681A857A684FF00003C4F201034F
:102788009A4206D07A684FF48063C4F201039A42F1
:1027980004D13B689B7A1A467B681A867B684FF09F
:1027A80001029A8207F11407BD4680BC704700BF3A
:1027B80080B483B000AF78607B684FF0FF325A6016
:1027C8007B684FF000021A807B684FF000021A8184
:1027D8007B684FF000025A807B684FF000029A72C3
:1027E80007F10C07BD4680BC704700BF80B483B0BA
:1027F80000AF78600B46FB70FB78002B08D07B6835
:102808001B889BB243F001039AB27B681A8007E0E9
:102818007B681B889BB223F001039AB27B681A80FD
:1028280007F10C07BD4680BC704700BF80B485B077
:1028380000AF786039604FF000037B814FF00003F0
:10284800FB814FF00003BB817B681B8C9BB223F09C
:1028580001039AB27B681A847B681B8CFB817B68B6
:102868009B88BB817B681B8B7B817B8923F07003F2
:102878007B817B8923F003037B813B681A887B89F2
:1028880013437B81FB8923F00203FB813B689A8910
:10289800FB891343FB813B685A88FB891343FB81FF
:1028A8007A684FF00003C4F201039A4206D07A68AE
:1028B8004FF48063C4F201039A4223D1FB8923F0C9
:1028C8000803FB813B68DA89FB891343FB81FB8999
:1028D80023F00403FB813B689A88FB891343FB813F
:1028E800BB8923F48073BB81BB8923F40073BB814C
:1028F8003B681A8ABB891343BB813B685A8ABB89E8
:102908001343BB817B68BA899A807B687A891A836A
:102918003B689A687B685A637B68FA891A8407F16E
:102928001407BD4680BC704780B485B000AF78609E
:1029380039604FF000037B814FF00003FB814FF0BB
:102948000003BB817B681B8C9BB223F010039AB2F7
:102958007B681A847B681B8CFB817B689B88BB81A6
:102968007B681B8B7B817B8923F4E0437B817B899C
:1029780023F440737B813B681B884FEA03239AB298
:102988007B8913437B81FB8923F02003FB813B6810
:102998009B894FEA03139AB2FB891343FB813B6877
:1029A8005B884FEA03139AB2FB891343FB817A6869
:1029B8004FF00003C4F201039A4206D07A684FF43C
:1029C8008063C4F201039A422FD1FB8923F080036C
:1029D800FB813B68DB894FEA03139AB2FB891343F7
:1029E800FB81FB8923F04003FB813B689B884FEA0E
:1029F80003139AB2FB891343FB81BB8923F48063D9
:102A0800BB81BB8923F40063BB813B681B8A4FEA07
:102A180083039AB2BB891343BB813B685B8A4FEA45
:102A280083039AB2BB891343BB817B68BA899A80B6
:102A38007B687A891A833B689A687B689A637B68A3
:102A4800FA891A8407F11407BD4680BC704700BF95
:102A580080B485B000AF786039604FF000037B81A7
:102A68004FF00003FB814FF00003BB817B681B8C98
:102A78009BB223F480739AB27B681A847B681B8CA0
:102A8800FB817B689B88BB817B689B8B7B817B8977
:102A980023F070037B817B8923F003037B813B68F0
:102AA8001A887B8913437B81FB8923F40073FB819C
:102AB8003B689B894FEA03239AB2FB891343FB8146
:102AC8003B685B884FEA03239AB2FB891343FB8177
:102AD8007A684FF00003C4F201039A4206D07A687C
:102AE8004FF48063C4F201039A422FD1FB8923F487
:102AF8000063FB813B68DB894FEA03239AB2FB89B9
:102B08001343FB81FB8923F48063FB813B689B882B
:102B18004FEA03239AB2FB891343FB81BB8923F451
:102B28008053BB81BB8923F40053BB813B681B8A5C
:102B38004FEA03139AB2BB891343BB813B685B8A94
:102B48004FEA03139AB2BB891343BB817B68BA89E6
:102B58009A807B687A899A833B689A687B68DA638B
:102B68007B68FA891A8407F11407BD4680BC704750
:102B780080B485B000AF786039604FF00003BB8146
:102B88004FF000037B814FF00003FB817B681B8CB7
:102B98009BB223F480539AB27B681A847B681B8C9F
:102BA8007B817B689B88FB817B689B8BBB81BB8916
:102BB80023F4E043BB81BB8923F44073BB813B68AA
:102BC8001B884FEA03239AB2BB891343BB817B89D5
:102BD80023F400537B813B689B894FEA03339AB205
:102BE8007B8913437B813B685B884FEA03339AB246
:102BF8007B8913437B817A684FF00003C4F2010399
:102C08009A4206D07A684FF48063C4F201039A426C
:102C18000BD1FB8923F48043FB813B681B8A4FEA75
:102C280083139AB2FB891343FB817B68FA899A80E4
:102C38007B68BA899A833B689A687B681A647B6860
:102C48007A891A8407F11407BD4680BC704700BF13
:102C580080B483B000AF78607B684FF000021A80C0
:102C68007B684FF000025A807B684FF000029A8020
:102C78007B684FF000029A607B684FF000029A81EF
:102C88007B684FF00002DA817B684FF000021A82FD
:102C98007B684FF000025A8207F10C07BD4680BCE2
:102CA800704700BF40F20003C0F200032BB140F6AA
:102CB800ED00C0F60000FDF70FBE704770776D009D
:102CC80049444C45000000000D0A000025752020ED
:102CD80025632020252D3136732020202020202018
:102CE8002020203020202030252520202535750D56
:102CF8000A0000002575202025632020252D313667
:102D0800732025313075202533752525202025355C
:102D1800750D0A002575202025632020252D3136C4
:102D280073202531307520203C312525202025357C
:102D3800750D0A00040000200000000000000000DB
:102D4800000000000000000000000000000000007B
:102D5800000000000000000000000000000000006B
:102D6800000000000000000000000000000000005B
:102D7800000000000000000000000000000000004B
:102D8800000000000000000000000000000000003B
:102D9800000000000000000043000000F8B500BF7C
:102DA800F8BC08BC9E467047F8B500BFF8BC08BC24
:042DB8009E4670477C
:082DBC00AD2C0008B501000870
:042DC4008901000879
:102DC8000400002000000000802D0008602D00088D
:102DD800402D000800000000000000000000000076
:102DE80000000000A02D0008000000000000000006
:102DF80000000000000000000000000000000000CB
:102E080000000000000000000000000000000000BA
:102E180000000000000000000000000000000000AA
:102E2800000000000000000000000000000000009A
:102E3800000000000000000000000000000000008A
:102E4800000000000000000000000000000000007A
:102E5800000000000000000000000000000000006A
:102E6800000000000000000000000000000000005A
:102E7800000000000000000000000000000000004A
:102E8800000000000000000000000000000000003A
:102E9800000000000000000000000000000000002A
:102EA800000000000000000000000000000000001A
:102EB800000000000000000000000000F4000020F6
:102EC800F4000020FC000020FC0000200401002089
:102ED800040100200C0100200C0100201401002036
:102EE800140100201C0100201C01002024010020E6
:102EF800240100202C0100202C0100203401002096
:102F0800340100203C0100203C0100204401002045
:102F1800440100204C0100204C01002054010020F5
:102F2800540100205C0100205C01002064010020A5
:102F3800640100206C0100206C0100207401002055
:102F4800740100207C0100207C0100208401002005
:102F5800840100208C0100208C01002094010020B5
:102F6800940100209C0100209C010020A401002065
:102F7800A4010020AC010020AC010020B401002015
:102F8800B4010020BC010020BC010020C4010020C5
:102F9800C4010020CC010020CC010020D401002075
:102FA800D4010020DC010020DC010020E401002025
:102FB800E4010020EC010020EC010020F4010020D5
:102FC800F4010020FC010020FC0100200402002084
:102FD800040200200C0200200C0200201402002031
:102FE800140200201C0200201C02002024020020E1
:102FF800240200202C0200202C0200203402002091
:10300800340200203C0200203C0200204402002040
:10301800440200204C0200204C02002054020020F0
:10302800540200205C0200205C02002064020020A0
:10303800640200206C0200206C0200207402002050
:10304800740200207C0200207C0200208402002000
:10305800840200208C0200208C02002094020020B0
:10306800940200209C0200209C020020A402002060
:10307800A4020020AC020020AC020020B402002010
:10308800B4020020BC020020BC020020C4020020C0
:10309800C4020020CC020020CC020020D402002070
:1030A800D4020020DC020020DC020020E402002020
:1030B800E4020020EC020020EC020020F4020020D0
:1030C800F4020020FC020020FC020020040300207F
:1030D800040300200C0300200C030020140300202C
:1030E800140300201C0300201C03002024030020DC
:1030F800240300202C0300202C030020340300208C
:10310800340300203C0300203C030020440300203B
:10311800440300204C0300204C03002054030020EB
:10312800540300205C0300205C030020640300209B
:10313800640300206C0300206C030020740300204B
:10314800740300207C0300207C03002084030020FB
:10315800840300208C0300208C03002094030020AB
:10316800940300209C0300209C030020A40300205B
:10317800A4030020AC030020AC030020B40300200B
:10318800B4030020BC030020BC030020C4030020BB
:10319800C4030020CC030020CC030020D40300206B
:1031A800D4030020DC030020DC030020E40300201B
:1031B800E4030020EC030020EC030020F4030020CB
:1031C800F4030020FC030020FC030020040400207A
:1031D800040400200C0400200C0400201404002027
:1031E800140400201C0400201C04002024040020D7
:1031F800240400202C0400202C0400203404002087
:10320800340400203C0400203C0400204404002036
:10321800440400204C0400204C04002054040020E6
:10322800540400205C0400205C0400206404002096
:10323800640400206C0400206C0400207404002046
:10324800740400207C0400207C04002084040020F6
:10325800840400208C0400208C04002094040020A6
:10326800940400209C0400209C040020A404002056
:10327800A4040020AC040020AC040020B404002006
:10328800B4040020BC040020BC040020C4040020B6
:10329800C4040020CC040020CC040020D404002066
:1032A800D4040020DC040020DC040020E404002016
:1032B800E4040020EC040020EC040020FFFFFFFFE2
:1032C80000000200980500208000000000000000B7
:1032D8000000000018060020800000000000000028
:1032E80000000000007A030A00010000FFFFFFFF52
:1032F800AAAAAAAA0000000001020304010203040A
:0433080006070809A3
:040000050800124D90
:00000001FF
