:020000040800F2
:1000000000000220B9120008191300081913000893
:100010001913000819130008191300080000000044
:10002000000000000000000000000000053400088F
:100030001913000800000000213500087135000880
:1000400019130008191300081913000819130008E0
:1000500019130008191300081913000819130008D0
:1000600019130008191300081913000819130008C0
:1000700019130008191300081913000819130008B0
:1000800019130008191300081913000819130008A0
:100090001913000819130008191300081913000890
:1000A0001913000819130008191300081913000880
:1000B0001913000819130008191300081913000870
:1000C0001913000819130008191300081913000860
:1000D00019130008F90D0008191300081913000876
:1000E0001913000819130008191300081913000840
:1000F0001913000819130008191300081913000830
:10010000191300081913000819130008191300081F
:10011000191300081913000819130008191300080F
:1001200019130008191300081913000819130008FF
:1001300019130008191300081913000819130008EF
:1001400019130008191300081913000819130008DF
:1001500019130008191300081913000819130008CF
:1001600019130008191300081913000819130008BF
:1001700019130008191300081913000819130008AF
:0801800019130008191300080F
:1001880010B540F26054C2F20004237863B940F21B
:100198000000C0F2000028B144F63800C0F60000A4
:1001A800AFF300800121217010BD00BF08B540F2F7
:1001B8000003C0F200034BB144F6380040F264512A
:1001C800C0F60000C2F20001AFF3008040F25C50BC
:1001D800C2F20000016829B140F20003C0F2000336
:1001E80003B1984708BD00BF70B544F6500644F601
:1001F8005005C0F60006C0F60005761BB61006D0FE
:10020800002455F8043B01349847A642F9D144F636
:10021800580644F65005C0F60006C0F60005761BE1
:1002280004F006FBB61006D0002455F8043B013450
:100238009847A642F9D170BD40F200030146C2F2C8
:100248000003186800F008B840F200030146C2F243
:100258000003186800F028BC2DE9F04F01F10B04E9
:10026800162C83B0064630D924F00704E30F8C42DD
:100278002CBF194643F0010100292FD1304601F067
:10028800CBF9B4F5FC7F2DD24FEAD40E40F2F40539
:10029800C2F2000505EBCE02D368934200F0238238
:1002A8005C6803F10807DA68304624F003049968AB
:1002B8001B195C68CA6044F0010491605C6001F03D
:1002C800B5F9384603B0BDE8F08F002310248C42FE
:1002D8002CBF194643F001010029CFD00C23002779
:1002E8003360EEE75FEA542E04BF4FEAD40E4FEABC
:1002F800CE0140F08C8040F2F405C2F20005691886
:10030800CF68B94206D10DE0002A80F28181FF68EA
:10031800B94207D07B6823F003031A1B0F2AF3DDC9
:100328000EF1FF3E0EF1010E40F2F4002F69C2F209
:10033800000000F10802974208BF436826D07B6896
:1003480023F0030CC4EB0C030F2B00F39C81002B50
:100358004261026180F29580BCF5007F80F0738174
:100368004FEADC0C4FF00108436800EBCC014FEA80
:10037800AC0C08FA0CF8F960D1F808C048EA030395
:100388004360C7F808C0CCF80C708F6001274FEAAB
:10039800AE0107FA01F79F427ED83B4206D12EF004
:1003A800030E7F000EF1040E3B42FAD005EBCE0996
:1003B800F046CC46DCF80C00844507D174E1002BEC
:1003C80080F29B81C068844500F06E81416821F00D
:1003D80003010B1B0F2BF2DD07460119D0F80CE0C7
:1003E80044F0010857F8084F43F0010CC0F80480A6
:1003F8003046C1F804C0C4F80CE0CEF80840696182
:100408002961CA608A60CB5001F010F959E7BEF142
:10041800040F9EBF4FEA941E0EF1380E4FEACE012C
:100428007FF669AFBEF1140F9CBF0EF15B0E4FEA69
:10043800CE017FF660AFBEF1540F9EBF4FEA143E67
:100448000EF16E0E4FEACE017FF655AFBEF5AA7FCC
:100458009EBF4FEAD43E0EF1770E4FEACE017FF6EB
:100468004AAF40F254539E4595BF4FEA944E4FF41D
:100478007C710EF17C0E4FF07E0E98BF4FEACE01D4
:1004880039E707EB0C03304608375A6842F0010297
:100498005A6001F0CBF814E7AF6840F2F403C2F2F7
:1004A80000037A6822F003084445C4EB080294BFAD
:1004B800002101210F2AD8BF41F00101002900F0D5
:1004C800B58040F27C5AD3F80824C2F2000A0132FF
:1004D800DAF80030234408BF03F1100B06D003F507
:1004E80080530F3323F47E6323F01F0B30465946A5
:1004F80001F04AF8421C814600F0318107EB0803FD
:10050800834200F20681DAF804204B455A44CAF8BF
:10051800042000F03181D5F8080440F2F401C2F259
:1005280000010130304617BFC3EB0903C1F8089436
:10053800D218CAF8042019F007031FBFC3F1080234
:10054800C3F58053914403F1080209EB0B0308BF7C
:100558004FF480521B051B0DC3EB020B594601F0EB
:1005680013F8431C00F01D81C9EB0001594441F008
:100578000101DAF80420AF4240F27C53C5F8089034
:100588005A44C2F20003C9F80410CAF8042019D06A
:10059800B8F10F0F40F2DD80A8F10C01D7F804C0C4
:1005A80021F007014FF0050E78180F290CF0010C07
:1005B80041EA0C0CC7F804C0C0F804E0C0F808E031
:1005C80000F2E68040F27C53DAF82C10C2F2000305
:1005D800AF688A42DAF8301088BFDA6240F27C539A
:1005E800C2F200038A4288BF1A637B6823F00303C0
:1005F8009C42C4EB030294BF002301230F2AD8BFF7
:1006080043F0010393B13046002701F00FF858E694
:10061800FB18FA68B96830465C680837CA6044F065
:10062800010491605C6001F001F84AE63B1942F070
:10063800010244F0010430467C6008375A60AB6020
:1006480000F0F4FF3DE64FEA5C23042B5CD9142B41
:1006580078D85B33D800281840F2F408C2F20008B2
:100668008168814203D160E08968884204D04B6880
:1006780023F003039C45F7D3C8686B68F860B9603A
:10068800CF60876082E6391943F00105416144F083
:100698000104016130467C600837CA608A604D6099
:1006A800CB5000F0C3FF0CE608F101080CF1080C70
:1006B80018F0030F7FF47EAE4B461EF0030FA3F134
:1006C80008010EF1FF3E79D01B688B42F5D06B68AC
:1006D8007F009F423FF6E0AE002F3FF4DDAE1F42A1
:1006E80071D0C64662E603F108025B699A4208BF08
:1006F8000EF1020E3FF418AED2E507464318C26861
:10070800304657F8081FD4E54FEA9C133833D80011
:10071800A1E7AF4240F2F402C2F200023FF4F3AEA6
:1007280097687B6823F0030362E74FF00109D8F864
:1007380004C09B10084609FA03F343EA0C03C8F8FF
:1007480004309BE7542B0FD84FEA1C336E33D80084
:1007580081E701234F46C9F80430002348E7AF6812
:100768007B6823F0030343E7B3F5AA7F1DD84FEA5C
:10077800DC337733D8006EE71905090D00297FF4BB
:10078800CAAEAB680BEB080141F00101596019E7EB
:10079800304607F10801019300F086F9019B5A6879
:1007A80010E701214FF0000BE3E640F254518B4271
:1007B8000DD84FEA9C437C33D8004CE76B6823EA9A
:1007C80007036B6084E77F0008F1040887E74FF4AC
:1007D8007C707E233FE700BF032A2DE9F00109D88A
:1007E8002AB10023CC5CC45401339342FAD1BDE84A
:1007F800F001704785070244034605D011F8014B04
:1008080003F8014B9C07F9D111F0030542D0D41A23
:100818006E42032C8F5912DDC5F1040CED004FEA2E
:10082800CC0C043127FA05F88C59274604FA0CF445
:1008380044EA080443F8044BD41A032CF1DC9A4226
:10084800D5D900228D5C9D540132A242FAD1CEE75F
:100858000C681C604C685C608C689C60CC68DC60D0
:100868000C691C614C695C618C699C61CC69DC61B8
:100878000C6A1C624C6A5C628C6A9C62CC6ADC62A0
:100888000C6B1C634C6B5C638C6B9C63CC6B403156
:10089800DC634033D41A3F2CDADC0AE00C681C60B5
:1008A8004C685C608C689C60CC681031DC601033EC
:1008B800D41A0F2CF2DC04E051F8044B43F8044B33
:1008C800D41A032CF8DCBAE7032AC9B270B407D8E3
:1008D80022B10023C15401339342FBD170BC70474D
:1008E80085070244034603D003F8011B9C07FBD18C
:1008F8000C02D51A641826043F2D34441ADD1C60F6
:100908005C609C60DC601C615C619C61DC611C62F9
:100918005C629C62DC621C635C639C63DC634033E6
:10092800D51A3F2DEBDC05E01C605C609C60DC6048
:100938001033D51A0F2DF7DC02E043F8044BD51A13
:10094800032DFADC9342C9D203F8011B9342FBD171
:10095800C4E700BF41EA000313F0030F034670B475
:1009680014BF00240124032A94BF002404F00104C6
:100978000D46C4B9AAB10C78013A03F8014B4CB141
:100988001C4672B111F8016F013A04F8016B234655
:10099800002EF6D12AB19A18002103F8011B9342C0
:1009A800FBD170BC7047294655F8044BA4F10136B9
:1009B80026EA040616F0803FDCD1043A43F8044BDB
:1009C800032AF0D82946D5E7014600200246034607
:1009D80000F032B938B544F65C0444F65805C0F660
:1009E8000004C0F60005641BA41006D005EB8405BE
:1009F80055F8043D9847013CFAD1BDE8384003F06A
:100A08001DBF00BFF8B540F2F404C2F200040F465F
:100A1800054600F001FEA36828465E6826F0030636
:100A280006F57E630F33DF1B3F0B013F3F03B7F52E
:100A3800805F07DB002100F0A7FDA3689B1998429F
:100A4800284603D000F0F2FD0020F8BD794200F0FE
:100A58009BFD013010D040F28053A168C2F2000320
:100A6800F61B284646F001061A684E60D71B1F6021
:100A780000F0DCFD0120F8BD0021284600F084FDCF
:100A8800A368C21A0F2A0DDD40F2FC4440F28051DF
:100A9800C2F20004C2F2000142F001025A60236867
:100AA800C01A08602846CDE7F8B50D460446002967
:100AB80075D000F0B1FD55F8046C40F2F400A5F1D2
:100AC8000801C2F2000026F00103CA18D0F808C0D5
:100AD8005768944527F003077ED016F00106576043
:100AE8004DD00026D5196D6815F0010F06D1DB1918
:100AF8009568002E64D0D268EA60956043F00102E0
:100B0800CB504A60002E35D1B3F5007F48D39E09FB
:100B18005A0A3836F500042A16D902F15B06F500A0
:100B2800142A11D91E0B6E36F500542A0CD9DE0B87
:100B38007736F500B2F5AA7F06D940F25455AA4295
:100B480074D89E0C7C36F500401940F2F405C2F2C8
:100B580000058268824203D15FE09268904204D027
:100B6800556825F00305AB42F7D3D368CB608A609C
:100B7800D16099602046BDE8F84000F057BD55F8AF
:100B8800085C00F1080C491B5B198D68654542D06B
:100B9800D1F80CC0C5F80CC0CCF80850A2E7F8BDD5
:100BA800DB080125466800EBC3029B1005FA03F336
:100BB800CA609568334343608D60E9609160D9E706
:100BC8001C4FBD4297D1416143F001020161CD60E4
:100BD8008D604A60CB50CDE7F2073B4407D455F807
:100BE800082C891A9B188D68CA68EA60956040F2DB
:100BF800005243F00105C2F200024D6081601268A4
:100C08009342B7D340F27C532046C2F200031968DE
:100C1800FFF7F8FEAEE7012664E701276868B6101B
:100C2800134607FA06F6304368609FE74FF47C7571
:100C38007E2689E7FC0000202DE9F04144F2B074DB
:100C4800C0F6000484B005462668B46C002C42D077
:100C580060681F281ADD40F24120C0F6000020B964
:100C68004FF0FF3004B0BDE8F0818C200391029270
:100C78000193FFF7E1FA0399029A019B04460028C1
:100C8800EED0B06C002784E88100B464DDB1D4F8FC
:100C9800880020B3D0F8008166680127022D06F18C
:100CA800200C07FA06F740F8262048EA070240F821
:100CB8002C3008BFD0F80431C0F8002104BF1F430E
:100CC800C0F8047100E06668B31C00200136666055
:100CD80044F82310C6E706F14C04B464B8E740F2C0
:100CE8004120C0F600000028BAD04FF48470039168
:100CF80002920193FFF7A0FA0399029A019B002838
:100D0800AED00026C0F80061C0F80461B046C4F84F
:100D18008800C1E780B582B000AF786039607B6831
:100D2800DB68002B02D14FF0000325E002F0C2FB84
:100D38007B6819687B689B681A468A1811783A6834
:100D4800117003F101027B689A607B689A687B687E
:100D58005B689A4206DB7B689A687B685B68D21A94
:100D68007B689A607B68DB6803F1FF327B68DA6036
:100D780002F0B6FB4FF00103184607F10807BD461D
:100D880080BD00BF80B584B000AF78600B46FB70B3
:100D98007B68DA687B685B689A4202DB4FF0000385
:100DA80021E002F087FB7B689A687B68DB68D318D0
:100DB800FB607B685A68FB689A4204DC7B685B6866
:100DC800FA68D31AFB607B681A68FB68D318FA784C
:100DD8001A707B68DB6803F101027B68DA6002F055
:100DE8007FFB4FF00103184607F11007BD4680BD91
:100DF80080B582B000AF4FF48053C4F201031B8862
:100E08009BB203F02003002B29D04FF48053C4F287
:100E180001039B889BB2DBB240F20450C2F200008F
:100E28001946FFF7AFFF0346002B0CD140F2B06321
:100E3800C2F200031B6803F1010240F2B063C2F280
:100E480000031A600BE040F2B063C2F200035B6873
:100E580003F1010240F2B063C2F200035A604FF49A
:100E68008053C4F201031B889BB203F08003002B5C
:100E78002CD040F21450C2F2000007F107031946C3
:100E8800FFF748FF0346002B06D04FF48053C4F207
:100E98000103FA799A800DE04FF48053C4F20103FC
:100EA8004FF48052C4F20102928992B222F0800279
:100EB80092B29A8140F2B063C2F200039B6803F1D8
:100EC800010240F2B063C2F200039A6007F108071A
:100ED800BD4680BD80B582B000AF02F0EBFA4FF49A
:100EE800A053C4F200035B6A7B6040F2BC63C2F2A9
:100EF80000031B881A467B689A4203DD7B6803F56A
:100F080080337B6040F2BC63C2F200031B887A68BE
:100F1800D11A0A464FEAE27340F2C061C2F20001F8
:100F2800D1E90001801841EB030140F2C063C2F22D
:100F38000003C3E900017B689AB240F2BC63C2F2C5
:100F480000031A8002F0CCFA40F2C063C2F2000338
:100F5800D3E900231046194607F10807BD4680BDAE
:100F680080B584B000AF3B46184602F08DFD4FF4C3
:100F78006053C4F202034FF46052C4F20202126CCE
:100F880042F020021A644FF4A053C4F20003F96837
:100F98004DF68362C4F21B32A2FB01024FEA924271
:100FA80092B202F1FF3292B21A854FF4A053C4F202
:100FB80000034FF6FF72DA624FF4A053C4F2000345
:100FC8004FF001021A8007F11007BD4680BD00BF2F
:100FD80080B584B004AF4FF001004FF0060101F076
:100FE80055FE024640F2E873C2F200031A604FF061
:100FF80001004FF0000101F049FE024640F2C863CB
:10100800C2F200031A6040F2C863C2F200031B6810
:10101800002B0DD040F2C863C2F200031B681846CB
:101028004FF000014FF000024FF0000301F096FE70
:1010380040F2C863C2F200031B6818464FF0000173
:101048004FF000024FF0000301F018FF00F0C4FD5C
:101058004FF00003009340F2D473C2F200030193EF
:101068004FF0000302934FF00003039341F2A100F5
:10107800C0F6000044F23471C0F600014FF48072EB
:101088004FF0000300F072FF01F046F84FF0000344
:101098001846BD4680BD00BF80B588B000AF7860F7
:1010A8007B68BB614FF00003FB774FF00003FB60E8
:1010B8004FF00003FB754FF00003BB754FF00003C2
:1010C8007B7507F1140318464FF029014FF0010210
:1010D80000F0EAFB07F1100318464FF02B014FF020
:1010E800010200F0E1FB3B7DDBB2FB723B7CDBB233
:1010F800BB7200E000BFFB7F03F10103FB77FB7FBE
:101108000A2BF7D107F1140318464FF029014FF0C5
:10111800010200F0C9FB07F1100318464FF02B013C
:101128004FF0010200F0C0FB3A7DFB7ADBB2DBB284
:10113800D31ADBB23B753A7CBB7ADBB2DBB2D31A8B
:10114800DBB23B743B7DDBB25BB2002BB8BF5B42CA
:10115800FB753B7CDBB25BB2002BB8BF5B42BB7557
:1011680097F9172097F916309A42A8BF1346DBB2B1
:101178007B757B7D002BBDD03B7DDBB25BB213F171
:10118800020F1FDA4FF0000000F05AFA3B7DDBB285
:101198005BB2022B03DC4FF0010000F06BFA3B7CE2
:1011A800DBB25BB2022B03DC4FF0030000F062FA03
:1011B8003B7CDBB25BB213F1020F03DB4FF00200A2
:1011C80000F058FA3B7DDBB25BB2022B20DD4FF01A
:1011D800020000F035FA3B7CDBB25BB2022B03DC89
:1011E8004FF0000000F046FA3B7CDBB25BB213F133
:1011F800020F03DB4FF0010000F03CFA3B7DDBB24D
:101208005BB213F1020F03DB4FF0030000F032FA78
:101218003B7CDBB25BB2022B20DD4FF0010000F01B
:101228000FFA3B7DDBB25BB2022B03DC4FF0000010
:1012380000F020FA3B7CDBB25BB213F1020F03DB58
:101248004FF0020000F016FA3B7DDBB25BB213F1FF
:10125800020F03DB4FF0030000F00CFA3B7CDBB21B
:101268005BB213F1020F1FDA4FF0030000F0E8F948
:101278003B7DDBB25BB2022B03DC4FF0010000F0D8
:10128800F9F93B7CDBB25BB2022B03DC4FF00000C8
:1012980000F0F0F93B7DDBB25BB213F1020F03DB28
:1012A8004FF0020000F0E6F94FF00003FB7721E76A
:1012B800002100F004B8104B5B58435004310F482C
:1012C8000F4B42189A42FFF4F6AF0E4A00F003B8EB
:1012D800002342F8043B0C4B9A42FFF4F9AF0B4849
:1012E800016841F47001016000F014F8FEF77CFF1A
:1012F800FFF76EFE704700005C4800080000002001
:101308005C05002060050020F807002088ED00E05B
:10131800FFF7FEBF80B500AF4FF46053C4F202037D
:101328004FF46052C4F20202126842F001021A60DD
:101338004FF46053C4F202034FF000029A604FF476
:101348006053C4F202034FF46052C4F202021268FE
:1013580022F0847222F480321A604FF46053C4F28F
:10136800020343F21002C2F200425A604FF4605383
:10137800C4F202034FF46052C4F20202126822F46B
:1013880080221A604FF46053C4F202034FF0000247
:10139800DA6000F009F84FF46D43CEF200034FF025
:1013A80000629A6080BD00BF80B483B000AF4FF088
:1013B80000037B604FF000033B604FF46053C4F2BE
:1013C80002034FF46052C4F20202126842F48032FF
:1013D8001A604FF46053C4F202031B6803F400332D
:1013E8003B607B6803F101037B603B68002B03D102
:1013F8007B68B3F5A06FECD14FF46053C4F20203DD
:101408001B6803F40033002B03D04FF001033B604B
:1014180002E04FF000033B603B68012B40F0828004
:101428004FF46053C4F202034FF46052C4F2020254
:10143800126C42F080521A644FF4E043C4F2000385
:101448004FF4E042C4F20002126842F480421A608B
:101458004FF46053C4F202034FF46052C4F2020224
:1014680092689A604FF46053C4F202034FF46052DA
:10147800C4F20202926842F400429A604FF4605348
:10148800C4F202034FF46052C4F20202926842F4BA
:10149800A0529A604FF46053C4F2020345F2084226
:1014A800C0F240725A604FF46053C4F202034FF422
:1014B8006052C4F20202126842F080721A6000BFE1
:1014C8004FF46053C4F202031B6803F00073002B4F
:1014D800F6D04FF47053C4F2020340F205621A606A
:1014E8004FF46053C4F202034FF46052C4F2020294
:1014F800926822F003029A604FF46053C4F2020328
:101508004FF46052C4F20202926842F002029A60FA
:1015180000BF4FF46053C4F202039B6803F00C034E
:10152800082BF6D14FF46053C4F202034FF4605213
:10153800C4F20202926822F400029A604FF46053E7
:10154800C4F202034FF44052C5F20002C3F88420EB
:101558004FF46053C4F202034FF46052C4F2020223
:10156800126842F080621A6000BF4FF46053C4F200
:1015780002031B6803F00063002BF6D007F10C0789
:10158800BD4680BC704700BF90B484B000AF78609F
:10159800396040F2F473C2F200031B68002B08D1D3
:1015A80040F2F473C2F2000340F2F872C2F2000291
:1015B8001A6040F2F473C2F200031A683B68D2184A
:1015C800EFF308842346194640F22853C2F2000379
:1015D8001B68CB1A9A4206D97B684FF00C021A6036
:1015E8004FF0FF3312E040F2F473C2F200031B68BD
:1015F800FB6040F2F473C2F200031A683B68D21829
:1016080040F2F473C2F200031A60FB68184607F14F
:101618001007BD4690BC704780B582B000AF7860B7
:1016280001F048FF07F10807BD4680BD80B582B0CC
:1016380000AF786001F054FF07F10807BD4680BD90
:1016480080B483B000AF0346FB71FA7940F22C53A3
:10165800C2F2000353F82220F97944F61403C0F6C5
:10166800000333F81130138307F10C07BD4680BC23
:10167800704700BF80B483B000AF0346FB71FA79AE
:1016880040F22C53C2F2000353F82220F97944F6B1
:101698001403C0F6000333F81130538307F10C0725
:1016A800BD4680BC704700BF80B588B000AF024619
:1016B8000B46FA71BB71FA7944F62003C0F60003B1
:1016C80053F8223018464FF0010102F0C3FA4FF4E4
:1016D80080404FF0010102F011FB4FF000033B770F
:1016E8004FF00003FB77FA7944F61C03C0F60003B9
:1016F80033F81230BB61FA7940F23C53C2F200036E
:1017080053F82230184607F11803194602F0AAF8D0
:10171800BB79012B3AD1FA7944F62803C0F60003C5
:101728009A5CF97944F62C03C0F600035B5C10461A
:10173800194602F045FCFA7944F62403C0F6000382
:1017480033F812303B614FF000033B754FF008034C
:101758007B754FF00103BB7507F11003184601F0C4
:10176800E5FFFA7944F63003C0F600039B5C3B734F
:101778004FF00F037B734FF00F03BB734FF0010360
:10178800FB7307F10C03184601F048FF07F1200727
:10179800BD4680BD80B584B000AF78604FF00003CF
:1017A800FB7300F0C1F87B685A787B681B78134399
:1017B800DAB27B68DB781343DAB27B681B791343B0
:1017C800DAB27B689B781343DBB2FB7307F10F0334
:1017D80018464FF020014FF0010200F02DF807F1F4
:1017E8001007BD4680BD00BF80B584B000AF7860EB
:1017F8004FF00003FB7307F10F0318464FF0380151
:101808004FF0010200F050F87B681A787B685B782B
:101818001343DAB27B689B781343DBB2FB7307F19F
:101828000F0318464FF038014FF0010200F004F89A
:1018380007F11007BD4680BD80B582B000AF786063
:1018480013460A46FA703B803B88012B03D9FB7884
:1018580043F04003FB704FF48050C4F202004FF095
:10186800080102F0AFF8FB78184600F043F90CE0E5
:101878007B681B78184600F03DF93B8803F1FF337D
:101888003B807B6803F101037B603B88002BEFD131
:101898004FF48050C4F202004FF0080102F084F8BF
:1018A80007F10807BD4680BD80B582B000AF7860FB
:1018B80013460A46FA703B803B88012B04D9FB7813
:1018C80063F03F03FB7003E0FB7863F07F03FB707A
:1018D8004FF48050C4F202004FF0080102F072F891
:1018E800FB78184600F006F90FE04FF0000000F012
:1018F80001F903461A467B681A703B8803F1FF33E7
:101908003B807B6803F101037B603B88002BECD1B3
:101918004FF48050C4F202004FF0080102F044F87E
:1019280007F10807BD4680BD80B588B000AF4FF409
:1019380080504FF0010102F0E1F94FF001004FF043
:10194800010102F087F94FF010004FF0010102F099
:1019580081F94FF010004FF0010102F07BF94FF0D0
:1019680010004FF0010102F075F94FF00000C4F2C9
:1019780002004FF005014FF0050202F031F84FF078
:101988000000C4F202004FF006014FF0050202F019
:1019980027F84FF00000C4F202004FF007014FF0A3
:1019A800050202F01DF84FF002033B774FF00003E9
:1019B800BB774FF00203FB774FF002037B774FF0C2
:1019C8002003BB614FF00000C4F2020007F11803C6
:1019D800194601F047FF4FF08003BB614FF000004C
:1019E800C4F2020007F11803194601F03BFF4FF05B
:1019F8004003BB614FF00000C4F2020007F1180376
:101A0800194601F02FFF4FF44050C4F2010002F0D4
:101A1800F3F94FF00003BB804FF000033B814FF018
:101A280000037B814FF00003BB814FF40073FB81FF
:101A38004FF008033B824FF000037B824FF007030F
:101A4800BB824FF48273FB804FF44050C4F2010014
:101A580007F10403194602F013FA4FF44050C4F298
:101A680001004FF0010102F04FFA4FF00803BB618B
:101A78004FF001033B774FF00003BB774FF00203B1
:101A88007B774FF48050C4F2020007F1180319461F
:101A980001F0E8FE4FF48050C4F202004FF0080154
:101AA80001F082FF4FF00103BB614FF000033B7769
:101AB8004FF00003BB774FF002037B774FF0000332
:101AC800FB774FF48050C4F2020007F1180319465F
:101AD80001F0C8FE4FF00203BB614FF48050C4F21E
:101AE800020007F11803194601F0BCFE07F12007B0
:101AF800BD4680BD80B582B000AF0346FB7140F2A1
:101B08004053C2F200034FF480521A6017E040F2CB
:101B18004053C2F200031B68002B14BF00220122AD
:101B2800D2B203F1FF3140F24053C2F20003196010
:101B3800002A04D000F060F90346DBB246E04FF417
:101B48004050C4F201004FF0020102F019FA0346B6
:101B5800002BDCD0FB799BB24FF44050C4F201005B
:101B6800194602F0FFF940F24053C2F200034FF465
:101B780080521A6017E040F24053C2F200031B681B
:101B8800002B14BF00220122D2B203F1FF3140F230
:101B98004053C2F200031960002A04D000F02CF967
:101BA8000346DBB212E04FF44050C4F201004FF09C
:101BB800010102F0E5F90346002BDCD04FF4405058
:101BC800C4F2010002F0C0F90346DBB2184607F17F
:101BD8000807BD4680BD00BF80B500AF4FF000606C
:101BE8004FF0000101F08CFD4FF4407001F002FD50
:101BF8004FF0000000F00CF84FF000004FF001012A
:101C0800FFF752FD00F0FCF800F064F880BD00BF5B
:101C180080B584B000AF0346FB714FF008004FF069
:101C2800010102F017F84FF47043BB604FF0000356
:101C3800BB734FF003037B734FF00003FB73FB7917
:101C4800002B0CD14FF001033B734FF44060C4F2FA
:101C5800020007F10803194601F004FE36E04FF4CC
:101C68007043BB604FF002033B734FF44060C4F213
:101C7800020007F10803194601F0F4FD4FF4406033
:101C8800C4F202004FF00C014FF0020201F0A8FE6E
:101C98004FF44060C4F202004FF00D014FF0020211
:101CA80001F09EFE4FF44060C4F202004FF00E01B6
:101CB8004FF0020201F094FE4FF44060C4F20200BB
:101CC8004FF00F014FF0020201F08AFE07F11007F2
:101CD800BD4680BD80B584B000AF4FF00003FB72F5
:101CE8004FF00003FB604FF040033B714FF00003DF
:101CF8007B714FF00703BB714FF00003FB714FF08E
:101D080000033B7207F104031846FFF743FD4FF049
:101D180040033B704FF010037B704FF02003BB7003
:101D28003B461846FFF760FD4FF00003FB6003E0F9
:101D3800FB6803F10103FB60FA684FF6FE73C0F21B
:101D480001039A42F4D94FF00703FB7207F10B0322
:101D580018464FF022014FF00102FFF76DFD4FF0DA
:101D68007003FB7207F10B0318464FF038014FF070
:101D78000102FFF761FD4FF0AA03FB7207F10B03A5
:101D880018464FF03B014FF00102FFF755FD4FF0A9
:101D98000A03FB7207F10B0318464FF03C014FF0A2
:101DA8000102FFF749FD4FF00303FB7207F10B0334
:101DB80018464FF03D014FF00102FFF73DFD4FF08F
:101DC8007F03FB7207F10B0318464FF03E014FF0FB
:101DD8000102FFF731FD4FF07F03FB7207F10B03A0
:101DE80018464FF03F014FF00102FFF725FD07F1BC
:101DF8001007BD4680BD00BF80B400AFFEE700BF3E
:101E080080B58AB000AF4FF00003FB844FF00400A8
:101E18004FF0010101F048FF40F22453C2F20003E1
:101E28001A6844F6D353C1F26203A3FB02134FEAC4
:101E380013239BB203F1FF33FB8440F26C73BB6046
:101E4800FB8CBB804FF00003BB814FF00003FB808D
:101E58004FF40060C4F2000007F10403194602F0D1
:101E680007F94FF40060C4F200004FF0010102F0DE
:101E780079F94FF060033B824FF001037B824FF406
:101E88007A73BB614FF00003BB834FF40060C4F268
:101E9800000007F11003194602F084F94FF40060BE
:101EA800C4F200004FF000014FF0000202F004FC01
:101EB8004FF40060C4F200004FF0080102F084FB08
:101EC8004FF40060C4F2000007F11003194602F055
:101ED800E7F94FF40060C4F200004FF004014FF03E
:101EE800000202F0E9FB4FF40060C4F200004FF07A
:101EF800080102F085FB4FF40060C4F2000007F10E
:101F08001003194602F060FA4FF40060C4F20000B2
:101F18004FF008014FF0000202F0CEFB4FF40060D2
:101F2800C4F200004FF0080102F08AFB4FF4006091
:101F3800C4F2000007F11003194602F0D5FA4FF475
:101F48000060C4F200004FF00C014FF0000202F0F4
:101F5800B3FB4FF40060C4F200004FF0080102F038
:101F68008BFB07F12807BD4680BD00BF80B58AB04E
:101F780002AFF860B9603B601346FB80FB881846E7
:101F8800396B00F075FDB861BB69002B00F0A580C6
:101F9800BB691A6BFB8803F1FF334FEA8303D3183D
:101FA8007B617B6923F007037B61FB880093B86939
:101FB800B968BA6A7B6B00F033FC7869F9683A68EB
:101FC80001F0E4F90246BB691A60FB6A002B02D0F3
:101FD800FB6ABA691A6001F06DFA40F2A873C2F29E
:101FE80000031B6803F1010240F2A873C2F2000368
:101FF8001A6040F2CC63C2F200031B68002B0FD1B9
:1020080040F2CC63C2F20003BA691A6040F2A873C6
:10201800C2F200031B68012B18D100F045FC15E043
:1020280040F2B873C2F200031B68002B0ED140F2D5
:10203800CC63C2F200031B68DA6ABB6A9A4205D80D
:1020480040F2CC63C2F20003BA691A60BB69DA6A6B
:1020580040F2B073C2F200031B689A4206D9BB690A
:10206800DA6A40F2B073C2F200031A6040F2CC732D
:10207800C2F200031B6803F1010240F2CC73C2F202
:1020880000031A60BB69DA6A40F2B473C2F2000353
:102098001B689A4206D9BB69DA6A40F2B473C2F285
:1020A80000031A60BB69DA6A13464FEA83039B1878
:1020B8004FEA83031A4640F2D063C2F20003D218F3
:1020C800BB6903F104031046194601F0D3F84FF039
:1020D8000103FB6101F004FA02E04FF0FF33FB61FA
:1020E800FB69012B11D140F2B873C2F200031B68DF
:1020F800002B0AD040F2CC63C2F200031B68DA6AF4
:10210800BB6A9A4201D201F0C9F9FB69184607F186
:102118002007BD4680BD00BF80B586B004AF4FF034
:102128000003009340F2A473C2F2000301934FF03E
:10213800000302934FF00003039342F60500C0F634
:10214800000044F23C71C0F600014FF480724FF079
:102158000003FFF70BFF78607B68012B15D14FF068
:10216800BF0080F3118840F2B873C2F200034FF049
:1021780001021A6040F2AC73C2F200034FF0000291
:102188001A60FEF7EDFE01F051F907F10807BD46A8
:1021980080BD00BF80B400AF40F2BC73C2F2000340
:1021A8001B6803F1010240F2BC73C2F200031A601B
:1021B800BD4680BC704700BF90B583B000AF4FF0FC
:1021C80000037B6001F076F940F2BC73C2F20003B1
:1021D8001B6803F1FF3240F2BC73C2F200031A60BD
:1021E80040F2BC73C2F200031B68002B40F08580EC
:1021F80040F2A873C2F200031B68002B7DD04FF099
:1022080000033B603CE040F26473C2F20003DB6809
:10221800DC6804F11803184601F08EF804F1040391
:10222800184601F089F8E26A40F2B473C2F200037A
:102238001B689A4205D9E26A40F2B473C2F20003FD
:102248001A60E26A13464FEA83039B184FEA830336
:102258001A4640F2D063C2F20003D21804F1040314
:102268001046194601F006F8E26A40F2CC63C2F261
:1022780000031B68DB6A9A4202D34FF001033B60FC
:1022880040F26473C2F200031B68002BBBD140F21A
:10229800C073C2F200031B68002B18D00DE000F0D9
:1022A80035F840F2C073C2F200031B6803F1FF3235
:1022B80040F2C073C2F200031A6040F2C073C2F267
:1022C80000031B68002BEAD14FF001033B603B6819
:1022D800012B06D040F2C473C2F200031B68012B25
:1022E8000BD14FF001037B6040F2C473C2F20003CC
:1022F8004FF000021A6001F0D1F801F0F1F87B68A4
:10230800184607F10C07BD4690BD00BF80B584B0E4
:1023180000AF40F2BC73C2F200031B68002B40F010
:10232800C08040F2AC73C2F200031B6803F10102E3
:1023380040F2AC73C2F200031A6040F2AC73C2F20E
:1023480000031B68002B40D140F25C73C2F200030B
:102358001B68FB6040F26073C2F200031A6840F227
:102368005C73C2F200031A6040F26073C2F20003A9
:10237800FA681A6040F2C873C2F200031B6803F1DE
:10238800010240F2C873C2F200031A6040F25C73A3
:10239800C2F200031B681B68002B07D140F24453AC
:1023A800C2F200034FF0FF321A600EE040F25C7395
:1023B800C2F200031B68DB68DB68BB60BB685A6855
:1023C80040F24453C2F200031A6040F2AC73C2F206
:1023D80000031A6840F24453C2F200031B689A4291
:1023E8006BD340F25C73C2F200031B681B68002BBE
:1023F80007D140F24453C2F200034FF0FF321A6093
:102408005BE040F25C73C2F200031B68DB68DB68C8
:10241800BB60BB685B687B6040F2AC73C2F20003D0
:102428001A687B689A4206D240F24453C2F200030B
:102438007A681A6041E0BB6803F10403184600F0AB
:102448007BFFBB689B6A002B05D0BB6803F11803B0
:10245800184600F071FFBB68DA6A40F2B473C2F242
:1024680000031B689A4206D9BB68DA6A40F2B47363
:10247800C2F200031A60BB68DA6A13464FEA8303A4
:102488009B184FEA83031A4640F2D063C2F2000356
:10249800D218BB6803F104031046194600F0EAFE9F
:1024A8009FE740F2C073C2F200031B6803F1010208
:1024B80040F2C073C2F200031A6007F11007BD466C
:1024C80080BD00BF80B582B000AF40F2BC73C2F2DD
:1024D80000031B68002B07D040F2C473C2F200034C
:1024E8004FF001021A6071E0FEF7F4FC02460B4659
:1024F80013467B6040F2CC63C2F200031A68D16CC9
:1025080040F2D073C2F200031B687868C31ACB1874
:10251800D36440F2D073C2F200037A681A600BE009
:1025280040F2B473C2F200031B6803F1FF3240F2B9
:10253800B473C2F200031A6040F2B473C2F200032B
:102548001A6813464FEA83039B184FEA83031A4617
:1025580040F2D063C2F20003D3181B68002BDFD00F
:1025680040F2B473C2F200031A6813464FEA8303B9
:102578009B184FEA83031A4640F2D063C2F2000365
:10258800D3183B603B685B685A683B685A603B6895
:102598005A683B6803F108039A4204D13B685B68B8
:1025A8005A683B685A603B685B68DA6840F2CC63FB
:1025B800C2F200031A604FF4E843C4F2000340F289
:1025C800CC62C2F200021268926CDA6007F1080766
:1025D800BD4680BD80B584B000AF7860396040F2F8
:1025E800CC63C2F200031B6803F11803786819462C
:1025F80000F068FE40F2CC63C2F200031B6803F1EE
:102608000403184600F098FE3B68B3F1FF3F0ED173
:1026180040F2CC63C2F200031B6803F1040340F2EA
:102628009070C2F20000194600F024FE0AE040F261
:10263800AC73C2F200031A683B68D318FB60F868F1
:1026480000F0D0F907F11007BD4680BD80B584B011
:1026580000AF78607B68DB68DB68BB60BB6803F150
:102668001803184600F068FE40F2BC73C2F200037B
:102678001B68002B2BD1BB6803F10403184600F03C
:102688005BFEBB68DA6A40F2B473C2F200031B68EF
:102698009A4206D9BB68DA6A40F2B473C2F2000300
:1026A8001A60BB68DA6A13464FEA83039B184FEA3D
:1026B80083031A4640F2D063C2F20003D218BB6803
:1026C80003F104031046194600F0D4FD09E0BB6885
:1026D80003F1180340F26470C2F20000194600F0DA
:1026E800C9FDBB68DA6A40F2CC63C2F200031B681A
:1026F800DB6A9A4203D34FF00103FB6002E04FF01C
:102708000003FB60FB68184607F11007BD4680BD53
:1027180080B483B000AF786040F2C873C2F200039F
:102728001A687B681A6040F2AC73C2F200031A6838
:102738007B685A6007F10C07BD4680BC704700BF34
:1027480080B584B000AF7860396000F0B3FE3B68B4
:102758001B68B3F1FF3F03D14FF00003FB6038E083
:102768007B681A6840F2C873C2F200031B689A4279
:102778000CD07B685A6840F2AC73C2F200031B6845
:102788009A4203D84FF00103FB6022E040F2AC7399
:10279800C2F200031A687B685B68D21A3B681B6840
:1027A8009A4213D23B681A687B68596840F2AC7346
:1027B800C2F200031B68CB1AD2183B681A6078680B
:1027C800FFF7A6FF4FF00003FB6002E04FF00103A4
:1027D800FB6000F085FEFB68184607F11007BD4650
:1027E80080BD00BF80B400AF40F2C473C2F20003E2
:1027F8004FF001021A60BD4680BC704780B582B0B8
:1028080000AF786000E000BF00F0A0F840F2D063AD
:10281800C2F200031B68012BF5D900F03FFEF2E776
:1028280080B584B000AFF860B9607A603B60FB683F
:1028380003F134031846B9684FF01002FEF78AF81E
:10284800FB684FF0000283F843207B68042B02D911
:102858004FF004037B60FB687A68DA62FB687A6889
:102868005A64FB6803F10403184600F0F5FCFB68A2
:1028780003F11803184600F0EFFCFB68FA681A61C8
:102888007B68C3F10502FB689A61FB68FA685A62C3
:10289800FB684FF000029A64FB684FF00002DA64AC
:1028A80007F11007BD4680BD80B582B000AF4FF07C
:1028B80000037B6013E07A6813464FEA83039B1892
:1028C8004FEA83031A4640F2D063C2F20003D318DA
:1028D800184600F0A1FC7B6803F101037B607B686C
:1028E800042BE8D940F23470C2F2000000F094FCE6
:1028F80040F24870C2F2000000F08EFC40F26470B2
:10290800C2F2000000F088FC40F27870C2F20000C9
:1029180000F082FC40F29070C2F2000000F07CFCF3
:1029280040F25C73C2F2000340F23472C2F2000259
:102938001A6040F26073C2F2000340F24872C2F2B9
:1029480000021A6007F10807BD4680BD80B582B055
:1029580000AF40F28C73C2F200031B68002B3CD01E
:10296800FFF718FC40F27873C2F200031B68002BD3
:1029780014BF002301237B60FFF71EFC7B68002B3C
:102988002BD100F097FD40F27873C2F20003DB68A8
:10299800DB683B603B6803F10403184600F0CCFC9D
:1029A80040F2A873C2F200031B6803F1FF3240F241
:1029B800A873C2F200031A6040F28C73C2F20003DB
:1029C8001B6803F1FF3240F28C73C2F200031A60F5
:1029D80000F086FD386800F085F807F10807BD4665
:1029E80080BD00BF80B582B000AF786040F2CC6394
:1029F800C2F200031B687A685A6040F2AC73C2F2F4
:102A080000031B687A689A4210D240F26073C2F2DF
:102A180000031A6840F2CC63C2F200031B6803F19A
:102A280004031046194600F04DFC1DE040F25C73AB
:102A3800C2F200031A6840F2CC63C2F200031B68BA
:102A480003F104031046194600F03CFC40F24453DD
:102A5800C2F200031B687A689A4205D240F24453D6
:102A6800C2F200037A681A6007F10807BD4680BD04
:102A780080B584B000AF03463960FB804FF050004A
:102A8800FDF7DAFB0346FB60FB68002B23D03B68AD
:102A9800002B07D1FB884FEA83031846FDF7CCFBD0
:102AA800034600E03B68FA681363FB681B6B002B66
:102AB80006D1F868FDF7C8FB4FF00003FB600AE099
:102AC800FB681A6BFB884FEA830310464FF0A50199
:102AD8001A46FDF7F9FEFB68184607F11007BD46D0
:102AE80080BD00BF80B582B000AF78607B681B6B8B
:102AF8001846FDF7A9FB7868FDF7A6FB07F108075C
:102B0800BD4680BD80B483B000AF40F2CC63C2F252
:102B180000031B687B607B68184607F10C07BD46FD
:102B280080BC704780B584B000AF78607B68FB607C
:102B3800FB68DA6A40F2CC63C2F200031B68DB6A06
:102B48009A4257D240F2CC63C2F200031B68DB6A98
:102B5800C3F10502FB689A61FB685969FB68DA6A88
:102B680013464FEA83039B184FEA83031A4640F241
:102B7800D063C2F20003D318994233D1FB6803F142
:102B88000403184600F0D8FB40F2CC63C2F20003FD
:102B98001B68DA6AFB68DA62FB68DA6A40F2B473C7
:102BA800C2F200031B689A4206D9FB68DA6A40F24F
:102BB800B473C2F200031A60FB68DA6A13464FEA7C
:102BC80083039B184FEA83031A4640F2D063C2F28C
:102BD8000003D218FB6803F104031046194600F0FD
:102BE80049FB07E040F2CC63C2F200031B68DA6AD3
:102BF800FB68DA6207F11007BD4680BD80B584B076
:102C080000AF78607B68FB607B68002B3AD0FB687C
:102C1800DA6AFB685B6C9A4234D0FB6803F1040300
:102C2800184600F089FBFB685A6CFB68DA62FB689F
:102C3800DB6AC3F10502FB689A61FB68DA6A40F255
:102C4800B473C2F200031B689A4206D9FB68DA6AB9
:102C580040F2B473C2F200031A60FB68DA6A1346E2
:102C68004FEA83039B184FEA83031A4640F2D06366
:102C7800C2F20003D218FB6803F104031046194698
:102C880000F0F8FA07F11007BD4680BD80B586B0A0
:102C980000AF786039604FF000037B617B68002BE0
:102CA80056D04FF04C00FDF7C7FA03463B613B692D
:102CB800002B4DD07B683A6802FB03F303F1010354
:102CC800FB60F868FDF7B8FA03461A463B691A60D4
:102CD8003B691B68002B38D03B691A687B683968E8
:102CE80001FB03F3D2183B695A603B694FF00002BD
:102CF8009A633B691A683B699A603B691A687B6802
:102D080003F1FF33396801FB03F3D2183B69DA603A
:102D18003B697A68DA633B693A681A643B694FF041
:102D2800FF325A643B694FF0FF329A643B6903F102
:102D38001003184600F070FA3B6903F124031846A3
:102D480000F06AFA3B697B6102E03869FDF77CFABA
:102D58007B69184607F11807BD4680BD80B588B065
:102D680000AFF860B9607A603B604FF00003FB6128
:102D780000E000BF00F09EFBFB689A6BFB68DB6B12
:102D88009A4218D2F868B9683A6800F03BF9FB68CB
:102D98005B6A002B0AD0FB6803F124031846FFF78F
:102DA80055FC0346012B01D100F078FB00F098FB9D
:102DB8004FF001035DE07B68002B04D100F090FB2D
:102DC8004FF0000355E0FB69002B07D107F114030E
:102DD8001846FFF79DFC4FF00103FB6100F080FBF4
:102DE800FFF7D8F900F066FBFB685B6CB3F1FF3FB7
:102DF80003D1FB684FF000025A64FB689B6CB3F187
:102E0800FF3F03D1FB684FF000029A6400F068FBB3
:102E180007F11403184607F104031946FFF790FC5D
:102E28000346002B1ED1F86800F0DEF90346002B9C
:102E380012D0FB6803F110027B6810461946FFF7B1
:102E4800C9FBF86800F06AF9FFF7B6F90346002BEA
:102E58008FD100F023FB8CE7F86800F05FF9FFF7EB
:102E6800ABF986E7F86800F059F9FFF7A5F94FF0D4
:102E78000003184607F12007BD4680BD80B588B01D
:102E880000AFF860B9607A603B604FF00003FB6107
:102E980000E000BF00F00EFBFB689B6B002B3FD0EF
:102EA800FB68DB68BB61F868B96800F00FF93B683C
:102EB800002B1ED1FB689B6B03F1FF32FB689A6302
:102EC800FB681B68002B04D1FFF71CFE0246FB6859
:102ED8005A60FB681B69002B1DD0FB6803F11003C7
:102EE8001846FFF7B3FB0346012B14D100F0D6FABE
:102EF80011E0FB68BA69DA60FB685B6A002B0AD0EC
:102F0800FB6803F124031846FFF7A0FB0346002BD8
:102F180001D000F0C3FA00F0E3FA4FF001036BE0D0
:102F28007B68002B04D100F0DBFA4FF0000363E06C
:102F3800FB69002B07D107F110031846FFF7E8FBE0
:102F48004FF00103FB6100F0CBFAFFF723F900F023
:102F5800B1FAFB685B6CB3F1FF3F03D1FB684FF03C
:102F680000025A64FB689B6CB3F1FF3F03D1FB6816
:102F78004FF000029A6400F0B3FA07F11003184604
:102F880007F104031946FFF7DBFB0346002B2CD19E
:102F9800F86800F013F90346002B20D0FB681B6883
:102FA800002B08D100F086FAFB685B681846FFF72B
:102FB800B9FD00F095FAFB6803F124027B6810461E
:102FC8001946FFF707FBF86800F0A8F8FFF7F4F8D0
:102FD8000346002B7FF45DAF00F060FA59E7F8680C
:102FE80000F09CF8FFF7E8F853E7F86800F096F867
:102FF800FFF7E2F84FF00003184607F12007BD4637
:1030080080BD00BF80B584B000AFF860B9607A6059
:10301800FB681B6C002B0DD1FB681B68002B4AD189
:10302800FB685B681846FFF7E9FDFB684FF0000294
:103038005A6040E07B68002B1BD1FB689968FB68ED
:103048001B6CBA68084611461A46FDF7C5FBFB68B3
:103058009A68FB681B6CD218FB689A60FB689A68D0
:10306800FB685B689A4226D3FB681A68FB689A601B
:1030780021E0FB68D968FB681B6CBA6808461146F2
:103088001A46FDF7A9FBFB68DA68FB681B6CC3F1FD
:103098000003D218FB68DA60FB68DA68FB681B6813
:1030A8009A4208D2FB685A68FB681B6CC3F100039C
:1030B800D218FB68DA60FB689B6B03F10102FB68BE
:1030C8009A6307F11007BD4680BD00BF80B582B086
:1030D80000AF786039607B681B68002B1AD07B686A
:1030E800DA687B681B6CD2187B68DA607B68DA6800
:1030F8007B685B689A4203D37B681A687B68DA60EE
:103108007B68DA687B681B6C3968084611461A4682
:10311800FDF762FB07F10807BD4680BD80B582B0A8
:1031280000AF786000F0C6F914E07B685B6A002B9A
:1031380015D07B6803F124031846FFF787FA034686
:10314800002B01D0FFF74EFB7B689B6C03F1FF322D
:103158007B689A647B689B6C002BE6DC00E000BF10
:103168007B684FF0FF329A6400F0BAF900F0A2F9D8
:1031780014E07B681B69002B15D07B6803F11003F2
:103188001846FFF763FA0346002B01D0FFF72AFB26
:103198007B685B6C03F1FF327B685A647B685B6C0D
:1031A800002BE6DC00E000BF7B684FF0FF325A647A
:1031B80000F096F907F10807BD4680BD80B584B0D8
:1031C80000AF786000F076F97B689B6B002B14BF2A
:1031D80000230123FB6000F083F9FB68184607F120
:1031E8001007BD4680BD00BF80B584B000AF7860D1
:1031F80000F060F97B689A6B7B68DB6B9A4214BFBE
:1032080000230123FB6000F06BF9FB68184607F107
:103218001007BD4680BD00BF80B483B000AF7860A2
:103228007B6803F108027B685A607B684FF0FF32C5
:103238009A607B6803F108027B68DA607B6803F1B7
:1032480008027B681A617B684FF000021A6007F178
:103258000C07BD4680BC704780B483B000AF78606F
:103268007B684FF000021A6107F10C07BD4680BC6D
:10327800704700BF80B485B000AF786039607B6864
:103288005B68FB60FB685A683B685A607B685A68F1
:103298003B689A60FB685B683A689A60FB683A68C2
:1032A8005A607B683A685A603B687A681A617B683A
:1032B8001B6803F101027B681A6007F11407BD4619
:1032C80080BC704780B485B000AF786039603B68D7
:1032D8001B68BB60BB68B3F1FF3F03D17B681B6908
:1032E800FB600DE07B6803F10803FB6002E0FB680C
:1032F8005B68FB60FB685B681A68BB689A42F6D932
:10330800FB685A683B685A603B685B683A689A6031
:103318003B68FA689A60FB683A685A603B687A6862
:103328001A617B681B6803F101027B681A6007F168
:103338001407BD4680BC704780B485B000AF786084
:103348007B685B687A6892689A607B689B687A6831
:1033580052685A607B681B69FB60FB685A687B6827
:103368009A4203D17B689A68FB685A607B684FF081
:1033780000021A61FB681B6803F1FF32FB681A60E0
:1033880007F11407BD4680BC704700BF80B485B004
:1033980000AFF860B9607A60FB68A3F10403FB60D2
:1033A800FB684FF080721A60FB68A3F10403FB60AE
:1033B800BA68FB681A60FB68A3F10403FB60FB684A
:1033C8004FF000021A60FB68A3F11403FB607A68EF
:1033D800FB681A60FB68A3F10403FB60FB686FF0ED
:1033E80002021A60FB68A3F12003FB60FB68184621
:1033F80007F11407BD4680BC704700BF054B19682C
:103408000868B0E8F04F80F309884FF0000080F3B7
:1034180011887047CC06002003480068006880F3D4
:10342800088862B600DF00BF08ED00E080B500AF95
:103438004EF62053CEF200034EF62052CEF2000292
:10344800126842F47F021A604EF62053CEF200034F
:103458004EF62052CEF20002126842F07F421A6005
:1034680000F09EF840F24853C2F200034FF0000209
:103478001A6000F0B5F84EF63473CEF200034EF63B
:103488003472CEF20002126842F040421A60FFF72E
:10349800C3FF4FF00003184680BD00BF80B400AFE3
:1034A8004EF60453CEF200034FF080521A60BD4628
:1034B80080BC704780B400AF4FF0BF0080F3118824
:1034C80040F24853C2F200031B6803F1010240F2C4
:1034D8004853C2F200031A60BD4680BC704700BF63
:1034E80080B400AF40F24853C2F200031B6803F1F6
:1034F800FF3240F24853C2F200031A6040F24853C8
:10350800C2F200031B68002B03D14FF0000080F3C8
:103518001188BD4680BC7047EFF30980114B1A68CB
:103528001EF0100F08BF20ED108A20E9F04F106040
:103538002DE908404FF0BF0080F31188FEF7C2FF65
:103548004FF0000080F31188BDE80840196808684A
:10355800B0E8F04F1EF0100F08BFB0EC108A80F3EF
:1035680009887047CC06002080B582B000AF4EF6BF
:103578000453CEF200034FF080521A604FF000035C
:103588007B604FF0BF0080F31188FEF7BFFE4FF05D
:10359800000080F3118807F10807BD4680BD00BF11
:1035A80080B400AF4EF21403CEF2000340F224526E
:1035B800C2F20002116844F6D352C1F26202A2FBC1
:1035C80001024FEA921202F1FF321A604EF2100322
:1035D800CEF200034FF007021A60BD4680BC704768
:1035E800DFF80C00016841F47001016070470000C9
:1035F80088ED00E080B483B000AF78604FF46D438D
:10360800CEF200037A6842F0BE6242F42022DA6009
:1036180007F10C07BD4680BC704700BF80B485B079
:1036280000AF78604FF00003FB734FF00003BB73EB
:103638004FF00F037B737B68DB78002B45D04FF48A
:103648006D43CEF20003DB686FEA030303F4E06323
:103658004FEA1323FB73FB7BC3F10403BB737A7B31
:10366800FB7B42FA03F37B737B685B781A46BB7B70
:1036780002FA03F3FB737B689A787B7B1340DAB218
:10368800FB7B1343FB73FB7B4FEA0313FB734FF482
:103698006143CEF200037A6812789B18FA7B83F8AC
:1036A80000234FF46143CEF200037A6812784FEAA0
:1036B8005212D2B27968097801F01F014FF0010067
:1036C80000FA01F143F8221014E04FF46143CEF2FE
:1036D80000037A6812784FEA5212D2B279680978F0
:1036E80001F01F014FF0010000FA01F102F1200280
:1036F80043F8221007F11407BD4680BC704700BF8D
:1037080080B483B000AF786039604FF46D43CEF277
:1037180000033A6822F0604222F07F0279680A4387
:103728009A6007F10C07BD4680BC704780B485B02D
:1037380000AF78604FF00003FB604FF47053C4F2A1
:103748000103FB607B689B79002B78D04FF47053A2
:10375800C4F201034FF47052C4F2010211687A688E
:1037680012686FEA02020A401A604FF47053C4F2FA
:1037780001034FF47052C4F2010251687A6812686A
:103788006FEA02020A405A607B681B79FA68D3180C
:10379800FB60FB68FA6811687A6812680A431A6065
:1037A8004FF47053C4F201034FF47052C4F2010293
:1037B80091687A6812686FEA02020A409A604FF4C8
:1037C8007053C4F201034FF47052C4F20102D1687D
:1037D8007A6812686FEA02020A40DA607B685B79ED
:1037E800102B1AD14FF47053C4F201034FF47052E6
:1037F800C4F2010291687A6812680A439A604FF429
:103808007053C4F201034FF47052C4F20102D1683C
:103818007A6812680A43DA601FE04FF47053C4F202
:103828000103FB607B685B79FA68D318FB60FB686F
:10383800FA6811687A6812680A431A600DE07B68B2
:103848001B79FA68D318FB60FB68FA6811687A6814
:1038580012686FEA02020A401A6007F11407BD46AF
:1038680080BC704780B487B000AF786039604FF093
:1038780000037B614FF000033B614FF00003FB60E6
:103888004FF000037B6186E07B694FF0010202FA8A
:1038980003F33B613B681A683B691340FB60FA68B5
:1038A8003B699A4273D17B681A687B694FEA430384
:1038B8004FF0030101FA03F36FEA03031A407B6830
:1038C8001A607B681A683B681B7919467B694FEA5E
:1038D800430301FA03F31A437B681A603B681B79B8
:1038E800012B03D03B681B79022B34D17B689A6883
:1038F8007B694FEA43034FF0030101FA03F36FEAD0
:1039080003031A407B689A607B689A683B685B7916
:1039180019467B694FEA430301FA03F31A437B68AC
:103928009A607B685A687B699BB24FF0010101FA83
:1039380003F36FEA03031A407B685A607B685A688E
:103948003B689B7919467B699BB201FA03F39BB2EA
:103958001A437B685A607B68DA687B699BB24FEAD6
:1039680043034FF0030101FA03F36FEA03031A401C
:103978007B68DA607B68DA683B68DB7919467B69C3
:103988004FEA430301FA03F31A437B68DA607B6961
:1039980003F101037B617B690F2B7FF675AF07F19C
:1039A8001C07BD4680BC704780B483B000AF786008
:1039B8000B467B807B687A881A8307F10C07BD4623
:1039C80080BC704780B483B000AF78600B467B80C2
:1039D8007B687A885A8307F10C07BD4680BC70471C
:1039E80080B485B000AF786013460A467A807B7051
:1039F8004FF00003FB604FF00003BB607A787B88D0
:103A080003F007034FEA830302FA03F3FB607B88A2
:103A18004FEAD3039BB21A467B884FEAD3039BB283
:103A280019467B6801F1080153F821107B8803F0DF
:103A380007034FEA83034FF00F0000FA03F36FEA1E
:103A4800030319407B6802F1080243F822107B88BF
:103A58004FEAD3039BB21A467B6802F1080253F877
:103A68002220FB681343BB607B884FEAD3039BB2D9
:103A78001A467B6802F10802B96843F8221007F178
:103A88001407BD4680BC704780B489B000AF786029
:103A98004FF00003BB614FF000037B614FF0000360
:103AA800FB614FF002033B614FF00003FB604FF0F6
:103AB8000203BB604FF46053C4F202039B6803F037
:103AC8000C03BB61BB69042B0AD0082B0FD0002B59
:103AD80060D17A684FF41053C0F2F403136060E0C9
:103AE8007A684FF49053C0F27A03136059E04FF4A8
:103AF8006053C4F202035B6803F480034FEA9353F4
:103B0800FB604FF46053C4F202035B6803F03F03A9
:103B1800BB60FB68002B14D04FF49053C0F27A03BB
:103B2800BA68B3FBF2F24FF46053C4F20203596867
:103B380047F6C0730B404FEA931303FB02F3FB6194
:103B480013E04FF41053C0F2F403BA68B3FBF2F277
:103B58004FF46053C4F20203596847F6C0730B4030
:103B68004FEA931303FB02F3FB614FF46053C4F273
:103B780002035B6803F440334FEA134303F1010384
:103B88004FEA43033B61FA693B69B2FBF3F27B6896
:103B98001A6006E07A684FF41053C0F2F403136019
:103BA80000BF4FF46053C4F202039B6803F0F003B4
:103BB800BB61BB694FEA1313BB6140F24C53C2F2BD
:103BC8000003BA699B181B78DBB27B617B681A68B3
:103BD8007B6922FA03F27B685A604FF46053C4F29F
:103BE80002039B6803F4E053BB61BB694FEA93236C
:103BF800BB6140F24C53C2F20003BA699B181B78B0
:103C0800DBB27B617B685A687B6922FA03F27B68C6
:103C18009A604FF46053C4F202039B6803F4604354
:103C2800BB61BB694FEA5333BB6140F24C53C2F2EC
:103C38000003BA699B181B78DBB27B617B685A6802
:103C48007B6922FA03F27B68DA6007F12407BD4634
:103C580080BC704780B483B000AF78600B46FB70BF
:103C6800FB78002B0CD04FF46053C4F202034FF4DE
:103C78006052C4F20202116B7A680A431A630DE0BB
:103C88004FF46053C4F202034FF46052C4F20202CC
:103C9800116B7A686FEA02020A401A6307F10C078F
:103CA800BD4680BC704700BF80B483B000AF786069
:103CB8000B46FB70FB78002B0CD04FF46053C4F21A
:103CC80002034FF46052C4F20202116C7A680A438C
:103CD8001A640DE04FF46053C4F202034FF46052CB
:103CE800C4F20202116C7A686FEA02020A401A648E
:103CF80007F10C07BD4680BC704700BF80B483B095
:103D080000AF78600B46FB70FB78002B0CD04FF4AB
:103D18006053C4F202034FF46052C4F20202516CC1
:103D28007A680A435A640DE04FF46053C4F2020300
:103D38004FF46052C4F20202516C7A686FEA0202D0
:103D48000A405A6407F10C07BD4680BC704700BFA3
:103D580080B483B000AF78600B46FB70FB78002B13
:103D68000CD04FF46053C4F202034FF46052C4F213
:103D78000202116A7A680A431A620DE04FF460532E
:103D8800C4F202034FF46052C4F20202116A7A6864
:103D98006FEA02020A401A6207F10C07BD4680BCAE
:103DA800704700BF80B483B000AF78600B46FB70EB
:103DB800FB78002B0CD04FF46053C4F202034FF48D
:103DC8006052C4F20202516A7A680A435A620DE0EC
:103DD8004FF46053C4F202034FF46052C4F202027B
:103DE800516A7A686FEA02020A405A6207F10C07C0
:103DF800BD4680BC704700BF80B582B000AF786018
:103E08007A684FF44053C4F201039A420CD14FF43C
:103E180080504FF00101FFF7C5FF4FF480504FF07D
:103E28000001FFF7BFFF26E07A684FF46053C4F241
:103E380000039A420CD14FF480404FF00101FFF784
:103E480087FF4FF480404FF00001FFF781FF12E039
:103E58007A684FF47053C4F200039A420BD14FF4BE
:103E680000404FF00101FFF773FF4FF400404FF09F
:103E78000001FFF76DFF07F10807BD4680BD00BFD1
:103E880080B485B000AF786039604FF00003FB81E3
:103E98007B681B88FB81FB8903F44153FB813B68EA
:103EA8001A883B685B8813439AB23B689B88134324
:103EB8009AB23B68DB8813439AB23B681B89134369
:103EC8009AB23B685B8913439AB23B689B89134358
:103ED8009AB23B68DB8913439AB2FB891343FB818F
:103EE8007B68FA891A807B689B8B9BB223F40063FA
:103EF8009AB27B689A833B681A8A7B681A8207F1B0
:103F08001407BD4680BC704780B483B000AF7860AA
:103F18000B46FB70FB78002B08D07B681B889BB294
:103F280043F040039AB27B681A8007E07B681B88DD
:103F38009BB223F040039AB27B681A8007F10C0702
:103F4800BD4680BC704700BF80B483B000AF7860C6
:103F58007B689B899BB2184607F10C07BD4680BC5D
:103F6800704700BF80B483B000AF78600B467B8099
:103F78007B687A889A8107F10C07BD4680BC704738
:103F880080B485B000AF78600B467B804FF00003AB
:103F9800FB737B681B899AB27B8813409BB2002B0A
:103FA80003D04FF00103FB7302E04FF00003FB73F3
:103FB800FB7B184607F11407BD4680BC704700BF5D
:103FC80090B484B000AF02460B46FA71BB714FF053
:103FD8000003FB60BB7903F003034FEA83034FF050
:103FE8000F0202FA03F3FB604FF46053C4F20103BB
:103FF800BA794FEA9202D2B210464FF46052C4F234
:104008000102B9794FEA9101C9B201F1020152F8EE
:104018002110FA686FEA0202114000F1020243F827
:1040280022104FF46053C4F20103BA794FEA9202A6
:10403800D2B210464FF46052C4F20102B9794FEA85
:104048009101C9B201F1020152F82110FC79BA7943
:1040580002F003024FEA820204FA02F2114300F16D
:10406800020243F8221007F11007BD4690BC7047C2
:1040780080B485B000AF786039604FF00003FB81F1
:104088007B681B88FB817A684FF00003C4F2010348
:104098009A421FD07A684FF48063C4F201039A42AF
:1040A80018D07B68B3F1804F14D07A684FF48063DE
:1040B800C4F200039A420DD07A684FF40063C4F248
:1040C80000039A4206D07A684FF44063C4F20003B2
:1040D8009A4208D1FB8923F07003FB813B685A8818
:1040E800FB891343FB817A684FF48053C4F20003C1
:1040F8009A420FD07A684FF4A053C4F200039A4250
:1041080008D0FB8923F44073FB813B681A89FB893B
:104118001343FB817B68FA891A803B685A687B687D
:10412800DA623B681A887B681A857A684FF0000360
:10413800C4F201039A4206D07A684FF48063C4F24D
:1041480001039A4204D13B689B7A1A467B681A8617
:104158007B684FF001029A8207F11407BD4680BCC4
:10416800704700BF80B483B000AF78600B46FB7027
:10417800FB78002B08D07B681B889BB243F0800338
:104188009AB27B681A8007E07B681B889BB223F091
:1041980080039AB27B681A8007F10C07BD4680BC81
:1041A800704700BF80B485B000AF786039604FF0C9
:1041B80000037B814FF00003FB814FF00003BB81BC
:1041C8007B681B8C9BB223F001039AB27B681A842C
:1041D8007B681B8CFB817B689B88BB817B681B8B06
:1041E8007B817B8923F070037B817B8923F0030328
:1041F8007B813B681A887B8913437B81FB8923F089
:104208000203FB813B689A89FB891343FB813B6866
:104218005A88FB891343FB817A684FF00003C4F284
:1042280001039A4206D07A684FF48063C4F201030E
:104238009A4223D1FB8923F00803FB813B68DA8982
:10424800FB891343FB81FB8923F00403FB813B6853
:104258009A88FB891343FB81BB8923F48073BB8154
:10426800BB8923F40073BB813B681A8ABB8913435B
:10427800BB813B685A8ABB891343BB817B68BA8977
:104288009A807B687A891A833B689A687B685A6344
:104298007B68FA891A8407F11407BD4680BC704709
:1042A80080B485B000AF786039604FF000037B813F
:1042B8004FF00003FB814FF00003BB817B681B8C30
:1042C8009BB223F010039AB27B681A847B681B8C1C
:1042D800FB817B689B88BB817B681B8B7B817B898F
:1042E80023F4E0437B817B8923F440737B813B6823
:1042F8001B884FEA03239AB27B8913437B81FB898E
:1043080023F02003FB813B689B894FEA03139AB291
:10431800FB891343FB813B685B884FEA03139AB21E
:10432800FB891343FB817A684FF00003C4F2010351
:104338009A4206D07A684FF48063C4F201039A4225
:104348002FD1FB8923F08003FB813B68DB894FEA8F
:1043580003139AB2FB891343FB81FB8923F04003C3
:10436800FB813B689B884FEA03139AB2FB8913438E
:10437800FB81BB8923F48063BB81BB8923F4006381
:10438800BB813B681B8A4FEA83039AB2BB891343FC
:10439800BB813B685B8A4FEA83039AB2BB891343AC
:1043A800BB817B68BA899A807B687A891A833B6863
:1043B8009A687B689A637B68FA891A8407F11407FC
:1043C800BD4680BC704700BF80B485B000AF786040
:1043D80039604FF000037B814FF00003FB814FF001
:1043E8000003BB817B681B8C9BB223F480739AB259
:1043F8007B681A847B681B8CFB817B689B88BB81EC
:104408007B689B8B7B817B8923F070037B817B8915
:1044180023F003037B813B681A887B8913437B81E4
:10442800FB8923F40073FB813B689B894FEA0323D4
:104438009AB2FB891343FB813B685B884FEA0323ED
:104448009AB2FB891343FB817A684FF00003C4F2E8
:1044580001039A4206D07A684FF48063C4F20103DC
:104468009A422FD1FB8923F40063FB813B68DB89E7
:104478004FEA03239AB2FB891343FB81FB8923F498
:104488008063FB813B689B884FEA03239AB2FB89D0
:104498001343FB81BB8923F48053BB81BB8923F47D
:1044A8000053BB813B681B8A4FEA03139AB2BB894E
:1044B8001343BB813B685B8A4FEA03139AB2BB89FB
:1044C8001343BB817B68BA899A807B687A899A830F
:1044D8003B689A687B68DA637B68FA891A8407F113
:1044E8001407BD4680BC704780B485B000AF7860C3
:1044F80039604FF00003BB814FF000037B814FF020
:104508000003FB817B681B8C9BB223F480539AB217
:104518007B681A847B681B8C7B817B689B88FB810A
:104528007B689B8BBB81BB8923F4E043BB81BB8940
:1045380023F44073BB813B681B884FEA03239AB27C
:10454800BB891343BB817B8923F400537B813B6880
:104558009B894FEA03339AB27B8913437B813B687B
:104568005B884FEA03339AB27B8913437B817A686D
:104578004FF00003C4F201039A4206D07A684FF460
:104588008063C4F201039A420BD1FB8923F4804370
:10459800FB813B681B8A4FEA83139AB2FB8913435A
:1045A800FB817B68FA899A807B68BA899A833B6821
:1045B8009A687B681A647B687A891A8407F11407F9
:1045C800BD4680BC704700BF80B485B000AF78603E
:1045D8000B467B804FF00003FB817B681B8BFB81C4
:1045E800FB8923F00803FB81FA897B881343FB814D
:1045F8007B68FA891A8307F11407BD4680BC7047A7
:1046080080B485B000AF78600B467B804FF0000324
:10461800FB817B681B8BFB81FB8923F40063FB8197
:104628007B884FEA03239AB2FB891343FB817B689B
:10463800FA891A8307F11407BD4680BC704700BF8A
:1046480080B485B000AF78600B467B804FF00003E4
:10465800FB817B689B8BFB81FB8923F00803FB8133
:10466800FA897B881343FB817B68FA899A8307F16F
:104678001407BD4680BC704780B485B000AF786031
:104688000B467B804FF00003FB817B689B8BFB8193
:10469800FB8923F40063FB817B884FEA03239AB2EA
:1046A800FB891343FB817B68FA899A8307F1140716
:1046B800BD4680BC704700BF80B485B000AF78604D
:1046C80013460A467A803B804FF00003FB817B88C3
:1046D8004FF0010202FA03F3FB817B681B8C9AB24C
:1046E800FB896FEA03039BB213409AB27B681A8472
:1046F8007B681B8C9AB239887B8801FA03F39BB2DA
:1047080013439AB27B681A8407F11407BD4680BC2C
:10471800704700BF40F20003C0F200032BB140F61F
:10472800DD10C0F60000FCF74FB970474D454D53FA
:104738000000000049444C45000000000D0A00003C
:104748002575202025632020252D31367320202033
:104758002020202020202030202020302525202027
:104768002535750D0A0000002575202025632020B9
:10477800252D3136732025313075202533752525B3
:1047880020202535750D0A00257520202563202059
:10479800252D313673202531307520203C312525D3
:1047A80020202535750D0A000400002000000000B7
:1047B80000000000000000000000000000000000F1
:1047C80000000000000000000000000000000000E1
:1047D80000000000000000000000000000000000D1
:1047E80000000000000000000000000000000000C1
:1047F80000000000000000000000000000000000B1
:104808000000000000000000000000000010002070
:1048180000400080010000000100000001000000CD
:104828000000000000000000060000004300000037
:10483800F8B500BFF8BC08BC9E467047F8B500BF85
:08484800F8BC08BC9E46704755
:084850001D470008B501000836
:0448580089010008CA
:10485C000400002000000000F4470008D4470008C2
:10486C00B447000800000000000000000000000039
:10487C0000000000344800080000000000000000A8
:10488C00000000000000000000000000000000001C
:10489C00000000000000000000000000000000000C
:1048AC0000000000000000000000000000000000FC
:1048BC0000000000000000000000000000000000EC
:1048CC0000000000000000000000000000000000DC
:1048DC0000000000000000000000000000000000CC
:1048EC0000000000000000000000000000000000BC
:1048FC0000000000000000000000000000000000AC
:10490C00000000000000000000000000000000009B
:10491C00000000000000000000000000000000008B
:10492C00000000000000000000000000000000007B
:10493C00000000000000000000000000000000006B
:10494C00000000000000000000000000F400002047
:10495C00F4000020FC000020FC00002004010020DA
:10496C00040100200C0100200C0100201401002087
:10497C00140100201C0100201C0100202401002037
:10498C00240100202C0100202C01002034010020E7
:10499C00340100203C0100203C0100204401002097
:1049AC00440100204C0100204C0100205401002047
:1049BC00540100205C0100205C01002064010020F7
:1049CC00640100206C0100206C01002074010020A7
:1049DC00740100207C0100207C0100208401002057
:1049EC00840100208C0100208C0100209401002007
:1049FC00940100209C0100209C010020A4010020B7
:104A0C00A4010020AC010020AC010020B401002066
:104A1C00B4010020BC010020BC010020C401002016
:104A2C00C4010020CC010020CC010020D4010020C6
:104A3C00D4010020DC010020DC010020E401002076
:104A4C00E4010020EC010020EC010020F401002026
:104A5C00F4010020FC010020FC01002004020020D5
:104A6C00040200200C0200200C0200201402002082
:104A7C00140200201C0200201C0200202402002032
:104A8C00240200202C0200202C02002034020020E2
:104A9C00340200203C0200203C0200204402002092
:104AAC00440200204C0200204C0200205402002042
:104ABC00540200205C0200205C02002064020020F2
:104ACC00640200206C0200206C02002074020020A2
:104ADC00740200207C0200207C0200208402002052
:104AEC00840200208C0200208C0200209402002002
:104AFC00940200209C0200209C020020A4020020B2
:104B0C00A4020020AC020020AC020020B402002061
:104B1C00B4020020BC020020BC020020C402002011
:104B2C00C4020020CC020020CC020020D4020020C1
:104B3C00D4020020DC020020DC020020E402002071
:104B4C00E4020020EC020020EC020020F402002021
:104B5C00F4020020FC020020FC02002004030020D0
:104B6C00040300200C0300200C030020140300207D
:104B7C00140300201C0300201C030020240300202D
:104B8C00240300202C0300202C03002034030020DD
:104B9C00340300203C0300203C030020440300208D
:104BAC00440300204C0300204C030020540300203D
:104BBC00540300205C0300205C03002064030020ED
:104BCC00640300206C0300206C030020740300209D
:104BDC00740300207C0300207C030020840300204D
:104BEC00840300208C0300208C03002094030020FD
:104BFC00940300209C0300209C030020A4030020AD
:104C0C00A4030020AC030020AC030020B40300205C
:104C1C00B4030020BC030020BC030020C40300200C
:104C2C00C4030020CC030020CC030020D4030020BC
:104C3C00D4030020DC030020DC030020E40300206C
:104C4C00E4030020EC030020EC030020F40300201C
:104C5C00F4030020FC030020FC03002004040020CB
:104C6C00040400200C0400200C0400201404002078
:104C7C00140400201C0400201C0400202404002028
:104C8C00240400202C0400202C04002034040020D8
:104C9C00340400203C0400203C0400204404002088
:104CAC00440400204C0400204C0400205404002038
:104CBC00540400205C0400205C04002064040020E8
:104CCC00640400206C0400206C0400207404002098
:104CDC00740400207C0400207C0400208404002048
:104CEC00840400208C0400208C04002094040020F8
:104CFC00940400209C0400209C040020A4040020A8
:104D0C00A4040020AC040020AC040020B404002057
:104D1C00B4040020BC040020BC040020C404002007
:104D2C00C4040020CC040020CC040020D4040020B7
:104D3C00D4040020DC040020DC040020E404002067
:104D4C00E4040020EC040020EC040020FFFFFFFF33
:104D5C0000000200B00500208000000000000000F0
:104D6C000000000030060020800000000000000061
:104D7C0000000000007A030A00010000000C024051
:104D8C00000C0240000C0240000C024000000240EB
:104D9C0000100000FFFFFFFFAAAAAAAA0000000053
:0C4DAC00010203040102030406070809C9
:04000005080012B924
:00000001FF
