:020000040800F2
:100000000000022035150008951500089515000818
:1000100095150008951500089515000800000000CA
:100020000000000000000000000000003D38000853
:10003000951500080000000059390008A93900088A
:1000400095150008951500089515000895150008E8
:1000500095150008951500089515000895150008D8
:1000600095150008951500089515000895150008C8
:1000700095150008951500089515000895150008B8
:1000800095150008951500089515000895150008A8
:100090009515000895150008951500089515000898
:1000A0009515000895150008951500089515000888
:1000B0009515000895150008951500089515000878
:1000C0009515000895150008951500089515000868
:1000D00095150008F90D00089515000895150008FC
:1000E0009515000895150008951500089515000848
:1000F0009515000895150008951500089515000838
:100100009515000895150008951500089515000827
:100110009515000895150008951500089515000817
:100120009515000895150008951500089515000807
:1001300095150008951500089515000895150008F7
:1001400095150008951500089515000895150008E7
:1001500095150008951500089515000895150008D7
:1001600095150008951500089515000895150008C7
:1001700095150008951500089515000895150008B7
:08018000951500089515000813
:1001880010B540F26054C2F20004237863B940F21B
:100198000000C0F2000028B144F64C50C0F6000040
:1001A800AFF300800121217010BD00BF08B540F2F7
:1001B8000003C0F200034BB144F64C5040F26451C6
:1001C800C0F60000C2F20001AFF3008040F25C50BC
:1001D800C2F20000016829B140F20003C0F2000336
:1001E80003B1984708BD00BF70B544F6645644F69D
:1001F8006455C0F60006C0F60005761BB61006D09A
:10020800002455F8043B01349847A642F9D144F636
:100218006C5644F66455C0F60006C0F60005761B19
:1002280004F090FDB61006D0002455F8043B0134C4
:100238009847A642F9D170BD40F200030146C2F2C8
:100248000003186800F008B840F200030146C2F243
:100258000003186800F028BC2DE9F04F01F10B04E9
:10026800162C83B0064630D924F00704E30F8C42DD
:100278002CBF194643F0010100292FD1304601F067
:1002880009FBB4F5FC7F2DD24FEAD40E40F2F405F9
:10029800C2F2000505EBCE02D368934200F0238238
:1002A8005C6803F10807DA68304624F003049968AB
:1002B8001B195C68CA6044F0010491605C6001F03D
:1002C800F3FA384603B0BDE8F08F002310248C42BF
:1002D8002CBF194643F001010029CFD00C23002779
:1002E8003360EEE75FEA542E04BF4FEAD40E4FEABC
:1002F800CE0140F08C8040F2F405C2F20005691886
:10030800CF68B94206D10DE0002A80F28181FF68EA
:10031800B94207D07B6823F003031A1B0F2AF3DDC9
:100328000EF1FF3E0EF1010E40F2F4002F69C2F209
:10033800000000F10802974208BF436826D07B6896
:1003480023F0030CC4EB0C030F2B00F39C81002B50
:100358004261026180F29580BCF5007F80F0738174
:100368004FEADC0C4FF00108436800EBCC014FEA80
:10037800AC0C08FA0CF8F960D1F808C048EA030395
:100388004360C7F808C0CCF80C708F6001274FEAAB
:10039800AE0107FA01F79F427ED83B4206D12EF004
:1003A800030E7F000EF1040E3B42FAD005EBCE0996
:1003B800F046CC46DCF80C00844507D174E1002BEC
:1003C80080F29B81C068844500F06E81416821F00D
:1003D80003010B1B0F2BF2DD07460119D0F80CE0C7
:1003E80044F0010857F8084F43F0010CC0F80480A6
:1003F8003046C1F804C0C4F80CE0CEF80840696182
:100408002961CA608A60CB5001F04EFA59E7BEF103
:10041800040F9EBF4FEA941E0EF1380E4FEACE012C
:100428007FF669AFBEF1140F9CBF0EF15B0E4FEA69
:10043800CE017FF660AFBEF1540F9EBF4FEA143E67
:100448000EF16E0E4FEACE017FF655AFBEF5AA7FCC
:100458009EBF4FEAD43E0EF1770E4FEACE017FF6EB
:100468004AAF40F254539E4595BF4FEA944E4FF41D
:100478007C710EF17C0E4FF07E0E98BF4FEACE01D4
:1004880039E707EB0C03304608375A6842F0010297
:100498005A6001F009FA14E7AF6840F2F403C2F2B7
:1004A80000037A6822F003084445C4EB080294BFAD
:1004B800002101210F2AD8BF41F00101002900F0D5
:1004C800B58040F27C5AD3F80824C2F2000A0132FF
:1004D800DAF80030234408BF03F1100B06D003F507
:1004E80080530F3323F47E6323F01F0B30465946A5
:1004F80001F088F9421C814600F0318107EB0803BE
:10050800834200F20681DAF804204B455A44CAF8BF
:10051800042000F03181D5F8080440F2F401C2F259
:1005280000010130304617BFC3EB0903C1F8089436
:10053800D218CAF8042019F007031FBFC3F1080234
:10054800C3F58053914403F1080209EB0B0308BF7C
:100558004FF480521B051B0DC3EB020B594601F0EB
:1005680051F9431C00F01D81C9EB0001594441F0C9
:100578000101DAF80420AF4240F27C53C5F8089034
:100588005A44C2F20003C9F80410CAF8042019D06A
:10059800B8F10F0F40F2DD80A8F10C01D7F804C0C4
:1005A80021F007014FF0050E78180F290CF0010C07
:1005B80041EA0C0CC7F804C0C0F804E0C0F808E031
:1005C80000F2E68040F27C53DAF82C10C2F2000305
:1005D800AF688A42DAF8301088BFDA6240F27C539A
:1005E800C2F200038A4288BF1A637B6823F00303C0
:1005F8009C42C4EB030294BF002301230F2AD8BFF7
:1006080043F0010393B13046002701F04DF958E655
:10061800FB18FA68B96830465C680837CA6044F065
:10062800010491605C6001F03FF94AE63B1942F031
:10063800010244F0010430467C6008375A60AB6020
:1006480001F032F93DE64FEA5C23042B5CD9142B08
:1006580078D85B33D800281840F2F408C2F20008B2
:100668008168814203D160E08968884204D04B6880
:1006780023F003039C45F7D3C8686B68F860B9603A
:10068800CF60876082E6391943F00105416144F083
:100698000104016130467C600837CA608A604D6099
:1006A800CB5001F001F90CE608F101080CF1080C37
:1006B80018F0030F7FF47EAE4B461EF0030FA3F134
:1006C80008010EF1FF3E79D01B688B42F5D06B68AC
:1006D8007F009F423FF6E0AE002F3FF4DDAE1F42A1
:1006E80071D0C64662E603F108025B699A4208BF08
:1006F8000EF1020E3FF418AED2E507464318C26861
:10070800304657F8081FD4E54FEA9C133833D80011
:10071800A1E7AF4240F2F402C2F200023FF4F3AEA6
:1007280097687B6823F0030362E74FF00109D8F864
:1007380004C09B10084609FA03F343EA0C03C8F8FF
:1007480004309BE7542B0FD84FEA1C336E33D80084
:1007580081E701234F46C9F80430002348E7AF6812
:100768007B6823F0030343E7B3F5AA7F1DD84FEA5C
:10077800DC337733D8006EE71905090D00297FF4BB
:10078800CAAEAB680BEB080141F00101596019E7EB
:10079800304607F10801019300F086F9019B5A6879
:1007A80010E701214FF0000BE3E640F254518B4271
:1007B8000DD84FEA9C437C33D8004CE76B6823EA9A
:1007C80007036B6084E77F0008F1040887E74FF4AC
:1007D8007C707E233FE700BF032A2DE9F00109D88A
:1007E8002AB10023CC5CC45401339342FAD1BDE84A
:1007F800F001704785070244034605D011F8014B04
:1008080003F8014B9C07F9D111F0030542D0D41A23
:100818006E42032C8F5912DDC5F1040CED004FEA2E
:10082800CC0C043127FA05F88C59274604FA0CF445
:1008380044EA080443F8044BD41A032CF1DC9A4226
:10084800D5D900228D5C9D540132A242FAD1CEE75F
:100858000C681C604C685C608C689C60CC68DC60D0
:100868000C691C614C695C618C699C61CC69DC61B8
:100878000C6A1C624C6A5C628C6A9C62CC6ADC62A0
:100888000C6B1C634C6B5C638C6B9C63CC6B403156
:10089800DC634033D41A3F2CDADC0AE00C681C60B5
:1008A8004C685C608C689C60CC681031DC601033EC
:1008B800D41A0F2CF2DC04E051F8044B43F8044B33
:1008C800D41A032CF8DCBAE7032AC9B270B407D8E3
:1008D80022B10023C15401339342FBD170BC70474D
:1008E80085070244034603D003F8011B9C07FBD18C
:1008F8000C02D51A641826043F2D34441ADD1C60F6
:100908005C609C60DC601C615C619C61DC611C62F9
:100918005C629C62DC621C635C639C63DC634033E6
:10092800D51A3F2DEBDC05E01C605C609C60DC6048
:100938001033D51A0F2DF7DC02E043F8044BD51A13
:10094800032DFADC9342C9D203F8011B9342FBD171
:10095800C4E700BF41EA000313F0030F034670B475
:1009680014BF00240124032A94BF002404F00104C6
:100978000D46C4B9AAB10C78013A03F8014B4CB141
:100988001C4672B111F8016F013A04F8016B234655
:10099800002EF6D12AB19A18002103F8011B9342C0
:1009A800FBD170BC7047294655F8044BA4F10136B9
:1009B80026EA040616F0803FDCD1043A43F8044BDB
:1009C800032AF0D82946D5E7014600200246034607
:1009D80000F032B938B544F6705444F66C55C0F698
:1009E8000004C0F60005641BA41006D005EB8405BE
:1009F80055F8043D9847013CFAD1BDE8384004F069
:100A0800A7B900BFF8B540F2F404C2F200040F46DB
:100A1800054600F03FFFA36828465E6826F00306F7
:100A280006F57E630F33DF1B3F0B013F3F03B7F52E
:100A3800805F07DB002100F0E5FEA3689B19984260
:100A4800284603D000F030FF0020F8BD794200F0BE
:100A5800D9FE013010D040F28053A168C2F20003E1
:100A6800F61B284646F001061A684E60D71B1F6021
:100A780000F01AFF0120F8BD0021284600F0C2FE50
:100A8800A368C21A0F2A0DDD40F2FC4440F28051DF
:100A9800C2F20004C2F2000142F001025A60236867
:100AA800C01A08602846CDE7F8B50D460446002967
:100AB80075D000F0EFFE55F8046C40F2F400A5F193
:100AC8000801C2F2000026F00103CA18D0F808C0D5
:100AD8005768944527F003077ED016F00106576043
:100AE8004DD00026D5196D6815F0010F06D1DB1918
:100AF8009568002E64D0D268EA60956043F00102E0
:100B0800CB504A60002E35D1B3F5007F48D39E09FB
:100B18005A0A3836F500042A16D902F15B06F500A0
:100B2800142A11D91E0B6E36F500542A0CD9DE0B87
:100B38007736F500B2F5AA7F06D940F25455AA4295
:100B480074D89E0C7C36F500401940F2F405C2F2C8
:100B580000058268824203D15FE09268904204D027
:100B6800556825F00305AB42F7D3D368CB608A609C
:100B7800D16099602046BDE8F84000F095BE55F870
:100B8800085C00F1080C491B5B198D68654542D06B
:100B9800D1F80CC0C5F80CC0CCF80850A2E7F8BDD5
:100BA800DB080125466800EBC3029B1005FA03F336
:100BB800CA609568334343608D60E9609160D9E706
:100BC8001C4FBD4297D1416143F001020161CD60E4
:100BD8008D604A60CB50CDE7F2073B4407D455F807
:100BE800082C891A9B188D68CA68EA60956040F2DB
:100BF800005243F00105C2F200024D6081601268A4
:100C08009342B7D340F27C532046C2F200031968DE
:100C1800FFF7F8FEAEE7012664E701276868B6101B
:100C2800134607FA06F6304368609FE74FF47C7571
:100C38007E2689E7FC0000202DE9F04144F6C444F3
:100C4800C0F6000484B005462668B46C002C42D077
:100C580060681F281ADD40F24120C0F6000020B964
:100C68004FF0FF3004B0BDE8F0818C200391029270
:100C78000193FFF7E1FA0399029A019B04460028C1
:100C8800EED0B06C002784E88100B464DDB1D4F8FC
:100C9800880020B3D0F8008166680127022D06F18C
:100CA800200C07FA06F740F8262048EA070240F821
:100CB8002C3008BFD0F80431C0F8002104BF1F430E
:100CC800C0F8047100E06668B31C00200136666055
:100CD80044F82310C6E706F14C04B464B8E740F2C0
:100CE8004120C0F600000028BAD04FF48470039168
:100CF80002920193FFF7A0FA0399029A019B002838
:100D0800AED00026C0F80061C0F80461B046C4F84F
:100D18008800C1E780B582B000AF786039607B6831
:100D2800DB68002B02D14FF0000325E002F0DEFD66
:100D38007B6819687B689B681A468A1811783A6834
:100D4800117003F101027B689A607B689A687B687E
:100D58005B689A4206DB7B689A687B685B68D21A94
:100D68007B689A607B68DB6803F1FF327B68DA6036
:100D780002F0D2FD4FF00103184607F10807BD46FF
:100D880080BD00BF80B584B000AF78600B46FB70B3
:100D98007B68DA687B685B689A4202DB4FF0000385
:100DA80021E002F0A3FD7B689A687B68DB68D318B2
:100DB800FB607B685A68FB689A4204DC7B685B6866
:100DC800FA68D31AFB607B681A68FB68D318FA784C
:100DD8001A707B68DB6803F101027B68DA6002F055
:100DE8009BFD4FF00103184607F11007BD4680BD73
:100DF80080B582B000AF4FF48053C4F201031B8862
:100E08009BB203F02003002B29D04FF48053C4F287
:100E180001039B889BB2DBB240F20450C2F200008F
:100E28001946FFF7AFFF0346002B0CD140F2B06321
:100E3800C2F200031B6803F1010240F2B063C2F280
:100E480000031A600BE040F2B063C2F200035B6873
:100E580003F1010240F2B063C2F200035A604FF49A
:100E68008053C4F201031B889BB203F08003002B5C
:100E78002CD040F21450C2F2000007F107031946C3
:100E8800FFF748FF0346002B06D04FF48053C4F207
:100E98000103FA799A800DE04FF48053C4F20103FC
:100EA8004FF48052C4F20102928992B222F0800279
:100EB80092B29A8140F2B063C2F200039B6803F1D8
:100EC800010240F2B063C2F200039A6007F108071A
:100ED800BD4680BD80B582B000AF02F007FD4FF47B
:100EE800A053C4F200035B6A7B6040F2BC63C2F2A9
:100EF80000031B881A467B689A4203DD7B6803F56A
:100F080080337B6040F2BC63C2F200031B887A68BE
:100F1800D11A0A464FEAE27340F2C061C2F20001F8
:100F2800D1E90001801841EB030140F2C063C2F22D
:100F38000003C3E900017B689AB240F2BC63C2F2C5
:100F480000031A8002F0E8FC40F2C063C2F200031A
:100F5800D3E900231046194607F10807BD4680BDAE
:100F680080B584B000AF3B46184602F0A9FF4FF4A5
:100F78006053C4F202034FF46052C4F20202126CCE
:100F880042F020021A644FF4A053C4F20003F96837
:100F98004DF68362C4F21B32A2FB01024FEA924271
:100FA80092B202F1FF3292B21A854FF4A053C4F202
:100FB80000034FF6FF72DA624FF4A053C4F2000345
:100FC8004FF001021A8007F11007BD4680BD00BF2F
:100FD80080B584B004AF4FF001004FF0060102F075
:100FE80071F8024640F2EC73C2F200031A604FF047
:100FF80001004FF0000102F065F8024640F2C863B4
:10100800C2F200031A6040F2C863C2F200031B6810
:10101800002B0DD040F2C863C2F200031B681846CB
:101028004FF000014FF000024FF0000302F0B2F859
:1010380040F2C863C2F200031B6818464FF0000173
:101048004FF000024FF0000302F034F900F002FF05
:101058004FF0000300934FF0000301934FF000039B
:1010680002934FF00003039341F2E930C0F6000009
:1010780044F63841C0F600014FF480724FF0000387
:1010880001F0B2F84FF00003009340F2D873C2F2B7
:10109800000301934FF0000302934FF00003039302
:1010A80041F20D10C0F6000044F64041C0F60001C0
:1010B8004FF480724FF0000301F096F84FF00003F0
:1010C800009340F2F473C2F2000301934FF000035F
:1010D80002934FF00003039341F22920C0F6000069
:1010E80044F64841C0F600014FF480724FF0000307
:1010F80001F07AF801F02CFA4FF000031846BD46CB
:1011080080BD00BF80B58AB000AF78607B683B6265
:101118004FF0000387F827304FF000033B614FF092
:101128000003FB773B7EDBB2FB733B7DDBB2BB731B
:101138004FF00003BB7700E000BF97F8273003F1BA
:10114800010387F8273097F827300A2BF4D14FF09E
:101158000003BB764FF00003BB7507F11803184670
:101168004FF029014FF0040200F0DCFC07F11403F2
:1011780018464FF02B014FF0040200F0D3FC3A7EE2
:10118800FB7BDBB2DBB2D31ADBB23B763A7DBB7BAF
:10119800DBB2DBB2D31ADBB23B753B7EDBB25BB2B0
:1011A800002BB8BF5B427B773B7DDBB25BB2002B89
:1011B800B8BF5B42BB777A7FBB7F9A4228BF134692
:1011C800FB77FB7F002BB7D03B7EDBB25BB213F122
:1011D800020F03DA4FF0010000F070FB3B7EDBB238
:1011E8005BB2022B03DD4FF0010000F081FB3B7D79
:1011F800DBB25BB2022B03DD4FF0020000F078FB9C
:101208003B7DDBB25BB213F1020F03DA4FF0000053
:1012180000F06EFB4FF0000387F827308CE700BF23
:1012280080B586B000AF78604FF00003FB754FF0D3
:1012380000037B7540F2EC73C2F200031B6818468A
:1012480007F10C0319464FF000024FF0000302F0BB
:1012580031F80346012B40F0C0804FF40060C4F21F
:1012680000004FF000014FF0000203F0A7FC4FF41C
:101278000060C4F200004FF004014FF0000203F0D8
:101288009DFC4FF40060C4F200004FF008014FF0DD
:10129800000203F093FC4FF40060C4F200004FF02A
:1012A8000C014FF0000203F089FC3B7BDBB25BB220
:1012B800002BB8BF5B42BB75BB7BDBB25BB2002BBC
:1012C800B8BF5B42FB75BA7DFB7D9A4228BF1346C7
:1012D800DBB27B757B7DDBB2002B7ED03B7BDBB248
:1012E8005BB213F1020F16DA4FF40060C4F200008B
:1012F8004FF00C014FF0010203F060FC7B7DDBB284
:101308004FF47A7292FBF3F34FF40060C4F20000DA
:10131800194603F0CDFB3B7BDBB25BB2022B16DD3B
:101328004FF40060C4F200004FF004014FF00102D6
:1013380003F044FC7B7DDBB24FF47A7292FBF3F34B
:101348004FF40060C4F20000194603F095FBBB7B24
:10135800DBB25BB2022B16DD4FF40060C4F2000072
:101368004FF000014FF0010203F028FC7B7DDBB257
:101378004FF47A7292FBF3F34FF40060C4F200006A
:10138800194603F06BFBBB7BDBB25BB213F1020FB8
:1013980016DA4FF40060C4F200004FF008014FF075
:1013A800010203F00BFC7B7DDBB24FF47A7292FBF7
:1013B800F3F34FF40060C4F20000194603F06AFB2F
:1013C8007B7DDBB240F26C7292FBF3F34FF400606A
:1013D800C4F20000194603F0E1F802F07BFA29E7AD
:1013E80080B582B000AF786040F2C863C2F20003F3
:1013F8001B6818464FF000014FF000024FF0000341
:1014080001F058FF0346012B40F08C8040F2CC637A
:10141800C2F200031B6883F0010240F2CC63C2F2FF
:1014280000031A6040F2CC63C2F200031B68002B71
:101438003CD140F2F473C2F200031B68184600F076
:10144800A9FF4FF40060C4F200004FF0000103F060
:10145800D3F840F2D873C2F200031B68184600F0B4
:1014680099FF4FF0000000F011FD40F2DC73C2F26A
:1014780000031B68184601F015F840F2DC73C2F24D
:1014880000035B68184601F00DF840F2DC73C2F205
:1014980000039B68184601F005F840F2DC73C2F2BD
:1014A8000003DB68184600F0FDFF3BE040F2DC7308
:1014B800C2F200031B68184600F06CFF40F2DC73B0
:1014C800C2F200035B68184600F064FF40F2DC7368
:1014D800C2F200039B68184600F05CFF40F2DC7320
:1014E800C2F20003DB68184600F054FF4FF0010019
:1014F80000F0CCFC4FF40060C4F200004FF0010192
:1015080003F07AF840F2F473C2F200031B6818463D
:1015180000F0C8FF40F2D873C2F200031B681846F7
:1015280000F0C0FF02F0D6F95EE700BF002100F02E
:1015380004B8104B5B58435004310F480F4B421806
:101548009A42FFF4F6AF0E4A00F003B8002342F8BF
:10155800043B0C4B9A42FFF4F9AF0B48016841F485
:101568007001016000F014F8FEF73EFEFFF730FD51
:1015780070470000704D0008000000205C05002046
:1015880060050020FC07002088ED00E0FFF7FEBFA3
:1015980080B500AF4FF46053C4F202034FF46052B9
:1015A800C4F20202126842F001021A604FF460535A
:1015B800C4F202034FF000029A604FF46053C4F281
:1015C80002034FF46052C4F20202126822F08472DD
:1015D80022F480321A604FF46053C4F2020343F2DB
:1015E8001002C2F200425A604FF46053C4F2020380
:1015F8004FF46052C4F20202126822F480221A6088
:101608004FF46053C4F202034FF00002DA6000F0B6
:1016180009F84FF46D43CEF200034FF000629A6070
:1016280080BD00BF80B483B000AF4FF000037B6083
:101638004FF000033B604FF46053C4F202034FF4D1
:101648006052C4F20202126842F480321A604FF407
:101658006053C4F202031B6803F400333B607B68E9
:1016680003F101037B603B68002B03D17B68B3F572
:10167800A06FECD14FF46053C4F202031B6803F46B
:101688000033002B03D04FF001033B6002E04FF022
:1016980000033B603B68012B40F082804FF46053AD
:1016A800C4F202034FF46052C4F20202126C42F018
:1016B80080521A644FF4E043C4F200034FF4E0424E
:1016C800C4F20002126842F480421A604FF4605378
:1016D800C4F202034FF46052C4F2020292689A60A4
:1016E8004FF46053C4F202034FF46052C4F2020292
:1016F800926842F400429A604FF46053C4F20203C5
:101708004FF46052C4F20202926842F4A0529A6006
:101718004FF46053C4F2020345F20842C0F240722B
:101728005A604FF46053C4F202034FF46052C4F29B
:101738000202126842F080721A6000BF4FF46053D0
:10174800C4F202031B6803F00073002BF6D04FF4B9
:101758007053C4F2020340F205621A604FF46053FA
:10176800C4F202034FF46052C4F20202926822F0FB
:1017780003029A604FF46053C4F202034FF46052BC
:10178800C4F20202926842F002029A6000BF4FF46B
:101798006053C4F202039B6803F00C03082BF6D1D4
:1017A8004FF46053C4F202034FF46052C4F20202D1
:1017B800926822F400029A604FF46053C4F2020364
:1017C8004FF44052C5F20002C3F884204FF460532E
:1017D800C4F202034FF46052C4F20202126842F0EB
:1017E80080621A6000BF4FF46053C4F202031B68A2
:1017F80003F00063002BF6D007F10C07BD4680BC50
:10180800704700BF90B484B000AF7860396040F290
:10181800F873C2F200031B68002B08D140F2F8737A
:10182800C2F2000340F2FC72C2F200021A6040F2F7
:10183800F873C2F200031A683B68D218EFF3088401
:101848002346194640F22853C2F200031B68CB1AFC
:101858009A4206D97B684FF00C021A604FF0FF33AA
:1018680012E040F2F873C2F200031B68FB6040F21A
:10187800F873C2F200031A683B68D21840F2F87392
:10188800C2F200031A60FB68184607F11007BD464C
:1018980090BC704780B582B000AF786002F026F83F
:1018A80007F10807BD4680BD80B582B000AF7860FB
:1018B80002F032F807F10807BD4680BD80B483B056
:1018C80000AF0346FB71FA7940F22C53C2F20003D1
:1018D80053F82220F97944F62853C0F6000333F868
:1018E8001130138307F10C07BD4680BC704700BF59
:1018F80080B483B000AF0346FB71FA7940F22C53F1
:10190800C2F2000353F82220F97944F62853C0F6AE
:10191800000333F81130538307F10C07BD4680BC30
:10192800704700BF80B588B000AF02460B46FA7119
:10193800BB71FA7944F63453C0F6000353F82230E9
:1019480018464FF0010102F0A1FB4FF480404FF020
:10195800010102F0EFFB4FF000033B774FF000036B
:10196800FB77FA7944F63053C0F6000333F81230A7
:10197800BB61FA7940F23C53C2F2000353F82230BB
:10198800184607F11803194602F088F9BB79012BAC
:101998003AD1FA7944F63C53C0F600039A5CF979D7
:1019A80044F64053C0F600035B5C1046194602F04B
:1019B80023FDFA7944F63853C0F6000333F81230A1
:1019C8003B614FF000033B754FF008037B754FF008
:1019D8000103BB7507F11003184602F0C3F8FA7942
:1019E80044F64453C0F600039B5C3B734FF00F036F
:1019F8007B734FF00F03BB734FF00103FB7307F1C9
:101A08000C03184602F026F807F12007BD4680BDF2
:101A180080B584B000AF78604FF00003FB7300F02E
:101A2800C1F87B685A787B681B781343DAB27B6805
:101A3800DB781343DAB27B681B791343DAB27B682D
:101A48009B781343DBB2FB7307F10F0318464FF083
:101A580020014FF0010200F02DF807F11007BD46F4
:101A680080BD00BF80B584B000AF78604FF0000340
:101A7800FB7307F10F0318464FF038014FF00102CE
:101A880000F050F87B681A787B685B781343DAB209
:101A98007B689B781343DBB2FB7307F10F0318468F
:101AA8004FF038014FF0010200F004F807F1100779
:101AB800BD4680BD80B582B000AF786013460A4647
:101AC800FA703B803B88012B03D9FB7843F0400335
:101AD800FB704FF48050C4F202004FF0080102F08E
:101AE8008DF9FB78184600F043F90CE07B681B7809
:101AF800184600F03DF93B8803F1FF333B807B68D3
:101B080003F101037B603B88002BEFD14FF4805039
:101B1800C4F202004FF0080102F062F907F1080769
:101B2800BD4680BD80B582B000AF786013460A46D6
:101B3800FA703B803B88012B04D9FB7863F03F03A4
:101B4800FB7003E0FB7863F07F03FB704FF4805079
:101B5800C4F202004FF0080102F050F9FB78184671
:101B680000F006F90FE04FF0000000F001F903461D
:101B78001A467B681A703B8803F1FF333B807B6809
:101B880003F101037B603B88002BECD14FF48050BC
:101B9800C4F202004FF0080102F022F907F1080729
:101BA800BD4680BD80B588B000AF4FF480504FF07F
:101BB800010102F0BFFA4FF001004FF0010102F0FD
:101BC80065FA4FF010004FF0010102F05FFA4FF094
:101BD80010004FF0010102F059FA4FF010004FF0D9
:101BE800010102F053FA4FF00000C4F202004FF076
:101BF80005014FF0050202F00FF94FF00000C4F2A2
:101C080002004FF006014FF0050202F005F94FF00F
:101C18000000C4F202004FF007014FF0050202F085
:101C2800FBF84FF002033B774FF00003BB774FF010
:101C38000203FB774FF002037B774FF02003BB6171
:101C48004FF00000C4F2020007F11803194602F031
:101C580025F84FF08003BB614FF00000C4F202008A
:101C680007F11803194602F019F84FF04003BB6159
:101C78004FF00000C4F2020007F11803194602F001
:101C88000DF84FF44050C4F2010002F0D1FA4FF0C1
:101C98000003BB804FF000033B814FF000037B81C2
:101CA8004FF00003BB814FF40073FB814FF0080332
:101CB8003B824FF000037B824FF00703BB824FF457
:101CC8008273FB804FF44050C4F2010007F1040313
:101CD800194602F0F1FA4FF44050C4F201004FF0F7
:101CE800010102F02DFB4FF00803BB614FF0010327
:101CF8003B774FF00003BB774FF002037B774FF43D
:101D08008050C4F2020007F11803194601F0C6FF1B
:101D18004FF48050C4F202004FF0080102F060F85E
:101D28004FF00103BB614FF000033B774FF0000316
:101D3800BB774FF002037B774FF00003FB774FF43C
:101D48008050C4F2020007F11803194601F0A6FFFB
:101D58004FF00203BB614FF48050C4F2020007F158
:101D68001803194601F09AFF07F12007BD4680BD08
:101D780080B582B000AF0346FB7140F24053C2F217
:101D880000034FF480521A6017E040F24053C2F249
:101D980000031B68002B14BF00220122D2B203F1FA
:101DA800FF3140F24053C2F200031960002A04D008
:101DB80000F060F90346DBB246E04FF44050C4F24D
:101DC80001004FF0020102F0F7FA0346002BDCD0C5
:101DD800FB799BB24FF44050C4F20100194602F05F
:101DE800DDFA40F24053C2F200034FF480521A6009
:101DF80017E040F24053C2F200031B68002B14BFE7
:101E080000220122D2B203F1FF3140F24053C2F264
:101E180000031960002A04D000F02CF90346DBB255
:101E280012E04FF44050C4F201004FF0010102F0FB
:101E3800C3FA0346002BDCD04FF44050C4F2010033
:101E480002F09EFA0346DBB2184607F10807BD46C2
:101E580080BD00BF80B500AF4FF000604FF00001BB
:101E680001F06AFE4FF4407001F0E0FD4FF0000011
:101E780000F00CF84FF000004FF00101FFF752FDA1
:101E880000F0FCF800F064F880BD00BF80B584B0B5
:101E980000AF0346FB714FF008004FF0010102F05C
:101EA800F5F84FF47043BB604FF00003BB734FF07D
:101EB80003037B734FF00003FB73FB79002B0CD1FA
:101EC8004FF001033B734FF44060C4F2020007F186
:101ED8000803194601F0E2FE36E04FF47043BB6098
:101EE8004FF002033B734FF44060C4F2020007F165
:101EF8000803194601F0D2FE4FF44060C4F2020014
:101F08004FF00C014FF0020201F086FF4FF44060E1
:101F1800C4F202004FF00D014FF0020201F07CFF05
:101F28004FF44060C4F202004FF00E014FF002027D
:101F380001F072FF4FF44060C4F202004FF00F014D
:101F48004FF0020201F068FF07F11007BD4680BD9F
:101F580080B584B000AF4FF00003FB724FF0000370
:101F6800FB604FF040033B714FF000037B714FF073
:101F78000703BB714FF00003FB714FF000033B7286
:101F880007F104031846FFF743FD4FF040033B7089
:101F98004FF010037B704FF02003BB703B46184690
:101FA800FFF760FD4FF00003FB6003E0FB6803F1FF
:101FB8000103FB60FA684FF6FE73C0F201039A4210
:101FC800F4D94FF00703FB7207F10B0318464FF0E3
:101FD80022014FF00102FFF76DFD4FF07003FB7215
:101FE80007F10B0318464FF038014FF00102FFF7D5
:101FF80061FD4FF0AA03FB7207F10B0318464FF07F
:102008003B014FF00102FFF755FD4FF00A03FB7249
:1020180007F10B0318464FF03C014FF00102FFF7A0
:1020280049FD4FF00303FB7207F10B0318464FF00D
:102038003D014FF00102FFF73DFD4FF07F03FB72BA
:1020480007F10B0318464FF03E014FF00102FFF76E
:1020580031FD4FF07F03FB7207F10B0318464FF079
:102068003F014FF00102FFF725FD07F11007BD46BC
:1020780080BD00BF80B400AFFEE700BF80B58AB066
:1020880000AF4FF00003FB844FF004004FF0010154
:1020980002F026F840F22453C2F200031A6844F60C
:1020A800D353C1F26203A3FB02134FEA13239BB27B
:1020B80003F1FF33FB8440F26C73BB60FB8CBB8085
:1020C8004FF00003BB814FF00003FB804FF400602A
:1020D800C4F2000007F10403194602F0E5F94FF4D1
:1020E8000060C4F200004FF0010102F065FA4FF001
:1020F80060033B824FF001037B824FF47A73BB612C
:102108004FF00003BB834FF40060C4F2000007F1F6
:102118001003194602F090FA4FF40060C4F2000070
:102128004FF000014FF0000202F048FD4FF400604C
:10213800C4F200004FF0080102F0C8FC4FF4006040
:10214800C4F2000007F11003194602F0F3FA4FF445
:102158000060C4F200004FF004014FF0000202F0EA
:102168002DFD4FF40060C4F200004FF0080102F0AA
:10217800C9FC4FF40060C4F2000007F110031946CF
:1021880002F06CFB4FF40060C4F200004FF008014D
:102198004FF0000202F012FD4FF40060C4F200009C
:1021A8004FF0080102F0CEFC4FF40060C4F20000CA
:1021B80007F11003194602F0E1FB4FF40060C4F286
:1021C80000004FF00C014FF0000202F0F7FC4FF452
:1021D8000060C4F200004FF0080102F0CFFC07F1E4
:1021E8002807BD4680BD00BF80B58AB002AFF86041
:1021F800B9603B601346FB80FB881846396B00F0DA
:1022080053FEB861BB69002B00F0A580BB691A6B4F
:10221800FB8803F1FF334FEA8303D3187B617B69A3
:1022280023F007037B61FB880093B869B968BA6A31
:102238007B6B00F011FD7869F9683A6801F0C2FA21
:102248000246BB691A60FB6A002B02D0FB6ABA69B6
:102258001A6001F04BFB40F2AC73C2F200031B683A
:1022680003F1010240F2AC73C2F200031A6040F2BB
:10227800D063C2F200031B68002B0FD140F2D06379
:10228800C2F20003BA691A6040F2AC73C2F20003EA
:102298001B68012B18D100F023FD15E040F2BC7338
:1022A800C2F200031B68002B0ED140F2D063C2F2C9
:1022B80000031B68DA6ABB6A9A4205D840F2D06309
:1022C800C2F20003BA691A60BB69DA6A40F2B473F1
:1022D800C2F200031B689A4206D9BB69DA6A40F267
:1022E800B473C2F200031A6040F2D073C2F2000362
:1022F8001B6803F1010240F2D073C2F200031A60B6
:10230800BB69DA6A40F2B873C2F200031B689A42EA
:1023180006D9BB69DA6A40F2B873C2F200031A60E0
:10232800BB69DA6A13464FEA83039B184FEA8303B3
:102338001A4640F2D463C2F20003D218BB6903F113
:1023480004031046194601F0B1F94FF00103FB618F
:1023580001F0E2FA02E04FF0FF33FB61FB69012B69
:1023680011D140F2BC73C2F200031B68002B0AD0E3
:1023780040F2D063C2F200031B68DA6ABB6A9A4271
:1023880001D201F0A7FAFB69184607F12007BD46FC
:1023980080BD00BF80B584B000AF786001F0A6FAB8
:1023A80040F2D063C2F200031B687A689A4202D1F5
:1023B8004FF000037B607B68002B05D140F2D063AF
:1023C800C2F200031B6800E07B68FB60FB6803F156
:1023D8000403184601F0CCF9FB689B6A002B05D072
:1023E800FB6803F11803184601F0C2F9FB6803F112
:1023F800040340F29470C2F20000194601F056F945
:1024080001F08AFA7B68002B1FD140F2BC73C2F23C
:1024180000031B68002B02D001F05CFA15E040F2C3
:102428009473C2F200031A6840F2AC73C2F200035C
:102438001B689A4207D140F2D063C2F200034FF002
:1024480000021A6001E000F059FA07F11007BD46D2
:1024580080BD00BF80B485B000AF78604FF0000346
:10246800FB607B68BB60BB685A6940F29473C2F238
:1024780000039A420ED1BB689A6A40F26873C2F2AE
:1024880000039A4206D0BB689B6A002B02D14FF02A
:102498000103FB60FB68184607F11407BD4680BCC2
:1024A800704700BF80B584B000AF78607B68FB6080
:1024B800FB68002B48D040F2D063C2F200031B68CF
:1024C800FA689A4240D001F011FAF868FFF7C2FFA3
:1024D8000346012B36D1FB6803F10403184601F0CB
:1024E80047F9FB68DA6A40F2B873C2F200031B6866
:1024F8009A4206D9FB68DA6A40F2B873C2F200035E
:102508001A60FB68DA6A13464FEA83039B184FEA9E
:1025180083031A4640F2D463C2F20003D218FB6860
:1025280003F104031046194601F0C0F8FB68DA6AA3
:1025380040F2D063C2F200031B68DB6A9A4201D3FF
:1025480001F0C8F901F0E8F907F11007BD4680BDB0
:1025580080B586B004AF4FF00003009340F2A87333
:10256800C2F2000301934FF0000302934FF00003FF
:10257800039342F63D40C0F6000044F65041C0F6D1
:1025880000014FF480724FF00003FFF72DFE7860D2
:102598007B68012B15D14FF0BF0080F3118840F202
:1025A800BC73C2F200034FF001021A6040F2B0732C
:1025B800C2F200034FF000021A60FEF7D1FC01F0EE
:1025C80051F907F10807BD4680BD00BF80B400AFD0
:1025D80040F2C073C2F200031B6803F1010240F22B
:1025E800C073C2F200031A60BD4680BC704700BFCA
:1025F80090B583B000AF4FF000037B6001F076F92F
:1026080040F2C073C2F200031B6803F1FF3240F2CC
:10261800C073C2F200031A6040F2C073C2F2000332
:102628001B68002B40F0858040F2AC73C2F20003B7
:102638001B68002B7DD04FF000033B603CE040F26C
:102648006873C2F20003DB68DC6804F118031846FB
:1026580001F08EF804F10403184601F089F8E26AE3
:1026680040F2B873C2F200031B689A4205D9E26AC5
:1026780040F2B873C2F200031A60E26A13464FEAE6
:1026880083039B184FEA83031A4640F2D463C2F2CD
:102698000003D21804F104031046194601F006F8A5
:1026A800E26A40F2D063C2F200031B68DB6A9A4216
:1026B80002D34FF001033B6040F26873C2F200039B
:1026C8001B68002BBBD140F2C473C2F200031B6825
:1026D800002B18D00DE000F035F840F2C473C2F2B8
:1026E80000031B6803F1FF3240F2C473C2F2000317
:1026F8001A6040F2C473C2F200031B68002BEAD1CF
:102708004FF001033B603B68012B06D040F2C873D1
:10271800C2F200031B68012B0BD14FF001037B6051
:1027280040F2C873C2F200034FF000021A6001F0D1
:10273800D1F801F0F1F87B68184607F10C07BD469F
:1027480090BD00BF80B584B000AF40F2C073C2F244
:1027580000031B68002B40F0C08040F2B073C2F247
:1027680000031B6803F1010240F2B073C2F20003D8
:102778001A6040F2B073C2F200031B68002B40D10C
:1027880040F26073C2F200031B68FB6040F264739E
:10279800C2F200031A6840F26073C2F200031A60C2
:1027A80040F26473C2F20003FA681A6040F2CC7314
:1027B800C2F200031B6803F1010240F2CC73C2F2BB
:1027C80000031A6040F26073C2F200031B681B68C2
:1027D800002B07D140F24453C2F200034FF0FF32FE
:1027E8001A600EE040F26073C2F200031B68DB68F7
:1027F800DB68BB60BB685A6840F24453C2F200030E
:102808001A6040F2B073C2F200031A6840F24453EF
:10281800C2F200031B689A426BD340F26073C2F2A3
:1028280000031B681B68002B07D140F24453C2F217
:1028380000034FF0FF321A605BE040F26073C2F2AF
:1028480000031B68DB68DB68BB60BB685B687B6098
:1028580040F2B073C2F200031A687B689A4206D24B
:1028680040F24453C2F200037A681A6041E0BB6840
:1028780003F10403184600F07BFFBB689B6A002B3A
:1028880005D0BB6803F11803184600F071FFBB6858
:10289800DA6A40F2B873C2F200031B689A4206D99A
:1028A800BB68DA6A40F2B873C2F200031A60BB6808
:1028B800DA6A13464FEA83039B184FEA83031A46E2
:1028C80040F2D463C2F20003D218BB6803F10403D8
:1028D8001046194600F0EAFE9FE740F2C473C2F2C0
:1028E80000031B6803F1010240F2C473C2F2000343
:1028F8001A6007F11007BD4680BD00BF80B582B0E1
:1029080000AF40F2C073C2F200031B68002B07D06F
:1029180040F2C873C2F200034FF001021A6071E07E
:10292800FEF7D8FA02460B4613467B6040F2D063A6
:10293800C2F200031A68D16C40F2D473C2F20003E9
:102948001B687868C31ACB18D36440F2D473C2F2F8
:1029580000037A681A600BE040F2B873C2F2000311
:102968001B6803F1FF3240F2B873C2F200031A6029
:1029780040F2B873C2F200031A6813464FEA8303A1
:102988009B184FEA83031A4640F2D463C2F200034D
:10299800D3181B68002BDFD040F2B873C2F20003D3
:1029A8001A6813464FEA83039B184FEA83031A46B3
:1029B80040F2D463C2F20003D3183B603B685B6803
:1029C8005A683B685A603B685A683B6803F10803D9
:1029D8009A4204D13B685B685A683B685A603B6816
:1029E8005B68DA6840F2D063C2F200031A604FF401
:1029F800E843C4F2000340F2D062C2F20002126857
:102A0800926CDA6007F10807BD4680BD80B584B0D6
:102A180000AF7860396040F2D063C2F200031B68EF
:102A280003F118037868194600F068FE40F2D06395
:102A3800C2F200031B6803F10403184600F098FE75
:102A48003B68B3F1FF3F0ED140F2D063C2F20003FE
:102A58001B6803F1040340F29470C2F200001946A7
:102A680000F024FE0AE040F2B073C2F200031A68D4
:102A78003B68D318FB60F86800F0D0F907F110073D
:102A8800BD4680BD80B584B000AF78607B68DB68E8
:102A9800DB68BB60BB6803F11803184600F068FEEA
:102AA80040F2C073C2F200031B68002B2BD1BB6835
:102AB80003F10403184600F05BFEBB68DA6A40F2D3
:102AC800B873C2F200031B689A4206D9BB68DA6A77
:102AD80040F2B873C2F200031A60BB68DA6A1346A0
:102AE8004FEA83039B184FEA83031A4640F2D463E4
:102AF800C2F20003D218BB6803F10403104619465A
:102B080000F0D4FD09E0BB6803F1180340F26870D7
:102B1800C2F20000194600F0C9FDBB68DA6A40F24B
:102B2800D063C2F200031B68DB6A9A4203D34FF0FA
:102B38000103FB6002E04FF00003FB60FB681846EE
:102B480007F11007BD4680BD80B483B000AF786040
:102B580040F2CC73C2F200031A687B681A6040F234
:102B6800B073C2F200031A687B685A6007F10C0759
:102B7800BD4680BC704700BF80B584B000AF7860A8
:102B8800396000F0B3FE3B681B68B3F1FF3F03D127
:102B98004FF00003FB6038E07B681A6840F2CC73A2
:102BA800C2F200031B689A420CD07B685A6840F254
:102BB800B073C2F200031B689A4203D84FF00103B6
:102BC800FB6022E040F2B073C2F200031A687B682F
:102BD8005B68D21A3B681B689A4213D23B681A6832
:102BE8007B68596840F2B073C2F200031B68CB1AC5
:102BF800D2183B681A607868FFF7A6FF4FF0000309
:102C0800FB6002E04FF00103FB6000F085FEFB680B
:102C1800184607F11007BD4680BD00BF80B400AF5D
:102C280040F2C873C2F200034FF001021A60BD46B9
:102C380080BC704780B582B000AF786000E000BF0C
:102C480000F0A0F840F2D463C2F200031B68012B25
:102C5800F5D900F03FFEF2E780B584B000AFF86028
:102C6800B9607A603B60FB6803F134031846B968C1
:102C78004FF01002FDF76EFEFB684FF0000283F87C
:102C880043207B68042B02D94FF004037B60FB6868
:102C98007A68DA62FB687A685A64FB6803F10403AD
:102CA800184600F0F5FCFB6803F11803184600F01D
:102CB800EFFCFB68FA681A617B68C3F10502FB68E0
:102CC8009A61FB68FA685A62FB684FF000029A64DE
:102CD800FB684FF00002DA6407F11007BD4680BDBB
:102CE80080B582B000AF4FF000037B6013E07A68D4
:102CF80013464FEA83039B184FEA83031A4640F2B0
:102D0800D463C2F20003D318184600F0A1FC7B6814
:102D180003F101037B607B68042BE8D940F238702B
:102D2800C2F2000000F094FC40F24C70C2F20000C5
:102D380000F08EFC40F26870C2F2000000F088FCDF
:102D480040F27C70C2F2000000F082FC40F2947005
:102D5800C2F2000000F07CFC40F26073C2F2000393
:102D680040F23872C2F200021A6040F26473C2F292
:102D7800000340F24C72C2F200021A6007F1080721
:102D8800BD4680BD80B582B000AF40F29073C2F2FC
:102D980000031B68002B3CD0FFF718FC40F27C7343
:102DA800C2F200031B68002B14BF002301237B60C1
:102DB800FFF71EFC7B68002B2BD100F097FD40F23B
:102DC8007C73C2F20003DB68DB683B603B6803F19D
:102DD8000403184600F0CCFC40F2AC73C2F20003C6
:102DE8001B6803F1FF3240F2AC73C2F200031A60B1
:102DF80040F29073C2F200031B6803F1FF3240F205
:102E08009073C2F200031A6000F086FD386800F083
:102E180085F807F10807BD4680BD00BF80B582B0C0
:102E280000AF786040F2D063C2F200031B687A6892
:102E38005A6040F2B073C2F200031B687A689A4283
:102E480010D240F26473C2F200031A6840F2D063F1
:102E5800C2F200031B6803F104031046194600F090
:102E68004DFC1DE040F26073C2F200031A6840F2A4
:102E7800D063C2F200031B6803F10403104619462D
:102E880000F03CFC40F24453C2F200031B687A682D
:102E98009A4205D240F24453C2F200037A681A609B
:102EA80007F10807BD4680BD80B584B000AF034672
:102EB8003960FB804FF05000FDF7BEF90346FB6018
:102EC800FB68002B23D03B68002B07D1FB884FEA17
:102ED80083031846FDF7B0F9034600E03B68FA683B
:102EE8001363FB681B6B002B06D1F868FDF7ACF980
:102EF8004FF00003FB600AE0FB681A6BFB884FEA9F
:102F0800830310464FF0A5011A46FDF7DDFCFB6868
:102F1800184607F11007BD4680BD00BF80B582B0D6
:102F280000AF78607B681B6B1846FDF78DF97868F1
:102F3800FDF78AF907F10807BD4680BD80B483B064
:102F480000AF40F2D063C2F200031B687B607B686D
:102F5800184607F10C07BD4680BC704780B584B0A1
:102F680000AF78607B68FB60FB68DA6A40F2D06388
:102F7800C2F200031B68DB6A9A4257D240F2D06360
:102F8800C2F200031B68DB6AC3F10502FB689A61A1
:102F9800FB685969FB68DA6A13464FEA83039B1892
:102FA8004FEA83031A4640F2D463C2F20003D318EF
:102FB800994233D1FB6803F10403184600F0D8FBAB
:102FC80040F2D063C2F200031B68DA6AFB68DA6277
:102FD800FB68DA6A40F2B873C2F200031B689A42CF
:102FE80006D9FB68DA6A40F2B873C2F200031A60C5
:102FF800FB68DA6A13464FEA83039B184FEA830398
:103008001A4640F2D463C2F20003D218FB6803F1F7
:1030180004031046194600F049FB07E040F2D0636C
:10302800C2F200031B68DA6AFB68DA6207F110076C
:10303800BD4680BD80B584B000AF78607B68FB601A
:103048007B68002B3AD0FB68DA6AFB685B6C9A42B3
:1030580034D0FB6803F10403184600F089FBFB68D1
:103068005A6CFB68DA62FB68DB6AC3F10502FB682D
:103078009A61FB68DA6A40F2B873C2F200031B680F
:103088009A4206D9FB68DA6A40F2B873C2F20003C2
:103098001A60FB68DA6A13464FEA83039B184FEA03
:1030A80083031A4640F2D463C2F20003D218FB68C5
:1030B80003F104031046194600F0F8FA07F1100767
:1030C800BD4680BD80B586B000AF786039604FF0EE
:1030D80000037B617B68002B56D04FF04C00FDF756
:1030E800ABF803463B613B69002B4DD07B683A68DF
:1030F80002FB03F303F10103FB60F868FDF79CF89A
:1031080003461A463B691A603B691B68002B38D096
:103118003B691A687B68396801FB03F3D2183B697D
:103128005A603B694FF000029A633B691A683B6931
:103138009A603B691A687B6803F1FF33396801FBC1
:1031480003F3D2183B69DA603B697A68DA633B6952
:103158003A681A643B694FF0FF325A643B694FF092
:10316800FF329A643B6903F11003184600F070FAC5
:103178003B6903F12403184600F06AFA3B697B6156
:1031880002E03869FDF760F87B69184607F118070F
:10319800BD4680BD80B588B000AFF860B9607A6080
:1031A8003B604FF00003FB6100E000BF00F09EFBB6
:1031B800FB689A6BFB68DB6B9A4218D2F868B968AF
:1031C8003A6800F03BF9FB685B6A002B0AD0FB68A1
:1031D80003F124031846FFF755FC0346012B01D1E0
:1031E80000F078FB00F098FB4FF001035DE07B688E
:1031F800002B04D100F090FB4FF0000355E0FB6971
:10320800002B07D107F114031846FFF79DFC4FF078
:103218000103FB6100F080FBFFF7D8F900F066FBC3
:10322800FB685B6CB3F1FF3F03D1FB684FF0000212
:103238005A64FB689B6CB3F1FF3F03D1FB684FF006
:1032480000029A6400F068FB07F11403184607F1BE
:1032580004031946FFF790FC0346002B1ED1F868BB
:1032680000F0DEF90346002B12D0FB6803F11002D0
:103278007B6810461946FFF7C9FBF86800F06AF941
:10328800FFF7B6F90346002B8FD100F023FB8CE73C
:10329800F86800F05FF9FFF7ABF986E7F86800F027
:1032A80059F9FFF7A5F94FF00003184607F1200771
:1032B800BD4680BD80B588B000AFF860B9607A605F
:1032C8003B604FF00003FB6100E000BF00F00EFB25
:1032D800FB689B6B002B3FD0FB68DB68BB61F86821
:1032E800B96800F00FF93B68002B1ED1FB689B6B97
:1032F80003F1FF32FB689A63FB681B68002B04D15B
:10330800FFF71CFE0246FB685A60FB681B69002B2E
:103318001DD0FB6803F110031846FFF7B3FB034603
:10332800012B14D100F0D6FA11E0FB68BA69DA6013
:10333800FB685B6A002B0AD0FB6803F1240318467C
:10334800FFF7A0FB0346002B01D000F0C3FA00F002
:10335800E3FA4FF001036BE07B68002B04D100F027
:10336800DBFA4FF0000363E0FB69002B07D107F19C
:1033780010031846FFF7E8FB4FF00103FB6100F06C
:10338800CBFAFFF723F900F0B1FAFB685B6CB3F1F5
:10339800FF3F03D1FB684FF000025A64FB689B6C47
:1033A800B3F1FF3F03D1FB684FF000029A6400F0CD
:1033B800B3FA07F11003184607F104031946FFF79B
:1033C800DBFB0346002B2CD1F86800F013F9034609
:1033D800002B20D0FB681B68002B08D100F086FA70
:1033E800FB685B681846FFF7B9FD00F095FAFB68C3
:1033F80003F124027B6810461946FFF707FBF868BB
:1034080000F0A8F8FFF7F4F80346002B7FF45DAF4F
:1034180000F060FA59E7F86800F09CF8FFF7E8F860
:1034280053E7F86800F096F8FFF7E2F84FF000036A
:10343800184607F12007BD4680BD00BF80B584B09F
:1034480000AFF860B9607A60FB681B6C002B0DD187
:10345800FB681B68002B4AD1FB685B681846FFF7BE
:10346800E9FDFB684FF000025A6040E07B68002BE2
:103478001BD1FB689968FB681B6CBA680846114643
:103488001A46FDF7A9F9FB689A68FB681B6CD21805
:10349800FB689A60FB689A68FB685B689A4226D367
:1034A800FB681A68FB689A6021E0FB68D968FB68CA
:1034B8001B6CBA68084611461A46FDF78DF9FB6879
:1034C800DA68FB681B6CC3F10003D218FB68DA608A
:1034D800FB68DA68FB681B689A4208D2FB685A687E
:1034E800FB681B6CC3F10003D218FB68DA60FB6849
:1034F8009B6B03F10102FB689A6307F11007BD4655
:1035080080BD00BF80B582B000AF786039607B684D
:103518001B68002B1AD07B68DA687B681B6CD21892
:103528007B68DA607B68DA687B685B689A4203D3F9
:103538007B681A687B68DA607B68DA687B681B6C72
:103548003968084611461A46FDF746F907F1080793
:10355800BD4680BD80B582B000AF786000F0C6F986
:1035680014E07B685B6A002B15D07B6803F12403A9
:103578001846FFF787FA0346002B01D0FFF74EFBEA
:103588007B689B6C03F1FF327B689A647B689B6C59
:10359800002BE6DC00E000BF7B684FF0FF329A6446
:1035A80000F0BAF900F0A2F914E07B681B69002B5F
:1035B80015D07B6803F110031846FFF763FA03463A
:1035C800002B01D0FFF72AFB7B685B6C03F1FF320D
:1035D8007B685A647B685B6C002BE6DC00E000BF0C
:1035E8007B684FF0FF325A6400F096F907F108073C
:1035F800BD4680BD80B584B000AF786000F076F934
:103608007B689B6B002B14BF00230123FB6000F039
:1036180083F9FB68184607F11007BD4680BD00BF57
:1036280080B584B000AF786000F060F97B689A6B71
:103638007B68DB6B9A4214BF00230123FB6000F018
:103648006BF9FB68184607F11007BD4680BD00BF3F
:1036580080B483B000AF78607B6803F108027B68B0
:103668005A607B684FF0FF329A607B6803F108026A
:103678007B68DA607B6803F108027B681A617B6803
:103688004FF000021A6007F10C07BD4680BC704776
:1036980080B483B000AF78607B684FF000021A6195
:1036A80007F10C07BD4680BC704700BF80B485B0E9
:1036B80000AF786039607B685B68FB60FB685A68BC
:1036C8003B685A607B685A683B689A60FB685B682D
:1036D8003A689A60FB683A685A607B683A685A6048
:1036E8003B687A681A617B681B6803F101027B6892
:1036F8001A6007F11407BD4680BC704780B485B0D6
:1037080000AF786039603B681B68BB60BB68B3F189
:10371800FF3F03D17B681B69FB600DE07B6803F109
:103728000803FB6002E0FB685B68FB60FB685B68A2
:103738001A68BB689A42F6D9FB685A683B685A60AF
:103748003B685B683A689A603B68FA689A60FB680D
:103758003A685A603B687A681A617B681B6803F1AB
:1037680001027B681A6007F11407BD4680BC7047E8
:1037780080B485B000AF78607B685B687A689268CF
:103788009A607B689B687A6852685A607B681B6994
:10379800FB60FB685A687B689A4203D17B689A6829
:1037A800FB685A607B684FF000021A61FB681B686F
:1037B80003F1FF32FB681A6007F11407BD4680BCAD
:1037C800704700BF80B485B000AFF860B9607A6018
:1037D800FB68A3F10403FB60FB684FF080721A607A
:1037E800FB68A3F10403FB60BA68FB681A60FB6816
:1037F800A3F10403FB60FB684FF000021A60FB684A
:10380800A3F11403FB607A68FB681A60FB68A3F1F4
:103818000403FB60FB686FF002021A60FB68A3F107
:103828002003FB60FB68184607F11407BD4680BCFF
:10383800704700BF054B19680868B0E8F04F80F37F
:1038480009884FF0000080F311887047D0060020E7
:1038580003480068006880F3088862B600DF00BF8C
:1038680008ED00E080B500AF4EF62053CEF200031D
:103878004EF62052CEF20002126842F47F021A601D
:103888004EF62053CEF200034EF62052CEF200023E
:10389800126842F07F421A6000F09EF840F24853E6
:1038A800C2F200034FF000021A6000F0B5F84EF6BD
:1038B8003473CEF200034EF63472CEF20002126870
:1038C80042F040421A60FFF7C3FF4FF0000318466A
:1038D80080BD00BF80B400AF4EF60453CEF20003A3
:1038E8004FF080521A60BD4680BC704780B400AF6C
:1038F8004FF0BF0080F3118840F24853C2F2000332
:103908001B6803F1010240F24853C2F200031A6037
:10391800BD4680BC704700BF80B400AF40F248533A
:10392800C2F200031B6803F1FF3240F24853C2F2AF
:1039380000031A6040F24853C2F200031B68002BD0
:1039480003D14FF0000080F31188BD4680BC70475A
:10395800EFF30980114B1A681EF0100F08BF20ED15
:10396800108A20E9F04F10602DE908404FF0BF00A1
:1039780080F31188FEF7C2FF4FF0000080F3118832
:10398800BDE8084019680868B0E8F04F1EF0100F4D
:1039980008BFB0EC108A80F309887047D006002071
:1039A80080B582B000AF4EF60453CEF200034FF05C
:1039B80080521A604FF000037B604FF0BF0080F325
:1039C8001188FEF7BFFE4FF0000080F3118807F161
:1039D8000807BD4680BD00BF80B400AF4EF2140397
:1039E800CEF2000340F22452C2F20002116844F6FB
:1039F800D352C1F26202A2FB01024FEA921202F113
:103A0800FF321A604EF21003CEF200034FF00702A5
:103A18001A60BD4680BC7047DFF80C00016841F4AD
:103A2800700101607047000088ED00E080B483B049
:103A380000AF78604FF46D43CEF200037A6842F02D
:103A4800BE6242F42022DA6007F10C07BD4680BC52
:103A5800704700BF80B485B000AF78604FF00003B6
:103A6800FB734FF00003BB734FF00F037B737B684E
:103A7800DB78002B45D04FF46D43CEF20003DB68B2
:103A88006FEA030303F4E0634FEA1323FB73FB7B42
:103A9800C3F10403BB737A7BFB7B42FA03F37B73AA
:103AA8007B685B781A46BB7B02FA03F3FB737B687F
:103AB8009A787B7B1340DAB2FB7B1343FB73FB7B67
:103AC8004FEA0313FB734FF46143CEF200037A68A5
:103AD80012789B18FA7B83F800234FF46143CEF2E7
:103AE80000037A6812784FEA5212D2B279680978DC
:103AF80001F01F014FF0010000FA01F143F8221014
:103B080014E04FF46143CEF200037A6812784FEA6A
:103B18005212D2B27968097801F01F014FF0010002
:103B280000FA01F102F1200243F8221007F114070C
:103B3800BD4680BC704700BF80B483B000AF7860DA
:103B480039604FF46D43CEF200033A6822F06042C8
:103B580022F07F0279680A439A6007F10C07BD4694
:103B680080BC704780B485B000AF78604FF0000328
:103B7800FB604FF47053C4F20103FB607B689B79D0
:103B8800002B78D04FF47053C4F201034FF47052F5
:103B9800C4F2010211687A6812686FEA02020A40E8
:103BA8001A604FF47053C4F201034FF47052C4F218
:103BB800010251687A6812686FEA02020A405A6084
:103BC8007B681B79FA68D318FB60FB68FA68116890
:103BD8007A6812680A431A604FF47053C4F20103FA
:103BE8004FF47052C4F2010291687A6812686FEA61
:103BF80002020A409A604FF47053C4F201034FF472
:103C08007052C4F20102D1687A6812686FEA02023F
:103C18000A40DA607B685B79102B1AD14FF4705335
:103C2800C4F201034FF47052C4F2010291687A6839
:103C380012680A439A604FF47053C4F201034FF4B8
:103C48007052C4F20102D1687A6812680A43DA60D5
:103C58001FE04FF47053C4F20103FB607B685B798B
:103C6800FA68D318FB60FB68FA6811687A6812680A
:103C78000A431A600DE07B681B79FA68D318FB6069
:103C8800FB68FA6811687A6812686FEA02020A40EB
:103C98001A6007F11407BD4680BC704780B487B02E
:103CA80000AF786039604FF000037B614FF000038C
:103CB8003B614FF00003FB604FF000037B6186E03F
:103CC8007B694FF0010202FA03F33B613B681A6813
:103CD8003B691340FB60FA683B699A4273D17B6881
:103CE8001A687B694FEA43034FF0030101FA03F3B3
:103CF8006FEA03031A407B681A607B681A683B689E
:103D08001B7919467B694FEA430301FA03F31A4307
:103D18007B681A603B681B79012B03D03B681B79D1
:103D2800022B34D17B689A687B694FEA43034FF0D2
:103D3800030101FA03F36FEA03031A407B689A60F0
:103D48007B689A683B685B7919467B694FEA43034D
:103D580001FA03F31A437B689A607B685A687B69A7
:103D68009BB24FF0010101FA03F36FEA03031A4013
:103D78007B685A607B685A683B689B7919467B69FF
:103D88009BB201FA03F39BB21A437B685A607B68C3
:103D9800DA687B699BB24FEA43034FF0030101FAEB
:103DA80003F36FEA03031A407B68DA607B68DA681A
:103DB8003B68DB7919467B694FEA430301FA03F351
:103DC8001A437B68DA607B6903F101037B617B69D5
:103DD8000F2B7FF675AF07F11C07BD4680BC7047F7
:103DE80080B483B000AF78600B467B807B687A88AC
:103DF8001A8307F10C07BD4680BC704780B483B0B6
:103E080000AF78600B467B807B687A885A8307F11D
:103E18000C07BD4680BC704780B485B000AF7860A1
:103E280013460A467A807B704FF00003FB604FF020
:103E38000003BB607A787B8803F007034FEA8303AB
:103E480002FA03F3FB607B884FEAD3039BB21A465E
:103E58007B884FEAD3039BB219467B6801F10801BE
:103E680053F821107B8803F007034FEA83034FF0D0
:103E78000F0000FA03F36FEA030319407B6802F1AD
:103E8800080243F822107B884FEAD3039BB21A46F4
:103E98007B6802F1080253F82220FB681343BB60D9
:103EA8007B884FEAD3039BB21A467B6802F108026B
:103EB800B96843F8221007F11407BD4680BC704763
:103EC80080B489B000AF78604FF00003BB614FF059
:103ED80000037B614FF00003FB614FF002033B617D
:103EE8004FF00003FB604FF00203BB604FF46053D8
:103EF800C4F202039B6803F00C03BB61BB69042B8B
:103F08000AD0082B0FD0002B60D17A684FF41053D9
:103F1800C0F2F403136060E07A684FF49053C0F283
:103F28007A03136059E04FF46053C4F202035B68EC
:103F380003F480034FEA9353FB604FF46053C4F2D9
:103F480002035B6803F03F03BB60FB68002B14D0DF
:103F58004FF49053C0F27A03BA68B3FBF2F24FF40D
:103F68006053C4F20203596847F6C0730B404FEA26
:103F7800931303FB02F3FB6113E04FF41053C0F2F9
:103F8800F403BA68B3FBF2F24FF46053C4F20203CD
:103F9800596847F6C0730B404FEA931303FB02F3CB
:103FA800FB614FF46053C4F202035B6803F44033CF
:103FB8004FEA134303F101034FEA43033B61FA69F4
:103FC8003B69B2FBF3F27B681A6006E07A684FF44B
:103FD8001053C0F2F403136000BF4FF46053C4F2EF
:103FE80002039B6803F0F003BB61BB694FEA13133C
:103FF800BB6140F24C53C2F20003BA699B181B78AC
:10400800DBB27B617B681A687B6922FA03F27B6802
:104018005A604FF46053C4F202039B6803F4E05300
:10402800BB61BB694FEA9323BB6140F24C53C2F2B8
:104038000003BA699B181B78DBB27B617B685A68FE
:104048007B6922FA03F27B689A604FF46053C4F2EA
:1040580002039B6803F46043BB61BB694FEA5333B7
:10406800BB6140F24C53C2F20003BA699B181B783B
:10407800DBB27B617B685A687B6922FA03F27B6852
:10408800DA6007F12407BD4680BC704780B483B06E
:1040980000AF78600B46FB70FB78002B0CD04FF418
:1040A8006053C4F202034FF46052C4F20202116B6F
:1040B8007A680A431A630DE04FF46053C4F20203AE
:1040C8004FF46052C4F20202116B7A686FEA02027E
:1040D8000A401A6307F10C07BD4680BC704700BF51
:1040E80080B483B000AF78600B46FB70FB78002B80
:1040F8000CD04FF46053C4F202034FF46052C4F280
:104108000202116C7A680A431A640DE04FF4605396
:10411800C4F202034FF46052C4F20202116C7A68CE
:104128006FEA02020A401A6407F10C07BD4680BC18
:10413800704700BF80B483B000AF78600B46FB7057
:10414800FB78002B0CD04FF46053C4F202034FF4F9
:104158006052C4F20202516C7A680A435A640DE054
:104168004FF46053C4F202034FF46052C4F20202E7
:10417800516C7A686FEA02020A405A6407F10C0728
:10418800BD4680BC704700BF80B483B000AF786084
:104198000B46FB70FB78002B0CD04FF46053C4F235
:1041A80002034FF46052C4F20202116A7A680A43A9
:1041B8001A620DE04FF46053C4F202034FF46052E8
:1041C800C4F20202116A7A686FEA02020A401A62AD
:1041D80007F10C07BD4680BC704700BF80B483B0B0
:1041E80000AF78600B46FB70FB78002B0CD04FF4C7
:1041F8006053C4F202034FF46052C4F20202516ADF
:104208007A680A435A620DE04FF46053C4F202031D
:104218004FF46052C4F20202516A7A686FEA0202ED
:104228000A405A6207F10C07BD4680BC704700BFC0
:1042380080B582B000AF78607A684FF44053C4F21A
:1042480001039A420CD14FF480504FF00101FFF75F
:10425800C5FF4FF480504FF00001FFF7BFFF26E085
:104268007A684FF46053C4F200039A420CD14FF4B9
:1042780080404FF00101FFF787FF4FF480404FF077
:104288000001FFF781FF12E07A684FF47053C4F21F
:1042980000039A420BD14FF400404FF00101FFF7A1
:1042A80073FF4FF400404FF00001FFF76DFF07F177
:1042B8000807BD4680BD00BF80B485B000AF7860F8
:1042C80039604FF00003FB817B681B88FB81FB8909
:1042D80003F44153FB813B681A883B685B881343AE
:1042E8009AB23B689B8813439AB23B68DB881343B6
:1042F8009AB23B681B8913439AB23B685B891343A4
:104308009AB23B689B8913439AB23B68DB89134393
:104318009AB2FB891343FB817B68FA891A807B6810
:104328009B8B9BB223F400639AB27B689A833B68A9
:104338001A8A7B681A8207F11407BD4680BC704749
:1043480080B483B000AF78600B46FB70FB78002B1D
:1043580008D07B681B889BB243F040039AB27B6805
:104368001A8007E07B681B889BB223F040039AB24F
:104378007B681A8007F10C07BD4680BC704700BFF8
:1043880080B483B000AF78607B689B899BB2184685
:1043980007F10C07BD4680BC704700BF80B483B0EE
:1043A80000AF78600B467B807B687A889A8107F13A
:1043B8000C07BD4680BC704780B485B000AF7860FC
:1043C8000B467B804FF00003FB737B681B899AB216
:1043D8007B8813409BB2002B03D04FF00103FB7383
:1043E80002E04FF00003FB73FB7B184607F114074C
:1043F800BD4680BC704700BF90B484B000AF024691
:104408000B46FA71BB714FF00003FB60BB7903F0F8
:1044180003034FEA83034FF00F0202FA03F3FB6032
:104428004FF46053C4F20103BA794FEA9202D2B250
:1044380010464FF46052C4F20102B9794FEA910173
:10444800C9B201F1020152F82110FA686FEA0202BA
:10445800114000F1020243F822104FF46053C4F2F5
:104468000103BA794FEA9202D2B210464FF4605271
:10447800C4F20102B9794FEA9101C9B201F102010E
:1044880052F82110FC79BA7902F003024FEA82024D
:1044980004FA02F2114300F1020243F8221007F174
:1044A8001007BD4690BC704780B485B000AF7860F7
:1044B80039604FF00003FB817B681B88FB817A68B9
:1044C8004FF00003C4F201039A421FD07A684FF4F8
:1044D8008063C4F201039A4218D07B68B3F1804F1D
:1044E80014D07A684FF48063C4F200039A420DD066
:1044F8007A684FF40063C4F200039A4206D07A68DF
:104508004FF44063C4F200039A4208D1FB8923F0B8
:104518007003FB813B685A88FB891343FB817A68E7
:104528004FF48053C4F200039A420FD07A684FF4D4
:10453800A053C4F200039A4208D0FB8923F44073C5
:10454800FB813B681A89FB891343FB817B68FA89E5
:104558001A803B685A687B68DA623B681A887B680D
:104568001A857A684FF00003C4F201039A4206D014
:104578007A684FF48063C4F201039A4204D13B681D
:104588009B7A1A467B681A867B684FF001029A82EA
:1045980007F11407BD4680BC704700BF80B483B0E4
:1045A80000AF786039607B683A68DA6207F10C0717
:1045B800BD4680BC704700BF80B483B000AF786050
:1045C8000B46FB70FB78002B08D07B681B889BB2DE
:1045D80043F080039AB27B681A8007E07B681B88E7
:1045E8009BB223F080039AB27B681A8007F10C070C
:1045F800BD4680BC704700BF80B483B000AF786010
:104608000B46FB70FB78002B08D07B681B889BB29D
:1046180043F001039AB27B681A8007E07B681B8825
:104628009BB223F001039AB27B681A8007F10C074A
:10463800BD4680BC704700BF80B485B000AF7860CD
:1046480039604FF000037B814FF00003FB814FF08E
:104658000003BB817B681B8C9BB223F001039AB2D9
:104668007B681A847B681B8CFB817B689B88BB8179
:104678007B681B8B7B817B8923F070037B817B8923
:1046880023F003037B813B681A887B8913437B8172
:10469800FB8923F00203FB813B689A89FB8913435A
:1046A800FB813B685A88FB891343FB817A684FF08A
:1046B8000003C4F201039A4206D07A684FF480637B
:1046C800C4F201039A4223D1FB8923F00803FB813A
:1046D8003B68DA89FB891343FB81FB8923F00403D8
:1046E800FB813B689A88FB891343FB81BB8923F4D0
:1046F8008073BB81BB8923F40073BB813B681A8A32
:10470800BB891343BB813B685A8ABB891343BB816E
:104718007B68BA899A807B687A891A833B689A6829
:104728007B685A637B68FA891A8407F11407BD46C7
:1047380080BC704780B485B000AF786039604FF0B6
:1047480000037B814FF00003FB814FF00003BB8126
:104758007B681B8C9BB223F010039AB27B681A8487
:104768007B681B8CFB817B689B88BB817B681B8B70
:104778007B817B8923F4E0437B817B8923F440732D
:104788007B813B681B884FEA03239AB27B891343DA
:104798007B81FB8923F02003FB813B689B894FEADF
:1047A80003139AB2FB891343FB813B685B884FEA8A
:1047B80003139AB2FB891343FB817A684FF0000315
:1047C800C4F201039A4206D07A684FF48063C4F2B7
:1047D80001039A422FD1FB8923F08003FB813B68B8
:1047E800DB894FEA03139AB2FB891343FB81FB89E8
:1047F80023F04003FB813B689B884FEA03139AB27E
:10480800FB891343FB81BB8923F48063BB81BB898C
:1048180023F40063BB813B681B8A4FEA83039AB287
:10482800BB891343BB813B685B8A4FEA83039AB217
:10483800BB891343BB817B68BA899A807B687A8974
:104848001A833B689A687B689A637B68FA891A843A
:1048580007F11407BD4680BC704700BF80B485B01F
:1048680000AF786039604FF000037B814FF00003A0
:10487800FB814FF00003BB817B681B8C9BB223F448
:1048880080739AB27B681A847B681B8CFB817B6877
:104898009B88BB817B689B8B7B817B8923F0700322
:1048A8007B817B8923F003037B813B681A887B89A2
:1048B80013437B81FB8923F40073FB813B689B894D
:1048C8004FEA03239AB2FB891343FB813B685B8859
:1048D8004FEA03239AB2FB891343FB817A684FF0AE
:1048E8000003C4F201039A4206D07A684FF4806349
:1048F800C4F201039A422FD1FB8923F40063FB81A0
:104908003B68DB894FEA03239AB2FB891343FB8197
:10491800FB8923F48063FB813B689B884FEA032370
:104928009AB2FB891343FB81BB8923F48053BB8173
:10493800BB8923F40053BB813B681B8A4FEA0313EE
:104948009AB2BB891343BB813B685B8A4FEA031366
:104958009AB2BB891343BB817B68BA899A807B680A
:104968007A899A833B689A687B68DA637B68FA89F4
:104978001A8407F11407BD4680BC704780B485B01F
:1049880000AF786039604FF00003BB814FF000033F
:104998007B814FF00003FB817B681B8C9BB223F467
:1049A80080539AB27B681A847B681B8C7B817B68F6
:1049B8009B88FB817B689B8BBB81BB8923F4E0438D
:1049C800BB81BB8923F44073BB813B681B884FEADA
:1049D80003239AB2BB891343BB817B8923F4005319
:1049E8007B813B689B894FEA03339AB27B891343E7
:1049F8007B813B685B884FEA03339AB27B89134318
:104A08007B817A684FF00003C4F201039A4206D012
:104A18007A684FF48063C4F201039A420BD1FB8990
:104A280023F48043FB813B681B8A4FEA83139AB2C5
:104A3800FB891343FB817B68FA899A807B68BA8972
:104A48009A833B689A687B681A647B687A891A84B7
:104A580007F11407BD4680BC704700BF80B483B01F
:104A680000AF786039607B683A685A6307F10C07D1
:104A7800BD4680BC704700BF80B483B000AF78608B
:104A880039607B683A689A6307F10C07BD4680BCB9
:104A9800704700BF80B483B000AF786039607B682E
:104AA8003A68DA6307F10C07BD4680BC704700BF5F
:104AB80080B483B000AF786039607B683A681A6464
:104AC80007F10C07BD4680BC704700BF80B485B0B5
:104AD80000AF78600B467B804FF00003FB817B685A
:104AE8001B8BFB81FB8923F00803FB81FA897B88F8
:104AF8001343FB817B68FA891A8307F11407BD46C3
:104B080080BC704780B485B000AF78600B467B806E
:104B18004FF00003FB817B681B8BFB81FB8923F42F
:104B28000063FB817B884FEA03239AB2FB89134316
:104B3800FB817B68FA891A8307F11407BD4680BC9C
:104B4800704700BF80B485B000AF78600B467B80AB
:104B58004FF00003FB817B689B8BFB81FB8923F073
:104B68000803FB81FA897B881343FB817B68FA89F8
:104B78009A8307F11407BD4680BC704780B485B09E
:104B880000AF78600B467B804FF00003FB817B68A9
:104B98009B8BFB81FB8923F40063FB817B884FEAB5
:104BA80003239AB2FB891343FB817B68FA899A83B2
:104BB80007F11407BD4680BC704700BF80B485B0BC
:104BC80000AF786013460A467A803B804FF00003B6
:104BD800FB817B884FF0010202FA03F3FB817B68BB
:104BE8001B8C9AB2FB896FEA03039BB213409AB2FB
:104BF8007B681A847B681B8C9AB239887B8801FA97
:104C080003F39BB213439AB27B681A8407F1140723
:104C1800BD4680BC704700BF40F20003C0F20003ED
:104C28002BB140F6DD10C0F60000FBF7CDBE704793
:104C380053574954434800004D454D530000000068
:104C480042414C414E43450049444C450000000058
:104C58000D0A00002575202025632020252D3136DA
:104C680073202020202020202020203020202030C9
:104C7800252520202535750D0A00000025752020E2
:104C880025632020252D31367320253130752025C8
:104C98003375252520202535750D0A00257520201A
:104CA80025632020252D31367320253130752020AD
:104CB8003C31252520202535750D0A0004000020EB
:104CC80000000000000000000000000000000000DC
:104CD80000000000000000000000000000000000CC
:104CE80000000000000000000000000000000000BC
:104CF80000000000000000000000000000000000AC
:104D0800000000000000000000000000000000009B
:104D1800000000000000000000000000000000008B
:104D28000010002000400080010000000100000089
:104D38000100000000000000000000000600000064
:104D480043000000F8B500BFF8BC08BC9E46704799
:0C4D5800F8B500BFF8BC08BC9E467047D0
:084D6400214C0008B501000814
:044D6C0089010008B1
:104D70000400002000000000084D0008E84C000876
:104D8000C84C000800000000000000000000000007
:104D900000000000484D0008000000000000000076
:104DA0000000000000000000000000000000000003
:104DB00000000000000000000000000000000000F3
:104DC00000000000000000000000000000000000E3
:104DD00000000000000000000000000000000000D3
:104DE00000000000000000000000000000000000C3
:104DF00000000000000000000000000000000000B3
:104E000000000000000000000000000000000000A2
:104E10000000000000000000000000000000000092
:104E20000000000000000000000000000000000082
:104E30000000000000000000000000000000000072
:104E40000000000000000000000000000000000062
:104E50000000000000000000000000000000000052
:104E6000000000000000000000000000F40000202E
:104E7000F4000020FC000020FC00002004010020C1
:104E8000040100200C0100200C010020140100206E
:104E9000140100201C0100201C010020240100201E
:104EA000240100202C0100202C01002034010020CE
:104EB000340100203C0100203C010020440100207E
:104EC000440100204C0100204C010020540100202E
:104ED000540100205C0100205C01002064010020DE
:104EE000640100206C0100206C010020740100208E
:104EF000740100207C0100207C010020840100203E
:104F0000840100208C0100208C01002094010020ED
:104F1000940100209C0100209C010020A40100209D
:104F2000A4010020AC010020AC010020B40100204D
:104F3000B4010020BC010020BC010020C4010020FD
:104F4000C4010020CC010020CC010020D4010020AD
:104F5000D4010020DC010020DC010020E40100205D
:104F6000E4010020EC010020EC010020F40100200D
:104F7000F4010020FC010020FC01002004020020BC
:104F8000040200200C0200200C0200201402002069
:104F9000140200201C0200201C0200202402002019
:104FA000240200202C0200202C02002034020020C9
:104FB000340200203C0200203C0200204402002079
:104FC000440200204C0200204C0200205402002029
:104FD000540200205C0200205C02002064020020D9
:104FE000640200206C0200206C0200207402002089
:104FF000740200207C0200207C0200208402002039
:10500000840200208C0200208C02002094020020E8
:10501000940200209C0200209C020020A402002098
:10502000A4020020AC020020AC020020B402002048
:10503000B4020020BC020020BC020020C4020020F8
:10504000C4020020CC020020CC020020D4020020A8
:10505000D4020020DC020020DC020020E402002058
:10506000E4020020EC020020EC020020F402002008
:10507000F4020020FC020020FC02002004030020B7
:10508000040300200C0300200C0300201403002064
:10509000140300201C0300201C0300202403002014
:1050A000240300202C0300202C03002034030020C4
:1050B000340300203C0300203C0300204403002074
:1050C000440300204C0300204C0300205403002024
:1050D000540300205C0300205C03002064030020D4
:1050E000640300206C0300206C0300207403002084
:1050F000740300207C0300207C0300208403002034
:10510000840300208C0300208C03002094030020E3
:10511000940300209C0300209C030020A403002093
:10512000A4030020AC030020AC030020B403002043
:10513000B4030020BC030020BC030020C4030020F3
:10514000C4030020CC030020CC030020D4030020A3
:10515000D4030020DC030020DC030020E403002053
:10516000E4030020EC030020EC030020F403002003
:10517000F4030020FC030020FC03002004040020B2
:10518000040400200C0400200C040020140400205F
:10519000140400201C0400201C040020240400200F
:1051A000240400202C0400202C04002034040020BF
:1051B000340400203C0400203C040020440400206F
:1051C000440400204C0400204C040020540400201F
:1051D000540400205C0400205C04002064040020CF
:1051E000640400206C0400206C040020740400207F
:1051F000740400207C0400207C040020840400202F
:10520000840400208C0400208C04002094040020DE
:10521000940400209C0400209C040020A40400208E
:10522000A4040020AC040020AC040020B40400203E
:10523000B4040020BC040020BC040020C4040020EE
:10524000C4040020CC040020CC040020D40400209E
:10525000D4040020DC040020DC040020E40400204E
:10526000E4040020EC040020EC040020FFFFFFFF1A
:1052700000000200B00500208000000000000000D7
:105280000000000030060020800000000000000048
:1052900000000000007A030A00010000000C024038
:1052A000000C0240000C0240000C024000000240D2
:1052B00000100000FFFFFFFFAAAAAAAA000000003A
:0C52C000010203040102030406070809B0
:0400000508001535A5
:00000001FF
